{"contracts/POLICYS.sol":{"InsurancePolicy":{"abi":[{"inputs":[],"stateMutability":"nonpayable","type":"constructor"},{"inputs":[{"internalType":"address","name":"sender","type":"address"},{"internalType":"uint256","name":"tokenId","type":"uint256"},{"internalType":"address","name":"owner","type":"address"}],"name":"ERC721IncorrectOwner","type":"error"},{"inputs":[{"internalType":"address","name":"operator","type":"address"},{"internalType":"uint256","name":"tokenId","type":"uint256"}],"name":"ERC721InsufficientApproval","type":"error"},{"inputs":[{"internalType":"address","name":"approver","type":"address"}],"name":"ERC721InvalidApprover","type":"error"},{"inputs":[{"internalType":"address","name":"operator","type":"address"}],"name":"ERC721InvalidOperator","type":"error"},{"inputs":[{"internalType":"address","name":"owner","type":"address"}],"name":"ERC721InvalidOwner","type":"error"},{"inputs":[{"internalType":"address","name":"receiver","type":"address"}],"name":"ERC721InvalidReceiver","type":"error"},{"inputs":[{"internalType":"address","name":"sender","type":"address"}],"name":"ERC721InvalidSender","type":"error"},{"inputs":[{"internalType":"uint256","name":"tokenId","type":"uint256"}],"name":"ERC721NonexistentToken","type":"error"},{"inputs":[{"internalType":"address","name":"owner","type":"address"}],"name":"OwnableInvalidOwner","type":"error"},{"inputs":[{"internalType":"address","name":"account","type":"address"}],"name":"OwnableUnauthorizedAccount","type":"error"},{"anonymous":false,"inputs":[{"indexed":true,"internalType":"address","name":"admin","type":"address"}],"name":"AdminAdded","type":"event"},{"anonymous":false,"inputs":[{"indexed":true,"internalType":"address","name":"admin","type":"address"}],"name":"AdminRemoved","type":"event"},{"anonymous":false,"inputs":[{"indexed":true,"internalType":"address","name":"owner","type":"address"},{"indexed":true,"internalType":"address","name":"approved","type":"address"},{"indexed":true,"internalType":"uint256","name":"tokenId","type":"uint256"}],"name":"Approval","type":"event"},{"anonymous":false,"inputs":[{"indexed":true,"internalType":"address","name":"owner","type":"address"},{"indexed":true,"internalType":"address","name":"operator","type":"address"},{"indexed":false,"internalType":"bool","name":"approved","type":"bool"}],"name":"ApprovalForAll","type":"event"},{"anonymous":false,"inputs":[{"indexed":true,"internalType":"uint256","name":"policyId","type":"uint256"}],"name":"ClaimApproved","type":"event"},{"anonymous":false,"inputs":[{"indexed":true,"internalType":"uint256","name":"policyId","type":"uint256"}],"name":"ClaimSubmitted","type":"event"},{"anonymous":false,"inputs":[{"indexed":true,"internalType":"address","name":"previousOwner","type":"address"},{"indexed":true,"internalType":"address","name":"newOwner","type":"address"}],"name":"OwnershipTransferred","type":"event"},{"anonymous":false,"inputs":[{"indexed":true,"internalType":"address","name":"user","type":"address"},{"indexed":true,"internalType":"uint256","name":"policyId","type":"uint256"},{"indexed":false,"internalType":"uint256","name":"amount","type":"uint256"}],"name":"PolicyPurchased","type":"event"},{"anonymous":false,"inputs":[{"indexed":true,"internalType":"address","name":"from","type":"address"},{"indexed":true,"internalType":"address","name":"to","type":"address"},{"indexed":true,"internalType":"uint256","name":"tokenId","type":"uint256"}],"name":"Transfer","type":"event"},{"inputs":[],"name":"DURATION","outputs":[{"internalType":"uint256","name":"","type":"uint256"}],"stateMutability":"view","type":"function"},{"inputs":[{"internalType":"address","name":"_admin","type":"address"}],"name":"addAdmin","outputs":[],"stateMutability":"nonpayable","type":"function"},{"inputs":[{"internalType":"uint256","name":"","type":"uint256"}],"name":"adminList","outputs":[{"internalType":"address","name":"","type":"address"}],"stateMutability":"view","type":"function"},{"inputs":[{"internalType":"address","name":"","type":"address"}],"name":"admins","outputs":[{"internalType":"bool","name":"","type":"bool"}],"stateMutability":"view","type":"function"},{"inputs":[{"internalType":"address","name":"to","type":"address"},{"internalType":"uint256","name":"tokenId","type":"uint256"}],"name":"approve","outputs":[],"stateMutability":"nonpayable","type":"function"},{"inputs":[{"internalType":"uint256","name":"policyId","type":"uint256"}],"name":"approveClaim","outputs":[],"stateMutability":"nonpayable","type":"function"},{"inputs":[{"internalType":"address","name":"owner","type":"address"}],"name":"balanceOf","outputs":[{"internalType":"uint256","name":"","type":"uint256"}],"stateMutability":"view","type":"function"},{"inputs":[{"internalType":"string","name":"name","type":"string"},{"internalType":"uint256","name":"amount","type":"uint256"},{"internalType":"uint256","name":"duration","type":"uint256"}],"name":"buyPolicy","outputs":[],"stateMutability":"nonpayable","type":"function"},{"inputs":[{"internalType":"uint256","name":"policyId","type":"uint256"}],"name":"checkExpiration","outputs":[{"internalType":"bool","name":"","type":"bool"}],"stateMutability":"view","type":"function"},{"inputs":[],"name":"getAllAdmins","outputs":[{"internalType":"address[]","name":"","type":"address[]"}],"stateMutability":"view","type":"function"},{"inputs":[{"internalType":"uint256","name":"tokenId","type":"uint256"}],"name":"getApproved","outputs":[{"internalType":"address","name":"","type":"address"}],"stateMutability":"view","type":"function"},{"inputs":[{"internalType":"address","name":"_admin","type":"address"}],"name":"isAdmin","outputs":[{"internalType":"bool","name":"","type":"bool"}],"stateMutability":"view","type":"function"},{"inputs":[{"internalType":"address","name":"owner","type":"address"},{"internalType":"address","name":"operator","type":"address"}],"name":"isApprovedForAll","outputs":[{"internalType":"bool","name":"","type":"bool"}],"stateMutability":"view","type":"function"},{"inputs":[],"name":"name","outputs":[{"internalType":"string","name":"","type":"string"}],"stateMutability":"view","type":"function"},{"inputs":[],"name":"owner","outputs":[{"internalType":"address","name":"","type":"address"}],"stateMutability":"view","type":"function"},{"inputs":[{"internalType":"uint256","name":"tokenId","type":"uint256"}],"name":"ownerOf","outputs":[{"internalType":"address","name":"","type":"address"}],"stateMutability":"view","type":"function"},{"inputs":[{"internalType":"uint256","name":"","type":"uint256"}],"name":"policies","outputs":[{"internalType":"uint256","name":"amount","type":"uint256"},{"internalType":"uint256","name":"startDate","type":"uint256"},{"internalType":"uint256","name":"duration","type":"uint256"},{"internalType":"bool","name":"isClaimed","type":"bool"},{"internalType":"bool","name":"isExpired","type":"bool"},{"internalType":"string","name":"name","type":"string"}],"stateMutability":"view","type":"function"},{"inputs":[],"name":"policyCounter","outputs":[{"internalType":"uint256","name":"","type":"uint256"}],"stateMutability":"view","type":"function"},{"inputs":[{"internalType":"address","name":"_admin","type":"address"}],"name":"removeAdmin","outputs":[],"stateMutability":"nonpayable","type":"function"},{"inputs":[],"name":"renounceOwnership","outputs":[],"stateMutability":"nonpayable","type":"function"},{"inputs":[{"internalType":"address","name":"from","type":"address"},{"internalType":"address","name":"to","type":"address"},{"internalType":"uint256","name":"tokenId","type":"uint256"}],"name":"safeTransferFrom","outputs":[],"stateMutability":"nonpayable","type":"function"},{"inputs":[{"internalType":"address","name":"from","type":"address"},{"internalType":"address","name":"to","type":"address"},{"internalType":"uint256","name":"tokenId","type":"uint256"},{"internalType":"bytes","name":"data","type":"bytes"}],"name":"safeTransferFrom","outputs":[],"stateMutability":"nonpayable","type":"function"},{"inputs":[{"internalType":"address","name":"operator","type":"address"},{"internalType":"bool","name":"approved","type":"bool"}],"name":"setApprovalForAll","outputs":[],"stateMutability":"nonpayable","type":"function"},{"inputs":[{"internalType":"address","name":"_USDCaddress","type":"address"}],"name":"setUSDC","outputs":[],"stateMutability":"nonpayable","type":"function"},{"inputs":[{"internalType":"uint256","name":"policyId","type":"uint256"}],"name":"submitClaim","outputs":[],"stateMutability":"nonpayable","type":"function"},{"inputs":[{"internalType":"bytes4","name":"interfaceId","type":"bytes4"}],"name":"supportsInterface","outputs":[{"internalType":"bool","name":"","type":"bool"}],"stateMutability":"view","type":"function"},{"inputs":[],"name":"symbol","outputs":[{"internalType":"string","name":"","type":"string"}],"stateMutability":"view","type":"function"},{"inputs":[{"internalType":"uint256","name":"tokenId","type":"uint256"}],"name":"tokenURI","outputs":[{"internalType":"string","name":"","type":"string"}],"stateMutability":"view","type":"function"},{"inputs":[{"internalType":"address","name":"from","type":"address"},{"internalType":"address","name":"to","type":"address"},{"internalType":"uint256","name":"tokenId","type":"uint256"}],"name":"transferFrom","outputs":[],"stateMutability":"nonpayable","type":"function"},{"inputs":[{"internalType":"address","name":"newOwner","type":"address"}],"name":"transferOwnership","outputs":[],"stateMutability":"nonpayable","type":"function"},{"inputs":[{"internalType":"address","name":"to","type":"address"},{"internalType":"uint256","name":"policyId","type":"uint256"}],"name":"transferPolicy","outputs":[],"stateMutability":"nonpayable","type":"function"},{"inputs":[],"name":"usdcToken","outputs":[{"internalType":"contract IERC20","name":"","type":"address"}],"stateMutability":"view","type":"function"},{"inputs":[{"internalType":"address","name":"","type":"address"},{"internalType":"uint256","name":"","type":"uint256"}],"name":"userPolicies","outputs":[{"internalType":"uint256","name":"","type":"uint256"}],"stateMutability":"view","type":"function"}],"evm":{"bytecode":{"linkReferences":{},"object":"608034620003a3576001600160401b03906040818101838111838210176200038d5781526012825260209171125b9cdd5c985b98d9541bdb1a58de53919560721b83820152815193828501858110828211176200038d5783526005855264125413919560da1b8486015281518181116200038d576000948554916001948584811c9416801562000382575b838510146200036e578190601f948581116200031b575b508390858311600114620002b7578992620002ab575b5050600019600383901b1c191690851b1786555b8651928311620002975783548481811c911680156200028c575b82821014620002785782811162000230575b5080918311600114620001c9575084958293949592620001bd575b5050600019600383901b1c191690821b1790555b3315620001a55760068054336001600160a01b0319808316821790935592519373036cbd53842c5426634e7929541ec2318f3dcf7e93916001600160a01b0316907f8be0079c531659141344cd1fd0a4f28419497f9722a3daafe3b4186f6b6457e09080a3600a600c55600d541617600d55611e919081620003a98239f35b51631e4fbdf760e01b81526004810191909152602490fd5b01519050388062000112565b90601f198316968487528287209287905b89821062000218575050838596979810620001fe575b505050811b01905562000126565b015160001960f88460031b161c19169055388080620001f0565b808785968294968601518155019501930190620001da565b8487528187208380860160051c8201928487106200026e575b0160051c019085905b82811062000262575050620000f7565b88815501859062000252565b9250819262000249565b634e487b7160e01b87526022600452602487fd5b90607f1690620000e5565b634e487b7160e01b86526041600452602486fd5b015190503880620000b7565b898052848a208894509190601f1984168b5b87828210620003045750508411620002ea575b505050811b018655620000cb565b015160001960f88460031b161c19169055388080620002dc565b8385015186558b97909501949384019301620002c9565b9091508880528389208580850160051c82019286861062000364575b918991869594930160051c01915b82811062000355575050620000a1565b8b815585945089910162000345565b9250819262000337565b634e487b7160e01b88526022600452602488fd5b93607f16936200008a565b634e487b7160e01b600052604160045260246000fd5b600080fdfe6080604081815260048036101561001557600080fd5b600092833560e01c90816301ffc9a7146116a95750806306fdde0314611616578063081812fc146115db578063095ea7b3146114ff5780630a6fcdad146114bc57806311117fc81461147c57806311eac855146114535780631785f53c146112df5780631be05289146112c057806323b872dd146112a857806324d7806c146111eb5780633d36adc51461125257806342842e0e14611229578063429b62e5146111eb57806346e3013514610e3b5780636352211e14610e0a5780636aa14a9614610cdb5780637048027514610bc557806370a0823114610b70578063715018a614610b13578063723931ca14610aea5780638da5cb5b14610ac157806395d89b41146109f4578063a22cb46514610949578063b3e089a214610904578063b88d4fde146108a0578063c87b56dd14610851578063d3e8948314610740578063d52c1bea14610721578063da45693314610334578063e9523c971461026c578063e985e9c51461021a5763f2fde38b1461018e57600080fd5b34610216576020366003190112610216576101a7611755565b906101b0611e0f565b6001600160a01b03918216928315610200575050600680546001600160a01b031981168417909155167f8be0079c531659141344cd1fd0a4f28419497f9722a3daafe3b4186f6b6457e08380a380f35b51631e4fbdf760e01b8152908101849052602490fd5b8280fd5b50503461026857806003193601126102685760ff8160209361023a611755565b610242611770565b6001600160a01b0391821683526005875283832091168252855220549151911615158152f35b5080fd5b8284346103315780600319360112610331578151600880548083529083526020939284830192909183907ff3f7a9fe364faab93b216da50a3214154f22a0a2b415b23a84c8169e8b636ee390845b81811061031457505050816102d0910382611836565b83519485948186019282875251809352850193925b8281106102f457505050500390f35b83516001600160a01b0316855286955093810193928101926001016102e5565b82546001600160a01b0316845292880192600192830192016102ba565b80fd5b50346102165760603660031901126102165780359167ffffffffffffffff9182841161071d573660238501121561071d57610379602494369086818501359101611874565b9380359384156106dc57908693929160018060a01b039687600d54168551906323b872dd60e01b8252338683015230858301528860448301528160648160209a8b945af180156106d2576106a5575b50600b549760001991828a1461069357600193848b01600b55875160c081018181108382111761068157906104728b8f8f908f8d968f5285528d838601904282528087019260443584526009606089019682885260808a019683885260a08b019d8e528352522095518655518b86015551600285015561045b6003850192511515839060ff801983541691151516179055565b51815461ff00191690151560081b61ff0016179055565b01915190815190811161066f576104938161048d85546118ab565b85611b24565b898d601f831160011461061257906104c09383610607575b50508160011b916000199060031b1c19161790565b90555b33156105f1578890818b5260028852868b20541680151592836105bf575b5033808c5260038952878c20805486019055828c5260028952878c2080546001600160a01b0319168217905590600080516020611e3c8339815191528c80a46105aa57338852600a855283882091825493600160401b8510156105995750506105768361058f9389937fe3a4e855ca574024873a64ada77dfdb7f1342b982fbfe29edf24be638f20d3989897960181556117b7565b90919082549060031b91821b91600019901b1916179055565b519283523392a380f35b634e487b7160e01b8a526041905288fd5b5091516339e3563760e11b8152908101869052fd5b600083815260046020526040902080546001600160a01b0319169055818c5260038952878c20908154019055386104e1565b8551633250574960e11b81528086018b90528490fd5b0151905038806104ab565b908793601f1984168684528d80852094905b8282106106585750508411610641575b505050811b0190556104c3565b01518660f88460031b161c19169055388080610634565b8385015186558b979095019493840193018e610624565b634e487b7160e01b8d5260418852868dfd5b634e487b7160e01b8e5260418952878efd5b634e487b7160e01b8b5260118652848bfd5b6106c490873d89116106cb575b6106bc8183611836565b810190611af5565b50386103c8565b503d6106b2565b86513d8c823e3d90fd5b5060209081606494519362461bcd60e51b85528401528201527f416d6f756e74206d7573742062652067726561746572207468616e207a65726f6044820152fd5b8480fd5b505034610268578160031936011261026857602090600b549051908152f35b508290346102685760209283600319360112610216578135835260098452808320805492600192600183015460028401549260038501549401888351968983549361078a856118ab565b808b52946001811690811561082d57506001146107f2575b838b6107ee8c8f8d8d8d8d6107bb8660ff960387611836565b815198899889528801528601528181161515606086015260081c161515608084015260c060a084015260c0830190611715565b0390f35b908094939b50528983205b82841061081a575050508501909601958088866107ee60ff6107a2565b80548985018c0152928a019281016107fd565b60ff1916858c01525050505090151560051b86010196508088866107ee60ff6107a2565b50919034610268576020366003190112610268576108726107ee9335611dd4565b5081815161087f81611804565b5280519161088c83611804565b825251918291602083526020830190611715565b838234610268576080366003190112610268576108bb611755565b6108c3611770565b9060643567ffffffffffffffff811161071d573660238201121561071d57610901938160246108f793369301359101611874565b9160443591611c85565b80f35b83346103315760203660031901126103315761091e611755565b610926611e0f565b600d80546001600160a01b0319166001600160a01b039290921691909117905580f35b509034610216578060031936011261021657610963611755565b90602435801515928382036109f0576001600160a01b03169384156109d957506109ac9033865260056020528286208587526020528286209060ff801983541691151516179055565b519081527f17307eab39ab6107e8899845ad3d59bd9653f200f220920489ca2b5937696c3160203392a380f35b8251630b61174360e31b8152908101859052602490fd5b8580fd5b828434610331578060031936011261033157815191828260019360015494610a1b866118ab565b9182855260209687600182169182600014610a9a575050600114610a5c575b5050506107ee9291610a4d910385611836565b51928284938452830190611715565b9190869350600183528383205b828410610a825750505082010181610a4d6107ee610a3a565b8054848a018601528895508794909301928101610a69565b60ff19168782015293151560051b86019093019350849250610a4d91506107ee9050610a3a565b50503461026857816003193601126102685760065490516001600160a01b039091168152602090f35b5091346103315760203660031901126103315750610b0a60209235611c49565b90519015158152f35b8334610331578060031936011261033157610b2c611e0f565b600680546001600160a01b0319811690915581906001600160a01b03167f8be0079c531659141344cd1fd0a4f28419497f9722a3daafe3b4186f6b6457e08280a380f35b509134610331576020366003190112610331576001600160a01b03610b93611755565b16928315610bb05750806020938392526003845220549051908152f35b91516322718ad960e21b815291820152602490fd5b5091903461026857602036600319011261026857610be1611755565b610be9611e0f565b6001600160a01b03811680845260076020528284205490929060ff16610c995782845260076020528320805460ff19166001179055600854600160401b811015610c865790610c41826001610c5f9401600855611786565b90919060018060a01b038084549260031b9316831b921b1916179055565b7f44d6d25963f097ad14f29f06854a01f575648a1ef82f30e562ccd3889717e3398280a280f35b634e487b7160e01b845260418552602484fd5b5162461bcd60e51b8152602081860152601b60248201527f4164647265737320697320616c726561647920616e2061646d696e00000000006044820152606490fd5b50903461021657602080600319360112610e06578235926001610cfd85611c49565b151503610dcb57610d20610d1085611dd4565b6001600160a01b031633146118e5565b8385526009825260ff6003848720015416610d905750906009600392848652818152610d5760ff85858920015460081c1615611ab8565b84865252832001805460ff191660011790557f9936a1a62c48173d9bbe9f13a0665f489585f9b2bb59a6747ce90c5d48272d358280a280f35b915162461bcd60e51b815291820152601760248201527610db185a5b48185b1c9958591e481cdd589b5a5d1d1959604a1b6044820152606490fd5b915162461bcd60e51b815291820152601760248201527645787069726174696f6e206d757374206265207472756560481b6044820152606490fd5b8380fd5b5091346103315760203660031901126103315750610e2a60209235611dd4565b90516001600160a01b039091168152f35b5090346102165760209182600319360112610e0657803592610e5b611e0f565b83855260098152600360ff81858820015416156111b45784865260098252610e8e60ff82868920015460081c1615611ab8565b610e9785611dd4565b600d548688526009845285882054865163a9059cbb60e01b81526001600160a01b03848116888301908152602081019390935293979395929091839183918290036040019082908d908a165af180156111aa5761118d575b50868852600281528382892054168789821592831561115b575b8282526002855285822080546001600160a01b0319169055600080516020611e3c8339815191528280a461114457600b5460001994908581019081116110c457895260098252828920888a52838a20878282036110d7575b505050600b548581019081116110c457895260098252828920968988558987600199826001820155826002820155828882015501610f9f81546118ab565b80611088575b505050600b548015611075578601600b55168852600a90528620805490875b828110610ff5575b88887fd2d0ed0cccc8615643ade1eff3929a29ed8df75ebca85a3996e311c9b69e22898280a280f35b8761100082846117b7565b905490861b1c14611012578601610fc4565b939550919385820193918411611062575090611046839261057661103961104b96856117b7565b905490881b1c91846117b7565b6117b7565b81939154921b1b1916905538808080808080610fcc565b634e487b7160e01b885260119052602487fd5b634e487b7160e01b8b526011885260248bfd5b82601f82116001146110a0575050555b893880610fa5565b90918082526110bd601f888420940160051c840160018501611b0d565b5555611098565b634e487b7160e01b8a526011875260248afd5b808361113c94548455600181015460018501556002810154600285015561113489850160ff8b840161111882825416849060ff801983541691151516179055565b5460081c1661ff00825491151560081b169061ff001916179055565b019101611b6b565b388087610f61565b8151637e27328960e01b8152808601889052602490fd5b600083815260046020526040902080546001600160a01b03191690558082528685528582208054600019019055610f09565b6111a390823d84116106cb576106bc8183611836565b5038610eef565b83513d8b823e3d90fd5b50606492519162461bcd60e51b8352820152601360248201527210db185a5b481b9bdd081cdd589b5a5d1d1959606a1b6044820152fd5b5050346102685760203660031901126102685760209160ff9082906001600160a01b03611216611755565b1681526007855220541690519015158152f35b505034610268576109019061123d366117cf565b9192519261124a84611804565b858452611c85565b50503461026857806003193601126102685761126c611755565b6001600160a01b03168252600a60205280822080546024359390841015610331575060209261129a916117b7565b91905490519160031b1c8152f35b8334610331576109016112ba366117cf565b91611928565b505034610268578160031936011261026857602090600c549051908152f35b509034610216576020366003190112610216576112fa611755565b611302611e0f565b6001600160a01b0390811680855260076020528285205490929060ff16156114175782855260076020528420805460ff19169055835b600880548083101561140c579083918561135185611786565b949054600395861b1c161461136b57505050600101611338565b919495909392600019928381019081116113f95790610c418561139061139d94611786565b9054908a1b1c1691611786565b83549081156113e6575001926113b284611786565b81939154921b1b19169055555b7fa3b62bc36326052d97ea62d63c3d60308ed4c3ea8ac079dd8499f1e9c4f80c0f8280a280f35b634e487b7160e01b885260319052602487fd5b634e487b7160e01b895260118352602489fd5b5050505090506113bf565b5162461bcd60e51b8152602081850152601760248201527620b2323932b9b99034b9903737ba1030b71030b236b4b760491b6044820152606490fd5b505034610268578160031936011261026857600d5490516001600160a01b039091168152602090f35b503461021657602036600319011261021657359160085483101561033157506114a6602092611786565b905491519160018060a01b039160031b1c168152f35b505034610268578060031936011261026857610901906114da611755565b90602435906114eb610d1083611dd4565b51916114f683611804565b84835233611c85565b509034610216578060031936011261021657611519611755565b9160243561152681611dd4565b331515806115c8575b8061159f575b611589576001600160a01b039485169482918691167f8c5be1e5ebec7d5bd14f71427d1e84f3dd0314c0f7b2291e5b200ac8c7c3b9258880a48452602052822080546001600160a01b031916909117905580f35b835163a9fbf51f60e01b81523381850152602490fd5b506001600160a01b03811686526005602090815284872033885290528386205460ff1615611535565b506001600160a01b03811633141561152f565b5034610216576020366003190112610216579182602093356115fc81611dd4565b50825283528190205490516001600160a01b039091168152f35b82843461033157806003193601126103315781519182828354611638816118ab565b9081845260209560019187600182169182600014610a9a57505060011461166c575050506107ee9291610a4d910385611836565b91908693508280528383205b8284106116915750505082010181610a4d6107ee610a3a565b8054848a018601528895508794909301928101611678565b92505034610216576020366003190112610216573563ffffffff60e01b811680910361021657602092506380ac58cd60e01b8114908115611704575b81156116f3575b5015158152f35b6301ffc9a760e01b149050386116ec565b635b5e139f60e01b811491506116e5565b919082519283825260005b848110611741575050826000602080949584010152601f8019910116010190565b602081830181015184830182015201611720565b600435906001600160a01b038216820361176b57565b600080fd5b602435906001600160a01b038216820361176b57565b6008548110156117a157600860005260206000200190600090565b634e487b7160e01b600052603260045260246000fd5b80548210156117a15760005260206000200190600090565b606090600319011261176b576001600160a01b0390600435828116810361176b5791602435908116810361176b579060443590565b6020810190811067ffffffffffffffff82111761182057604052565b634e487b7160e01b600052604160045260246000fd5b90601f8019910116810190811067ffffffffffffffff82111761182057604052565b67ffffffffffffffff811161182057601f01601f191660200190565b92919261188082611858565b9161188e6040519384611836565b82948184528183011161176b578281602093846000960137010152565b90600182811c921680156118db575b60208310146118c557565b634e487b7160e01b600052602260045260246000fd5b91607f16916118ba565b156118ec57565b60405162461bcd60e51b81526020600482015260146024820152732737ba103a3432903837b634b1bc9037bbb732b960611b6044820152606490fd5b6001600160a01b039182169290918315611a9f57600092828452826020956002875260409684888820541696879133151580611a06575b50906002600080516020611e3c83398151915292846119d3575b858352600381528b8320805460010190558683525289812080546001600160a01b0319168517905580a416928383036119b25750505050565b6064945051926364283d7b60e01b8452600484015260248301526044820152fd5b600087815260046020526040902080546001600160a01b0319169055848352600381528b83208054600019019055611979565b91939450915080611a5e575b15611a225785929187913861195f565b878688611a3f576024915190637e27328960e01b82526004820152fd5b905163177e802f60e01b81523360048201526024810191909152604490fd5b503387148015611a83575b80611a125750858252600481523385898420541614611a12565b5086825260058152878220338352815260ff8883205416611a69565b604051633250574960e11b815260006004820152602490fd5b15611abf57565b60405162461bcd60e51b815260206004820152600e60248201526d141bdb1a58de48195e1c1a5c995960921b6044820152606490fd5b9081602091031261176b5751801515810361176b5790565b818110611b18575050565b60008155600101611b0d565b9190601f8111611b3357505050565b611b5f926000526020600020906020601f840160051c83019310611b61575b601f0160051c0190611b0d565b565b9091508190611b52565b90808214611c4557611b7d81546118ab565b9067ffffffffffffffff821161182057611b9b8261048d85546118ab565b600090601f8311600114611bda57611bcb929160009183611bcf5750508160011b916000199060031b1c19161790565b9055565b0154905038806104ab565b815260208082208483528183209291601f1985169083905b828210611c2c575050908460019594939210611c13575b505050811b019055565b015460001960f88460031b161c19169055388080611c09565b8495819295850154815560018091019601940190611bf2565b5050565b60005260096020526040600020600260018201549101548101809111611c6f5742101590565b634e487b7160e01b600052601160045260246000fd5b611c90838383611928565b813b611c9d575b50505050565b604051630a85bd0160e11b8082523360048301526001600160a01b03928316602483015260448201949094526080606482015260209592909116939092908390611ceb906084830190611715565b039285816000958187895af1849181611d94575b50611d5f575050503d600014611d57573d611d1981611858565b90611d276040519283611836565b81528091843d92013e5b80519283611d5257604051633250574960e11b815260048101849052602490fd5b019050fd5b506060611d31565b919450915063ffffffff60e01b1603611d7c575038808080611c97565b60249060405190633250574960e11b82526004820152fd5b9091508681813d8311611dcd575b611dac8183611836565b8101031261071d57516001600160e01b03198116810361071d579038611cff565b503d611da2565b6000818152600260205260409020546001600160a01b0316908115611df7575090565b60249060405190637e27328960e01b82526004820152fd5b6006546001600160a01b03163303611e2357565b60405163118cdaa760e01b8152336004820152602490fdfeddf252ad1be2c89b69c2b068fc378daa952ba7f163c4a11628f55a4df523b3efa2646970667358221220d8c6bb1de8c32f27c31d59d3db01aacdcea00e8bf23a580f6f0f662f6e90810464736f6c63430008180033","opcodes":"PUSH1 0x80 CALLVALUE PUSH3 0x3A3 JUMPI PUSH1 0x1 PUSH1 0x1 PUSH1 0x40 SHL SUB SWAP1 PUSH1 0x40 DUP2 DUP2 ADD DUP4 DUP2 GT DUP4 DUP3 LT OR PUSH3 0x38D JUMPI DUP2 MSTORE PUSH1 0x12 DUP3 MSTORE PUSH1 0x20 SWAP2 PUSH18 0x125B9CDD5C985B98D9541BDB1A58DE539195 PUSH1 0x72 SHL DUP4 DUP3 ADD MSTORE DUP2 MLOAD SWAP4 DUP3 DUP6 ADD DUP6 DUP2 LT DUP3 DUP3 GT OR PUSH3 0x38D JUMPI DUP4 MSTORE PUSH1 0x5 DUP6 MSTORE PUSH5 0x1254139195 PUSH1 0xDA SHL DUP5 DUP7 ADD MSTORE DUP2 MLOAD DUP2 DUP2 GT PUSH3 0x38D JUMPI PUSH1 0x0 SWAP5 DUP6 SLOAD SWAP2 PUSH1 0x1 SWAP5 DUP6 DUP5 DUP2 SHR SWAP5 AND DUP1 ISZERO PUSH3 0x382 JUMPI JUMPDEST DUP4 DUP6 LT EQ PUSH3 0x36E JUMPI DUP2 SWAP1 PUSH1 0x1F SWAP5 DUP6 DUP2 GT PUSH3 0x31B JUMPI JUMPDEST POP DUP4 SWAP1 DUP6 DUP4 GT PUSH1 0x1 EQ PUSH3 0x2B7 JUMPI DUP10 SWAP3 PUSH3 0x2AB JUMPI JUMPDEST POP POP PUSH1 0x0 NOT PUSH1 0x3 DUP4 SWAP1 SHL SHR NOT AND SWAP1 DUP6 SHL OR DUP7 SSTORE JUMPDEST DUP7 MLOAD SWAP3 DUP4 GT PUSH3 0x297 JUMPI DUP4 SLOAD DUP5 DUP2 DUP2 SHR SWAP2 AND DUP1 ISZERO PUSH3 0x28C JUMPI JUMPDEST DUP3 DUP3 LT EQ PUSH3 0x278 JUMPI DUP3 DUP2 GT PUSH3 0x230 JUMPI JUMPDEST POP DUP1 SWAP2 DUP4 GT PUSH1 0x1 EQ PUSH3 0x1C9 JUMPI POP DUP5 SWAP6 DUP3 SWAP4 SWAP5 SWAP6 SWAP3 PUSH3 0x1BD JUMPI JUMPDEST POP POP PUSH1 0x0 NOT PUSH1 0x3 DUP4 SWAP1 SHL SHR NOT AND SWAP1 DUP3 SHL OR SWAP1 SSTORE JUMPDEST CALLER ISZERO PUSH3 0x1A5 JUMPI PUSH1 0x6 DUP1 SLOAD CALLER PUSH1 0x1 PUSH1 0x1 PUSH1 0xA0 SHL SUB NOT DUP1 DUP4 AND DUP3 OR SWAP1 SWAP4 SSTORE SWAP3 MLOAD SWAP4 PUSH20 0x36CBD53842C5426634E7929541EC2318F3DCF7E SWAP4 SWAP2 PUSH1 0x1 PUSH1 0x1 PUSH1 0xA0 SHL SUB AND SWAP1 PUSH32 0x8BE0079C531659141344CD1FD0A4F28419497F9722A3DAAFE3B4186F6B6457E0 SWAP1 DUP1 LOG3 PUSH1 0xA PUSH1 0xC SSTORE PUSH1 0xD SLOAD AND OR PUSH1 0xD SSTORE PUSH2 0x1E91 SWAP1 DUP2 PUSH3 0x3A9 DUP3 CODECOPY RETURN JUMPDEST MLOAD PUSH4 0x1E4FBDF7 PUSH1 0xE0 SHL DUP2 MSTORE PUSH1 0x4 DUP2 ADD SWAP2 SWAP1 SWAP2 MSTORE PUSH1 0x24 SWAP1 REVERT JUMPDEST ADD MLOAD SWAP1 POP CODESIZE DUP1 PUSH3 0x112 JUMP JUMPDEST SWAP1 PUSH1 0x1F NOT DUP4 AND SWAP7 DUP5 DUP8 MSTORE DUP3 DUP8 KECCAK256 SWAP3 DUP8 SWAP1 JUMPDEST DUP10 DUP3 LT PUSH3 0x218 JUMPI POP POP DUP4 DUP6 SWAP7 SWAP8 SWAP9 LT PUSH3 0x1FE JUMPI JUMPDEST POP POP POP DUP2 SHL ADD SWAP1 SSTORE PUSH3 0x126 JUMP JUMPDEST ADD MLOAD PUSH1 0x0 NOT PUSH1 0xF8 DUP5 PUSH1 0x3 SHL AND SHR NOT AND SWAP1 SSTORE CODESIZE DUP1 DUP1 PUSH3 0x1F0 JUMP JUMPDEST DUP1 DUP8 DUP6 SWAP7 DUP3 SWAP5 SWAP7 DUP7 ADD MLOAD DUP2 SSTORE ADD SWAP6 ADD SWAP4 ADD SWAP1 PUSH3 0x1DA JUMP JUMPDEST DUP5 DUP8 MSTORE DUP2 DUP8 KECCAK256 DUP4 DUP1 DUP7 ADD PUSH1 0x5 SHR DUP3 ADD SWAP3 DUP5 DUP8 LT PUSH3 0x26E JUMPI JUMPDEST ADD PUSH1 0x5 SHR ADD SWAP1 DUP6 SWAP1 JUMPDEST DUP3 DUP2 LT PUSH3 0x262 JUMPI POP POP PUSH3 0xF7 JUMP JUMPDEST DUP9 DUP2 SSTORE ADD DUP6 SWAP1 PUSH3 0x252 JUMP JUMPDEST SWAP3 POP DUP2 SWAP3 PUSH3 0x249 JUMP JUMPDEST PUSH4 0x4E487B71 PUSH1 0xE0 SHL DUP8 MSTORE PUSH1 0x22 PUSH1 0x4 MSTORE PUSH1 0x24 DUP8 REVERT JUMPDEST SWAP1 PUSH1 0x7F AND SWAP1 PUSH3 0xE5 JUMP JUMPDEST PUSH4 0x4E487B71 PUSH1 0xE0 SHL DUP7 MSTORE PUSH1 0x41 PUSH1 0x4 MSTORE PUSH1 0x24 DUP7 REVERT JUMPDEST ADD MLOAD SWAP1 POP CODESIZE DUP1 PUSH3 0xB7 JUMP JUMPDEST DUP10 DUP1 MSTORE DUP5 DUP11 KECCAK256 DUP9 SWAP5 POP SWAP2 SWAP1 PUSH1 0x1F NOT DUP5 AND DUP12 JUMPDEST DUP8 DUP3 DUP3 LT PUSH3 0x304 JUMPI POP POP DUP5 GT PUSH3 0x2EA JUMPI JUMPDEST POP POP POP DUP2 SHL ADD DUP7 SSTORE PUSH3 0xCB JUMP JUMPDEST ADD MLOAD PUSH1 0x0 NOT PUSH1 0xF8 DUP5 PUSH1 0x3 SHL AND SHR NOT AND SWAP1 SSTORE CODESIZE DUP1 DUP1 PUSH3 0x2DC JUMP JUMPDEST DUP4 DUP6 ADD MLOAD DUP7 SSTORE DUP12 SWAP8 SWAP1 SWAP6 ADD SWAP5 SWAP4 DUP5 ADD SWAP4 ADD PUSH3 0x2C9 JUMP JUMPDEST SWAP1 SWAP2 POP DUP9 DUP1 MSTORE DUP4 DUP10 KECCAK256 DUP6 DUP1 DUP6 ADD PUSH1 0x5 SHR DUP3 ADD SWAP3 DUP7 DUP7 LT PUSH3 0x364 JUMPI JUMPDEST SWAP2 DUP10 SWAP2 DUP7 SWAP6 SWAP5 SWAP4 ADD PUSH1 0x5 SHR ADD SWAP2 JUMPDEST DUP3 DUP2 LT PUSH3 0x355 JUMPI POP POP PUSH3 0xA1 JUMP JUMPDEST DUP12 DUP2 SSTORE DUP6 SWAP5 POP DUP10 SWAP2 ADD PUSH3 0x345 JUMP JUMPDEST SWAP3 POP DUP2 SWAP3 PUSH3 0x337 JUMP JUMPDEST PUSH4 0x4E487B71 PUSH1 0xE0 SHL DUP9 MSTORE PUSH1 0x22 PUSH1 0x4 MSTORE PUSH1 0x24 DUP9 REVERT JUMPDEST SWAP4 PUSH1 0x7F AND SWAP4 PUSH3 0x8A JUMP JUMPDEST PUSH4 0x4E487B71 PUSH1 0xE0 SHL PUSH1 0x0 MSTORE PUSH1 0x41 PUSH1 0x4 MSTORE PUSH1 0x24 PUSH1 0x0 REVERT JUMPDEST PUSH1 0x0 DUP1 REVERT INVALID PUSH1 0x80 PUSH1 0x40 DUP2 DUP2 MSTORE PUSH1 0x4 DUP1 CALLDATASIZE LT ISZERO PUSH2 0x15 JUMPI PUSH1 0x0 DUP1 REVERT JUMPDEST PUSH1 0x0 SWAP3 DUP4 CALLDATALOAD PUSH1 0xE0 SHR SWAP1 DUP2 PUSH4 0x1FFC9A7 EQ PUSH2 0x16A9 JUMPI POP DUP1 PUSH4 0x6FDDE03 EQ PUSH2 0x1616 JUMPI DUP1 PUSH4 0x81812FC EQ PUSH2 0x15DB JUMPI DUP1 PUSH4 0x95EA7B3 EQ PUSH2 0x14FF JUMPI DUP1 PUSH4 0xA6FCDAD EQ PUSH2 0x14BC JUMPI DUP1 PUSH4 0x11117FC8 EQ PUSH2 0x147C JUMPI DUP1 PUSH4 0x11EAC855 EQ PUSH2 0x1453 JUMPI DUP1 PUSH4 0x1785F53C EQ PUSH2 0x12DF JUMPI DUP1 PUSH4 0x1BE05289 EQ PUSH2 0x12C0 JUMPI DUP1 PUSH4 0x23B872DD EQ PUSH2 0x12A8 JUMPI DUP1 PUSH4 0x24D7806C EQ PUSH2 0x11EB JUMPI DUP1 PUSH4 0x3D36ADC5 EQ PUSH2 0x1252 JUMPI DUP1 PUSH4 0x42842E0E EQ PUSH2 0x1229 JUMPI DUP1 PUSH4 0x429B62E5 EQ PUSH2 0x11EB JUMPI DUP1 PUSH4 0x46E30135 EQ PUSH2 0xE3B JUMPI DUP1 PUSH4 0x6352211E EQ PUSH2 0xE0A JUMPI DUP1 PUSH4 0x6AA14A96 EQ PUSH2 0xCDB JUMPI DUP1 PUSH4 0x70480275 EQ PUSH2 0xBC5 JUMPI DUP1 PUSH4 0x70A08231 EQ PUSH2 0xB70 JUMPI DUP1 PUSH4 0x715018A6 EQ PUSH2 0xB13 JUMPI DUP1 PUSH4 0x723931CA EQ PUSH2 0xAEA JUMPI DUP1 PUSH4 0x8DA5CB5B EQ PUSH2 0xAC1 JUMPI DUP1 PUSH4 0x95D89B41 EQ PUSH2 0x9F4 JUMPI DUP1 PUSH4 0xA22CB465 EQ PUSH2 0x949 JUMPI DUP1 PUSH4 0xB3E089A2 EQ PUSH2 0x904 JUMPI DUP1 PUSH4 0xB88D4FDE EQ PUSH2 0x8A0 JUMPI DUP1 PUSH4 0xC87B56DD EQ PUSH2 0x851 JUMPI DUP1 PUSH4 0xD3E89483 EQ PUSH2 0x740 JUMPI DUP1 PUSH4 0xD52C1BEA EQ PUSH2 0x721 JUMPI DUP1 PUSH4 0xDA456933 EQ PUSH2 0x334 JUMPI DUP1 PUSH4 0xE9523C97 EQ PUSH2 0x26C JUMPI DUP1 PUSH4 0xE985E9C5 EQ PUSH2 0x21A JUMPI PUSH4 0xF2FDE38B EQ PUSH2 0x18E JUMPI PUSH1 0x0 DUP1 REVERT JUMPDEST CALLVALUE PUSH2 0x216 JUMPI PUSH1 0x20 CALLDATASIZE PUSH1 0x3 NOT ADD SLT PUSH2 0x216 JUMPI PUSH2 0x1A7 PUSH2 0x1755 JUMP JUMPDEST SWAP1 PUSH2 0x1B0 PUSH2 0x1E0F JUMP JUMPDEST PUSH1 0x1 PUSH1 0x1 PUSH1 0xA0 SHL SUB SWAP2 DUP3 AND SWAP3 DUP4 ISZERO PUSH2 0x200 JUMPI POP POP PUSH1 0x6 DUP1 SLOAD PUSH1 0x1 PUSH1 0x1 PUSH1 0xA0 SHL SUB NOT DUP2 AND DUP5 OR SWAP1 SWAP2 SSTORE AND PUSH32 0x8BE0079C531659141344CD1FD0A4F28419497F9722A3DAAFE3B4186F6B6457E0 DUP4 DUP1 LOG3 DUP1 RETURN JUMPDEST MLOAD PUSH4 0x1E4FBDF7 PUSH1 0xE0 SHL DUP2 MSTORE SWAP1 DUP2 ADD DUP5 SWAP1 MSTORE PUSH1 0x24 SWAP1 REVERT JUMPDEST DUP3 DUP1 REVERT JUMPDEST POP POP CALLVALUE PUSH2 0x268 JUMPI DUP1 PUSH1 0x3 NOT CALLDATASIZE ADD SLT PUSH2 0x268 JUMPI PUSH1 0xFF DUP2 PUSH1 0x20 SWAP4 PUSH2 0x23A PUSH2 0x1755 JUMP JUMPDEST PUSH2 0x242 PUSH2 0x1770 JUMP JUMPDEST PUSH1 0x1 PUSH1 0x1 PUSH1 0xA0 SHL SUB SWAP2 DUP3 AND DUP4 MSTORE PUSH1 0x5 DUP8 MSTORE DUP4 DUP4 KECCAK256 SWAP2 AND DUP3 MSTORE DUP6 MSTORE KECCAK256 SLOAD SWAP2 MLOAD SWAP2 AND ISZERO ISZERO DUP2 MSTORE RETURN JUMPDEST POP DUP1 REVERT JUMPDEST DUP3 DUP5 CALLVALUE PUSH2 0x331 JUMPI DUP1 PUSH1 0x3 NOT CALLDATASIZE ADD SLT PUSH2 0x331 JUMPI DUP2 MLOAD PUSH1 0x8 DUP1 SLOAD DUP1 DUP4 MSTORE SWAP1 DUP4 MSTORE PUSH1 0x20 SWAP4 SWAP3 DUP5 DUP4 ADD SWAP3 SWAP1 SWAP2 DUP4 SWAP1 PUSH32 0xF3F7A9FE364FAAB93B216DA50A3214154F22A0A2B415B23A84C8169E8B636EE3 SWAP1 DUP5 JUMPDEST DUP2 DUP2 LT PUSH2 0x314 JUMPI POP POP POP DUP2 PUSH2 0x2D0 SWAP2 SUB DUP3 PUSH2 0x1836 JUMP JUMPDEST DUP4 MLOAD SWAP5 DUP6 SWAP5 DUP2 DUP7 ADD SWAP3 DUP3 DUP8 MSTORE MLOAD DUP1 SWAP4 MSTORE DUP6 ADD SWAP4 SWAP3 JUMPDEST DUP3 DUP2 LT PUSH2 0x2F4 JUMPI POP POP POP POP SUB SWAP1 RETURN JUMPDEST DUP4 MLOAD PUSH1 0x1 PUSH1 0x1 PUSH1 0xA0 SHL SUB AND DUP6 MSTORE DUP7 SWAP6 POP SWAP4 DUP2 ADD SWAP4 SWAP3 DUP2 ADD SWAP3 PUSH1 0x1 ADD PUSH2 0x2E5 JUMP JUMPDEST DUP3 SLOAD PUSH1 0x1 PUSH1 0x1 PUSH1 0xA0 SHL SUB AND DUP5 MSTORE SWAP3 DUP9 ADD SWAP3 PUSH1 0x1 SWAP3 DUP4 ADD SWAP3 ADD PUSH2 0x2BA JUMP JUMPDEST DUP1 REVERT JUMPDEST POP CALLVALUE PUSH2 0x216 JUMPI PUSH1 0x60 CALLDATASIZE PUSH1 0x3 NOT ADD SLT PUSH2 0x216 JUMPI DUP1 CALLDATALOAD SWAP2 PUSH8 0xFFFFFFFFFFFFFFFF SWAP2 DUP3 DUP5 GT PUSH2 0x71D JUMPI CALLDATASIZE PUSH1 0x23 DUP6 ADD SLT ISZERO PUSH2 0x71D JUMPI PUSH2 0x379 PUSH1 0x24 SWAP5 CALLDATASIZE SWAP1 DUP7 DUP2 DUP6 ADD CALLDATALOAD SWAP2 ADD PUSH2 0x1874 JUMP JUMPDEST SWAP4 DUP1 CALLDATALOAD SWAP4 DUP5 ISZERO PUSH2 0x6DC JUMPI SWAP1 DUP7 SWAP4 SWAP3 SWAP2 PUSH1 0x1 DUP1 PUSH1 0xA0 SHL SUB SWAP7 DUP8 PUSH1 0xD SLOAD AND DUP6 MLOAD SWAP1 PUSH4 0x23B872DD PUSH1 0xE0 SHL DUP3 MSTORE CALLER DUP7 DUP4 ADD MSTORE ADDRESS DUP6 DUP4 ADD MSTORE DUP9 PUSH1 0x44 DUP4 ADD MSTORE DUP2 PUSH1 0x64 DUP2 PUSH1 0x20 SWAP11 DUP12 SWAP5 GAS CALL DUP1 ISZERO PUSH2 0x6D2 JUMPI PUSH2 0x6A5 JUMPI JUMPDEST POP PUSH1 0xB SLOAD SWAP8 PUSH1 0x0 NOT SWAP2 DUP3 DUP11 EQ PUSH2 0x693 JUMPI PUSH1 0x1 SWAP4 DUP5 DUP12 ADD PUSH1 0xB SSTORE DUP8 MLOAD PUSH1 0xC0 DUP2 ADD DUP2 DUP2 LT DUP4 DUP3 GT OR PUSH2 0x681 JUMPI SWAP1 PUSH2 0x472 DUP12 DUP16 DUP16 SWAP1 DUP16 DUP14 SWAP7 DUP16 MSTORE DUP6 MSTORE DUP14 DUP4 DUP7 ADD SWAP1 TIMESTAMP DUP3 MSTORE DUP1 DUP8 ADD SWAP3 PUSH1 0x44 CALLDATALOAD DUP5 MSTORE PUSH1 0x9 PUSH1 0x60 DUP10 ADD SWAP7 DUP3 DUP9 MSTORE PUSH1 0x80 DUP11 ADD SWAP7 DUP4 DUP9 MSTORE PUSH1 0xA0 DUP12 ADD SWAP14 DUP15 MSTORE DUP4 MSTORE MSTORE KECCAK256 SWAP6 MLOAD DUP7 SSTORE MLOAD DUP12 DUP7 ADD SSTORE MLOAD PUSH1 0x2 DUP6 ADD SSTORE PUSH2 0x45B PUSH1 0x3 DUP6 ADD SWAP3 MLOAD ISZERO ISZERO DUP4 SWAP1 PUSH1 0xFF DUP1 NOT DUP4 SLOAD AND SWAP2 ISZERO ISZERO AND OR SWAP1 SSTORE JUMP JUMPDEST MLOAD DUP2 SLOAD PUSH2 0xFF00 NOT AND SWAP1 ISZERO ISZERO PUSH1 0x8 SHL PUSH2 0xFF00 AND OR SWAP1 SSTORE JUMP JUMPDEST ADD SWAP2 MLOAD SWAP1 DUP2 MLOAD SWAP1 DUP2 GT PUSH2 0x66F JUMPI PUSH2 0x493 DUP2 PUSH2 0x48D DUP6 SLOAD PUSH2 0x18AB JUMP JUMPDEST DUP6 PUSH2 0x1B24 JUMP JUMPDEST DUP10 DUP14 PUSH1 0x1F DUP4 GT PUSH1 0x1 EQ PUSH2 0x612 JUMPI SWAP1 PUSH2 0x4C0 SWAP4 DUP4 PUSH2 0x607 JUMPI JUMPDEST POP POP DUP2 PUSH1 0x1 SHL SWAP2 PUSH1 0x0 NOT SWAP1 PUSH1 0x3 SHL SHR NOT AND OR SWAP1 JUMP JUMPDEST SWAP1 SSTORE JUMPDEST CALLER ISZERO PUSH2 0x5F1 JUMPI DUP9 SWAP1 DUP2 DUP12 MSTORE PUSH1 0x2 DUP9 MSTORE DUP7 DUP12 KECCAK256 SLOAD AND DUP1 ISZERO ISZERO SWAP3 DUP4 PUSH2 0x5BF JUMPI JUMPDEST POP CALLER DUP1 DUP13 MSTORE PUSH1 0x3 DUP10 MSTORE DUP8 DUP13 KECCAK256 DUP1 SLOAD DUP7 ADD SWAP1 SSTORE DUP3 DUP13 MSTORE PUSH1 0x2 DUP10 MSTORE DUP8 DUP13 KECCAK256 DUP1 SLOAD PUSH1 0x1 PUSH1 0x1 PUSH1 0xA0 SHL SUB NOT AND DUP3 OR SWAP1 SSTORE SWAP1 PUSH1 0x0 DUP1 MLOAD PUSH1 0x20 PUSH2 0x1E3C DUP4 CODECOPY DUP2 MLOAD SWAP2 MSTORE DUP13 DUP1 LOG4 PUSH2 0x5AA JUMPI CALLER DUP9 MSTORE PUSH1 0xA DUP6 MSTORE DUP4 DUP9 KECCAK256 SWAP2 DUP3 SLOAD SWAP4 PUSH1 0x1 PUSH1 0x40 SHL DUP6 LT ISZERO PUSH2 0x599 JUMPI POP POP PUSH2 0x576 DUP4 PUSH2 0x58F SWAP4 DUP10 SWAP4 PUSH32 0xE3A4E855CA574024873A64ADA77DFDB7F1342B982FBFE29EDF24BE638F20D398 SWAP9 SWAP8 SWAP7 ADD DUP2 SSTORE PUSH2 0x17B7 JUMP JUMPDEST SWAP1 SWAP2 SWAP1 DUP3 SLOAD SWAP1 PUSH1 0x3 SHL SWAP2 DUP3 SHL SWAP2 PUSH1 0x0 NOT SWAP1 SHL NOT AND OR SWAP1 SSTORE JUMP JUMPDEST MLOAD SWAP3 DUP4 MSTORE CALLER SWAP3 LOG3 DUP1 RETURN JUMPDEST PUSH4 0x4E487B71 PUSH1 0xE0 SHL DUP11 MSTORE PUSH1 0x41 SWAP1 MSTORE DUP9 REVERT JUMPDEST POP SWAP2 MLOAD PUSH4 0x39E35637 PUSH1 0xE1 SHL DUP2 MSTORE SWAP1 DUP2 ADD DUP7 SWAP1 MSTORE REVERT JUMPDEST PUSH1 0x0 DUP4 DUP2 MSTORE PUSH1 0x4 PUSH1 0x20 MSTORE PUSH1 0x40 SWAP1 KECCAK256 DUP1 SLOAD PUSH1 0x1 PUSH1 0x1 PUSH1 0xA0 SHL SUB NOT AND SWAP1 SSTORE DUP2 DUP13 MSTORE PUSH1 0x3 DUP10 MSTORE DUP8 DUP13 KECCAK256 SWAP1 DUP2 SLOAD ADD SWAP1 SSTORE CODESIZE PUSH2 0x4E1 JUMP JUMPDEST DUP6 MLOAD PUSH4 0x32505749 PUSH1 0xE1 SHL DUP2 MSTORE DUP1 DUP7 ADD DUP12 SWAP1 MSTORE DUP5 SWAP1 REVERT JUMPDEST ADD MLOAD SWAP1 POP CODESIZE DUP1 PUSH2 0x4AB JUMP JUMPDEST SWAP1 DUP8 SWAP4 PUSH1 0x1F NOT DUP5 AND DUP7 DUP5 MSTORE DUP14 DUP1 DUP6 KECCAK256 SWAP5 SWAP1 JUMPDEST DUP3 DUP3 LT PUSH2 0x658 JUMPI POP POP DUP5 GT PUSH2 0x641 JUMPI JUMPDEST POP POP POP DUP2 SHL ADD SWAP1 SSTORE PUSH2 0x4C3 JUMP JUMPDEST ADD MLOAD DUP7 PUSH1 0xF8 DUP5 PUSH1 0x3 SHL AND SHR NOT AND SWAP1 SSTORE CODESIZE DUP1 DUP1 PUSH2 0x634 JUMP JUMPDEST DUP4 DUP6 ADD MLOAD DUP7 SSTORE DUP12 SWAP8 SWAP1 SWAP6 ADD SWAP5 SWAP4 DUP5 ADD SWAP4 ADD DUP15 PUSH2 0x624 JUMP JUMPDEST PUSH4 0x4E487B71 PUSH1 0xE0 SHL DUP14 MSTORE PUSH1 0x41 DUP9 MSTORE DUP7 DUP14 REVERT JUMPDEST PUSH4 0x4E487B71 PUSH1 0xE0 SHL DUP15 MSTORE PUSH1 0x41 DUP10 MSTORE DUP8 DUP15 REVERT JUMPDEST PUSH4 0x4E487B71 PUSH1 0xE0 SHL DUP12 MSTORE PUSH1 0x11 DUP7 MSTORE DUP5 DUP12 REVERT JUMPDEST PUSH2 0x6C4 SWAP1 DUP8 RETURNDATASIZE DUP10 GT PUSH2 0x6CB JUMPI JUMPDEST PUSH2 0x6BC DUP2 DUP4 PUSH2 0x1836 JUMP JUMPDEST DUP2 ADD SWAP1 PUSH2 0x1AF5 JUMP JUMPDEST POP CODESIZE PUSH2 0x3C8 JUMP JUMPDEST POP RETURNDATASIZE PUSH2 0x6B2 JUMP JUMPDEST DUP7 MLOAD RETURNDATASIZE DUP13 DUP3 RETURNDATACOPY RETURNDATASIZE SWAP1 REVERT JUMPDEST POP PUSH1 0x20 SWAP1 DUP2 PUSH1 0x64 SWAP5 MLOAD SWAP4 PUSH3 0x461BCD PUSH1 0xE5 SHL DUP6 MSTORE DUP5 ADD MSTORE DUP3 ADD MSTORE PUSH32 0x416D6F756E74206D7573742062652067726561746572207468616E207A65726F PUSH1 0x44 DUP3 ADD MSTORE REVERT JUMPDEST DUP5 DUP1 REVERT JUMPDEST POP POP CALLVALUE PUSH2 0x268 JUMPI DUP2 PUSH1 0x3 NOT CALLDATASIZE ADD SLT PUSH2 0x268 JUMPI PUSH1 0x20 SWAP1 PUSH1 0xB SLOAD SWAP1 MLOAD SWAP1 DUP2 MSTORE RETURN JUMPDEST POP DUP3 SWAP1 CALLVALUE PUSH2 0x268 JUMPI PUSH1 0x20 SWAP3 DUP4 PUSH1 0x3 NOT CALLDATASIZE ADD SLT PUSH2 0x216 JUMPI DUP2 CALLDATALOAD DUP4 MSTORE PUSH1 0x9 DUP5 MSTORE DUP1 DUP4 KECCAK256 DUP1 SLOAD SWAP3 PUSH1 0x1 SWAP3 PUSH1 0x1 DUP4 ADD SLOAD PUSH1 0x2 DUP5 ADD SLOAD SWAP3 PUSH1 0x3 DUP6 ADD SLOAD SWAP5 ADD DUP9 DUP4 MLOAD SWAP7 DUP10 DUP4 SLOAD SWAP4 PUSH2 0x78A DUP6 PUSH2 0x18AB JUMP JUMPDEST DUP1 DUP12 MSTORE SWAP5 PUSH1 0x1 DUP2 AND SWAP1 DUP2 ISZERO PUSH2 0x82D JUMPI POP PUSH1 0x1 EQ PUSH2 0x7F2 JUMPI JUMPDEST DUP4 DUP12 PUSH2 0x7EE DUP13 DUP16 DUP14 DUP14 DUP14 DUP14 PUSH2 0x7BB DUP7 PUSH1 0xFF SWAP7 SUB DUP8 PUSH2 0x1836 JUMP JUMPDEST DUP2 MLOAD SWAP9 DUP10 SWAP9 DUP10 MSTORE DUP9 ADD MSTORE DUP7 ADD MSTORE DUP2 DUP2 AND ISZERO ISZERO PUSH1 0x60 DUP7 ADD MSTORE PUSH1 0x8 SHR AND ISZERO ISZERO PUSH1 0x80 DUP5 ADD MSTORE PUSH1 0xC0 PUSH1 0xA0 DUP5 ADD MSTORE PUSH1 0xC0 DUP4 ADD SWAP1 PUSH2 0x1715 JUMP JUMPDEST SUB SWAP1 RETURN JUMPDEST SWAP1 DUP1 SWAP5 SWAP4 SWAP12 POP MSTORE DUP10 DUP4 KECCAK256 JUMPDEST DUP3 DUP5 LT PUSH2 0x81A JUMPI POP POP POP DUP6 ADD SWAP1 SWAP7 ADD SWAP6 DUP1 DUP9 DUP7 PUSH2 0x7EE PUSH1 0xFF PUSH2 0x7A2 JUMP JUMPDEST DUP1 SLOAD DUP10 DUP6 ADD DUP13 ADD MSTORE SWAP3 DUP11 ADD SWAP3 DUP2 ADD PUSH2 0x7FD JUMP JUMPDEST PUSH1 0xFF NOT AND DUP6 DUP13 ADD MSTORE POP POP POP POP SWAP1 ISZERO ISZERO PUSH1 0x5 SHL DUP7 ADD ADD SWAP7 POP DUP1 DUP9 DUP7 PUSH2 0x7EE PUSH1 0xFF PUSH2 0x7A2 JUMP JUMPDEST POP SWAP2 SWAP1 CALLVALUE PUSH2 0x268 JUMPI PUSH1 0x20 CALLDATASIZE PUSH1 0x3 NOT ADD SLT PUSH2 0x268 JUMPI PUSH2 0x872 PUSH2 0x7EE SWAP4 CALLDATALOAD PUSH2 0x1DD4 JUMP JUMPDEST POP DUP2 DUP2 MLOAD PUSH2 0x87F DUP2 PUSH2 0x1804 JUMP JUMPDEST MSTORE DUP1 MLOAD SWAP2 PUSH2 0x88C DUP4 PUSH2 0x1804 JUMP JUMPDEST DUP3 MSTORE MLOAD SWAP2 DUP3 SWAP2 PUSH1 0x20 DUP4 MSTORE PUSH1 0x20 DUP4 ADD SWAP1 PUSH2 0x1715 JUMP JUMPDEST DUP4 DUP3 CALLVALUE PUSH2 0x268 JUMPI PUSH1 0x80 CALLDATASIZE PUSH1 0x3 NOT ADD SLT PUSH2 0x268 JUMPI PUSH2 0x8BB PUSH2 0x1755 JUMP JUMPDEST PUSH2 0x8C3 PUSH2 0x1770 JUMP JUMPDEST SWAP1 PUSH1 0x64 CALLDATALOAD PUSH8 0xFFFFFFFFFFFFFFFF DUP2 GT PUSH2 0x71D JUMPI CALLDATASIZE PUSH1 0x23 DUP3 ADD SLT ISZERO PUSH2 0x71D JUMPI PUSH2 0x901 SWAP4 DUP2 PUSH1 0x24 PUSH2 0x8F7 SWAP4 CALLDATASIZE SWAP4 ADD CALLDATALOAD SWAP2 ADD PUSH2 0x1874 JUMP JUMPDEST SWAP2 PUSH1 0x44 CALLDATALOAD SWAP2 PUSH2 0x1C85 JUMP JUMPDEST DUP1 RETURN JUMPDEST DUP4 CALLVALUE PUSH2 0x331 JUMPI PUSH1 0x20 CALLDATASIZE PUSH1 0x3 NOT ADD SLT PUSH2 0x331 JUMPI PUSH2 0x91E PUSH2 0x1755 JUMP JUMPDEST PUSH2 0x926 PUSH2 0x1E0F JUMP JUMPDEST PUSH1 0xD DUP1 SLOAD PUSH1 0x1 PUSH1 0x1 PUSH1 0xA0 SHL SUB NOT AND PUSH1 0x1 PUSH1 0x1 PUSH1 0xA0 SHL SUB SWAP3 SWAP1 SWAP3 AND SWAP2 SWAP1 SWAP2 OR SWAP1 SSTORE DUP1 RETURN JUMPDEST POP SWAP1 CALLVALUE PUSH2 0x216 JUMPI DUP1 PUSH1 0x3 NOT CALLDATASIZE ADD SLT PUSH2 0x216 JUMPI PUSH2 0x963 PUSH2 0x1755 JUMP JUMPDEST SWAP1 PUSH1 0x24 CALLDATALOAD DUP1 ISZERO ISZERO SWAP3 DUP4 DUP3 SUB PUSH2 0x9F0 JUMPI PUSH1 0x1 PUSH1 0x1 PUSH1 0xA0 SHL SUB AND SWAP4 DUP5 ISZERO PUSH2 0x9D9 JUMPI POP PUSH2 0x9AC SWAP1 CALLER DUP7 MSTORE PUSH1 0x5 PUSH1 0x20 MSTORE DUP3 DUP7 KECCAK256 DUP6 DUP8 MSTORE PUSH1 0x20 MSTORE DUP3 DUP7 KECCAK256 SWAP1 PUSH1 0xFF DUP1 NOT DUP4 SLOAD AND SWAP2 ISZERO ISZERO AND OR SWAP1 SSTORE JUMP JUMPDEST MLOAD SWAP1 DUP2 MSTORE PUSH32 0x17307EAB39AB6107E8899845AD3D59BD9653F200F220920489CA2B5937696C31 PUSH1 0x20 CALLER SWAP3 LOG3 DUP1 RETURN JUMPDEST DUP3 MLOAD PUSH4 0xB611743 PUSH1 0xE3 SHL DUP2 MSTORE SWAP1 DUP2 ADD DUP6 SWAP1 MSTORE PUSH1 0x24 SWAP1 REVERT JUMPDEST DUP6 DUP1 REVERT JUMPDEST DUP3 DUP5 CALLVALUE PUSH2 0x331 JUMPI DUP1 PUSH1 0x3 NOT CALLDATASIZE ADD SLT PUSH2 0x331 JUMPI DUP2 MLOAD SWAP2 DUP3 DUP3 PUSH1 0x1 SWAP4 PUSH1 0x1 SLOAD SWAP5 PUSH2 0xA1B DUP7 PUSH2 0x18AB JUMP JUMPDEST SWAP2 DUP3 DUP6 MSTORE PUSH1 0x20 SWAP7 DUP8 PUSH1 0x1 DUP3 AND SWAP2 DUP3 PUSH1 0x0 EQ PUSH2 0xA9A JUMPI POP POP PUSH1 0x1 EQ PUSH2 0xA5C JUMPI JUMPDEST POP POP POP PUSH2 0x7EE SWAP3 SWAP2 PUSH2 0xA4D SWAP2 SUB DUP6 PUSH2 0x1836 JUMP JUMPDEST MLOAD SWAP3 DUP3 DUP5 SWAP4 DUP5 MSTORE DUP4 ADD SWAP1 PUSH2 0x1715 JUMP JUMPDEST SWAP2 SWAP1 DUP7 SWAP4 POP PUSH1 0x1 DUP4 MSTORE DUP4 DUP4 KECCAK256 JUMPDEST DUP3 DUP5 LT PUSH2 0xA82 JUMPI POP POP POP DUP3 ADD ADD DUP2 PUSH2 0xA4D PUSH2 0x7EE PUSH2 0xA3A JUMP JUMPDEST DUP1 SLOAD DUP5 DUP11 ADD DUP7 ADD MSTORE DUP9 SWAP6 POP DUP8 SWAP5 SWAP1 SWAP4 ADD SWAP3 DUP2 ADD PUSH2 0xA69 JUMP JUMPDEST PUSH1 0xFF NOT AND DUP8 DUP3 ADD MSTORE SWAP4 ISZERO ISZERO PUSH1 0x5 SHL DUP7 ADD SWAP1 SWAP4 ADD SWAP4 POP DUP5 SWAP3 POP PUSH2 0xA4D SWAP2 POP PUSH2 0x7EE SWAP1 POP PUSH2 0xA3A JUMP JUMPDEST POP POP CALLVALUE PUSH2 0x268 JUMPI DUP2 PUSH1 0x3 NOT CALLDATASIZE ADD SLT PUSH2 0x268 JUMPI PUSH1 0x6 SLOAD SWAP1 MLOAD PUSH1 0x1 PUSH1 0x1 PUSH1 0xA0 SHL SUB SWAP1 SWAP2 AND DUP2 MSTORE PUSH1 0x20 SWAP1 RETURN JUMPDEST POP SWAP2 CALLVALUE PUSH2 0x331 JUMPI PUSH1 0x20 CALLDATASIZE PUSH1 0x3 NOT ADD SLT PUSH2 0x331 JUMPI POP PUSH2 0xB0A PUSH1 0x20 SWAP3 CALLDATALOAD PUSH2 0x1C49 JUMP JUMPDEST SWAP1 MLOAD SWAP1 ISZERO ISZERO DUP2 MSTORE RETURN JUMPDEST DUP4 CALLVALUE PUSH2 0x331 JUMPI DUP1 PUSH1 0x3 NOT CALLDATASIZE ADD SLT PUSH2 0x331 JUMPI PUSH2 0xB2C PUSH2 0x1E0F JUMP JUMPDEST PUSH1 0x6 DUP1 SLOAD PUSH1 0x1 PUSH1 0x1 PUSH1 0xA0 SHL SUB NOT DUP2 AND SWAP1 SWAP2 SSTORE DUP2 SWAP1 PUSH1 0x1 PUSH1 0x1 PUSH1 0xA0 SHL SUB AND PUSH32 0x8BE0079C531659141344CD1FD0A4F28419497F9722A3DAAFE3B4186F6B6457E0 DUP3 DUP1 LOG3 DUP1 RETURN JUMPDEST POP SWAP2 CALLVALUE PUSH2 0x331 JUMPI PUSH1 0x20 CALLDATASIZE PUSH1 0x3 NOT ADD SLT PUSH2 0x331 JUMPI PUSH1 0x1 PUSH1 0x1 PUSH1 0xA0 SHL SUB PUSH2 0xB93 PUSH2 0x1755 JUMP JUMPDEST AND SWAP3 DUP4 ISZERO PUSH2 0xBB0 JUMPI POP DUP1 PUSH1 0x20 SWAP4 DUP4 SWAP3 MSTORE PUSH1 0x3 DUP5 MSTORE KECCAK256 SLOAD SWAP1 MLOAD SWAP1 DUP2 MSTORE RETURN JUMPDEST SWAP2 MLOAD PUSH4 0x22718AD9 PUSH1 0xE2 SHL DUP2 MSTORE SWAP2 DUP3 ADD MSTORE PUSH1 0x24 SWAP1 REVERT JUMPDEST POP SWAP2 SWAP1 CALLVALUE PUSH2 0x268 JUMPI PUSH1 0x20 CALLDATASIZE PUSH1 0x3 NOT ADD SLT PUSH2 0x268 JUMPI PUSH2 0xBE1 PUSH2 0x1755 JUMP JUMPDEST PUSH2 0xBE9 PUSH2 0x1E0F JUMP JUMPDEST PUSH1 0x1 PUSH1 0x1 PUSH1 0xA0 SHL SUB DUP2 AND DUP1 DUP5 MSTORE PUSH1 0x7 PUSH1 0x20 MSTORE DUP3 DUP5 KECCAK256 SLOAD SWAP1 SWAP3 SWAP1 PUSH1 0xFF AND PUSH2 0xC99 JUMPI DUP3 DUP5 MSTORE PUSH1 0x7 PUSH1 0x20 MSTORE DUP4 KECCAK256 DUP1 SLOAD PUSH1 0xFF NOT AND PUSH1 0x1 OR SWAP1 SSTORE PUSH1 0x8 SLOAD PUSH1 0x1 PUSH1 0x40 SHL DUP2 LT ISZERO PUSH2 0xC86 JUMPI SWAP1 PUSH2 0xC41 DUP3 PUSH1 0x1 PUSH2 0xC5F SWAP5 ADD PUSH1 0x8 SSTORE PUSH2 0x1786 JUMP JUMPDEST SWAP1 SWAP2 SWAP1 PUSH1 0x1 DUP1 PUSH1 0xA0 SHL SUB DUP1 DUP5 SLOAD SWAP3 PUSH1 0x3 SHL SWAP4 AND DUP4 SHL SWAP3 SHL NOT AND OR SWAP1 SSTORE JUMP JUMPDEST PUSH32 0x44D6D25963F097AD14F29F06854A01F575648A1EF82F30E562CCD3889717E339 DUP3 DUP1 LOG2 DUP1 RETURN JUMPDEST PUSH4 0x4E487B71 PUSH1 0xE0 SHL DUP5 MSTORE PUSH1 0x41 DUP6 MSTORE PUSH1 0x24 DUP5 REVERT JUMPDEST MLOAD PUSH3 0x461BCD PUSH1 0xE5 SHL DUP2 MSTORE PUSH1 0x20 DUP2 DUP7 ADD MSTORE PUSH1 0x1B PUSH1 0x24 DUP3 ADD MSTORE PUSH32 0x4164647265737320697320616C726561647920616E2061646D696E0000000000 PUSH1 0x44 DUP3 ADD MSTORE PUSH1 0x64 SWAP1 REVERT JUMPDEST POP SWAP1 CALLVALUE PUSH2 0x216 JUMPI PUSH1 0x20 DUP1 PUSH1 0x3 NOT CALLDATASIZE ADD SLT PUSH2 0xE06 JUMPI DUP3 CALLDATALOAD SWAP3 PUSH1 0x1 PUSH2 0xCFD DUP6 PUSH2 0x1C49 JUMP JUMPDEST ISZERO ISZERO SUB PUSH2 0xDCB JUMPI PUSH2 0xD20 PUSH2 0xD10 DUP6 PUSH2 0x1DD4 JUMP JUMPDEST PUSH1 0x1 PUSH1 0x1 PUSH1 0xA0 SHL SUB AND CALLER EQ PUSH2 0x18E5 JUMP JUMPDEST DUP4 DUP6 MSTORE PUSH1 0x9 DUP3 MSTORE PUSH1 0xFF PUSH1 0x3 DUP5 DUP8 KECCAK256 ADD SLOAD AND PUSH2 0xD90 JUMPI POP SWAP1 PUSH1 0x9 PUSH1 0x3 SWAP3 DUP5 DUP7 MSTORE DUP2 DUP2 MSTORE PUSH2 0xD57 PUSH1 0xFF DUP6 DUP6 DUP10 KECCAK256 ADD SLOAD PUSH1 0x8 SHR AND ISZERO PUSH2 0x1AB8 JUMP JUMPDEST DUP5 DUP7 MSTORE MSTORE DUP4 KECCAK256 ADD DUP1 SLOAD PUSH1 0xFF NOT AND PUSH1 0x1 OR SWAP1 SSTORE PUSH32 0x9936A1A62C48173D9BBE9F13A0665F489585F9B2BB59A6747CE90C5D48272D35 DUP3 DUP1 LOG2 DUP1 RETURN JUMPDEST SWAP2 MLOAD PUSH3 0x461BCD PUSH1 0xE5 SHL DUP2 MSTORE SWAP2 DUP3 ADD MSTORE PUSH1 0x17 PUSH1 0x24 DUP3 ADD MSTORE PUSH23 0x10DB185A5B48185B1C9958591E481CDD589B5A5D1D1959 PUSH1 0x4A SHL PUSH1 0x44 DUP3 ADD MSTORE PUSH1 0x64 SWAP1 REVERT JUMPDEST SWAP2 MLOAD PUSH3 0x461BCD PUSH1 0xE5 SHL DUP2 MSTORE SWAP2 DUP3 ADD MSTORE PUSH1 0x17 PUSH1 0x24 DUP3 ADD MSTORE PUSH23 0x45787069726174696F6E206D7573742062652074727565 PUSH1 0x48 SHL PUSH1 0x44 DUP3 ADD MSTORE PUSH1 0x64 SWAP1 REVERT JUMPDEST DUP4 DUP1 REVERT JUMPDEST POP SWAP2 CALLVALUE PUSH2 0x331 JUMPI PUSH1 0x20 CALLDATASIZE PUSH1 0x3 NOT ADD SLT PUSH2 0x331 JUMPI POP PUSH2 0xE2A PUSH1 0x20 SWAP3 CALLDATALOAD PUSH2 0x1DD4 JUMP JUMPDEST SWAP1 MLOAD PUSH1 0x1 PUSH1 0x1 PUSH1 0xA0 SHL SUB SWAP1 SWAP2 AND DUP2 MSTORE RETURN JUMPDEST POP SWAP1 CALLVALUE PUSH2 0x216 JUMPI PUSH1 0x20 SWAP2 DUP3 PUSH1 0x3 NOT CALLDATASIZE ADD SLT PUSH2 0xE06 JUMPI DUP1 CALLDATALOAD SWAP3 PUSH2 0xE5B PUSH2 0x1E0F JUMP JUMPDEST DUP4 DUP6 MSTORE PUSH1 0x9 DUP2 MSTORE PUSH1 0x3 PUSH1 0xFF DUP2 DUP6 DUP9 KECCAK256 ADD SLOAD AND ISZERO PUSH2 0x11B4 JUMPI DUP5 DUP7 MSTORE PUSH1 0x9 DUP3 MSTORE PUSH2 0xE8E PUSH1 0xFF DUP3 DUP7 DUP10 KECCAK256 ADD SLOAD PUSH1 0x8 SHR AND ISZERO PUSH2 0x1AB8 JUMP JUMPDEST PUSH2 0xE97 DUP6 PUSH2 0x1DD4 JUMP JUMPDEST PUSH1 0xD SLOAD DUP7 DUP9 MSTORE PUSH1 0x9 DUP5 MSTORE DUP6 DUP9 KECCAK256 SLOAD DUP7 MLOAD PUSH4 0xA9059CBB PUSH1 0xE0 SHL DUP2 MSTORE PUSH1 0x1 PUSH1 0x1 PUSH1 0xA0 SHL SUB DUP5 DUP2 AND DUP9 DUP4 ADD SWAP1 DUP2 MSTORE PUSH1 0x20 DUP2 ADD SWAP4 SWAP1 SWAP4 MSTORE SWAP4 SWAP8 SWAP4 SWAP6 SWAP3 SWAP1 SWAP2 DUP4 SWAP2 DUP4 SWAP2 DUP3 SWAP1 SUB PUSH1 0x40 ADD SWAP1 DUP3 SWAP1 DUP14 SWAP1 DUP11 AND GAS CALL DUP1 ISZERO PUSH2 0x11AA JUMPI PUSH2 0x118D JUMPI JUMPDEST POP DUP7 DUP9 MSTORE PUSH1 0x2 DUP2 MSTORE DUP4 DUP3 DUP10 KECCAK256 SLOAD AND DUP8 DUP10 DUP3 ISZERO SWAP3 DUP4 ISZERO PUSH2 0x115B JUMPI JUMPDEST DUP3 DUP3 MSTORE PUSH1 0x2 DUP6 MSTORE DUP6 DUP3 KECCAK256 DUP1 SLOAD PUSH1 0x1 PUSH1 0x1 PUSH1 0xA0 SHL SUB NOT AND SWAP1 SSTORE PUSH1 0x0 DUP1 MLOAD PUSH1 0x20 PUSH2 0x1E3C DUP4 CODECOPY DUP2 MLOAD SWAP2 MSTORE DUP3 DUP1 LOG4 PUSH2 0x1144 JUMPI PUSH1 0xB SLOAD PUSH1 0x0 NOT SWAP5 SWAP1 DUP6 DUP2 ADD SWAP1 DUP2 GT PUSH2 0x10C4 JUMPI DUP10 MSTORE PUSH1 0x9 DUP3 MSTORE DUP3 DUP10 KECCAK256 DUP9 DUP11 MSTORE DUP4 DUP11 KECCAK256 DUP8 DUP3 DUP3 SUB PUSH2 0x10D7 JUMPI JUMPDEST POP POP POP PUSH1 0xB SLOAD DUP6 DUP2 ADD SWAP1 DUP2 GT PUSH2 0x10C4 JUMPI DUP10 MSTORE PUSH1 0x9 DUP3 MSTORE DUP3 DUP10 KECCAK256 SWAP7 DUP10 DUP9 SSTORE DUP10 DUP8 PUSH1 0x1 SWAP10 DUP3 PUSH1 0x1 DUP3 ADD SSTORE DUP3 PUSH1 0x2 DUP3 ADD SSTORE DUP3 DUP9 DUP3 ADD SSTORE ADD PUSH2 0xF9F DUP2 SLOAD PUSH2 0x18AB JUMP JUMPDEST DUP1 PUSH2 0x1088 JUMPI JUMPDEST POP POP POP PUSH1 0xB SLOAD DUP1 ISZERO PUSH2 0x1075 JUMPI DUP7 ADD PUSH1 0xB SSTORE AND DUP9 MSTORE PUSH1 0xA SWAP1 MSTORE DUP7 KECCAK256 DUP1 SLOAD SWAP1 DUP8 JUMPDEST DUP3 DUP2 LT PUSH2 0xFF5 JUMPI JUMPDEST DUP9 DUP9 PUSH32 0xD2D0ED0CCCC8615643ADE1EFF3929A29ED8DF75EBCA85A3996E311C9B69E2289 DUP3 DUP1 LOG2 DUP1 RETURN JUMPDEST DUP8 PUSH2 0x1000 DUP3 DUP5 PUSH2 0x17B7 JUMP JUMPDEST SWAP1 SLOAD SWAP1 DUP7 SHL SHR EQ PUSH2 0x1012 JUMPI DUP7 ADD PUSH2 0xFC4 JUMP JUMPDEST SWAP4 SWAP6 POP SWAP2 SWAP4 DUP6 DUP3 ADD SWAP4 SWAP2 DUP5 GT PUSH2 0x1062 JUMPI POP SWAP1 PUSH2 0x1046 DUP4 SWAP3 PUSH2 0x576 PUSH2 0x1039 PUSH2 0x104B SWAP7 DUP6 PUSH2 0x17B7 JUMP JUMPDEST SWAP1 SLOAD SWAP1 DUP9 SHL SHR SWAP2 DUP5 PUSH2 0x17B7 JUMP JUMPDEST PUSH2 0x17B7 JUMP JUMPDEST DUP2 SWAP4 SWAP2 SLOAD SWAP3 SHL SHL NOT AND SWAP1 SSTORE CODESIZE DUP1 DUP1 DUP1 DUP1 DUP1 DUP1 PUSH2 0xFCC JUMP JUMPDEST PUSH4 0x4E487B71 PUSH1 0xE0 SHL DUP9 MSTORE PUSH1 0x11 SWAP1 MSTORE PUSH1 0x24 DUP8 REVERT JUMPDEST PUSH4 0x4E487B71 PUSH1 0xE0 SHL DUP12 MSTORE PUSH1 0x11 DUP9 MSTORE PUSH1 0x24 DUP12 REVERT JUMPDEST DUP3 PUSH1 0x1F DUP3 GT PUSH1 0x1 EQ PUSH2 0x10A0 JUMPI POP POP SSTORE JUMPDEST DUP10 CODESIZE DUP1 PUSH2 0xFA5 JUMP JUMPDEST SWAP1 SWAP2 DUP1 DUP3 MSTORE PUSH2 0x10BD PUSH1 0x1F DUP9 DUP5 KECCAK256 SWAP5 ADD PUSH1 0x5 SHR DUP5 ADD PUSH1 0x1 DUP6 ADD PUSH2 0x1B0D JUMP JUMPDEST SSTORE SSTORE PUSH2 0x1098 JUMP JUMPDEST PUSH4 0x4E487B71 PUSH1 0xE0 SHL DUP11 MSTORE PUSH1 0x11 DUP8 MSTORE PUSH1 0x24 DUP11 REVERT JUMPDEST DUP1 DUP4 PUSH2 0x113C SWAP5 SLOAD DUP5 SSTORE PUSH1 0x1 DUP2 ADD SLOAD PUSH1 0x1 DUP6 ADD SSTORE PUSH1 0x2 DUP2 ADD SLOAD PUSH1 0x2 DUP6 ADD SSTORE PUSH2 0x1134 DUP10 DUP6 ADD PUSH1 0xFF DUP12 DUP5 ADD PUSH2 0x1118 DUP3 DUP3 SLOAD AND DUP5 SWAP1 PUSH1 0xFF DUP1 NOT DUP4 SLOAD AND SWAP2 ISZERO ISZERO AND OR SWAP1 SSTORE JUMP JUMPDEST SLOAD PUSH1 0x8 SHR AND PUSH2 0xFF00 DUP3 SLOAD SWAP2 ISZERO ISZERO PUSH1 0x8 SHL AND SWAP1 PUSH2 0xFF00 NOT AND OR SWAP1 SSTORE JUMP JUMPDEST ADD SWAP2 ADD PUSH2 0x1B6B JUMP JUMPDEST CODESIZE DUP1 DUP8 PUSH2 0xF61 JUMP JUMPDEST DUP2 MLOAD PUSH4 0x7E273289 PUSH1 0xE0 SHL DUP2 MSTORE DUP1 DUP7 ADD DUP9 SWAP1 MSTORE PUSH1 0x24 SWAP1 REVERT JUMPDEST PUSH1 0x0 DUP4 DUP2 MSTORE PUSH1 0x4 PUSH1 0x20 MSTORE PUSH1 0x40 SWAP1 KECCAK256 DUP1 SLOAD PUSH1 0x1 PUSH1 0x1 PUSH1 0xA0 SHL SUB NOT AND SWAP1 SSTORE DUP1 DUP3 MSTORE DUP7 DUP6 MSTORE DUP6 DUP3 KECCAK256 DUP1 SLOAD PUSH1 0x0 NOT ADD SWAP1 SSTORE PUSH2 0xF09 JUMP JUMPDEST PUSH2 0x11A3 SWAP1 DUP3 RETURNDATASIZE DUP5 GT PUSH2 0x6CB JUMPI PUSH2 0x6BC DUP2 DUP4 PUSH2 0x1836 JUMP JUMPDEST POP CODESIZE PUSH2 0xEEF JUMP JUMPDEST DUP4 MLOAD RETURNDATASIZE DUP12 DUP3 RETURNDATACOPY RETURNDATASIZE SWAP1 REVERT JUMPDEST POP PUSH1 0x64 SWAP3 MLOAD SWAP2 PUSH3 0x461BCD PUSH1 0xE5 SHL DUP4 MSTORE DUP3 ADD MSTORE PUSH1 0x13 PUSH1 0x24 DUP3 ADD MSTORE PUSH19 0x10DB185A5B481B9BDD081CDD589B5A5D1D1959 PUSH1 0x6A SHL PUSH1 0x44 DUP3 ADD MSTORE REVERT JUMPDEST POP POP CALLVALUE PUSH2 0x268 JUMPI PUSH1 0x20 CALLDATASIZE PUSH1 0x3 NOT ADD SLT PUSH2 0x268 JUMPI PUSH1 0x20 SWAP2 PUSH1 0xFF SWAP1 DUP3 SWAP1 PUSH1 0x1 PUSH1 0x1 PUSH1 0xA0 SHL SUB PUSH2 0x1216 PUSH2 0x1755 JUMP JUMPDEST AND DUP2 MSTORE PUSH1 0x7 DUP6 MSTORE KECCAK256 SLOAD AND SWAP1 MLOAD SWAP1 ISZERO ISZERO DUP2 MSTORE RETURN JUMPDEST POP POP CALLVALUE PUSH2 0x268 JUMPI PUSH2 0x901 SWAP1 PUSH2 0x123D CALLDATASIZE PUSH2 0x17CF JUMP JUMPDEST SWAP2 SWAP3 MLOAD SWAP3 PUSH2 0x124A DUP5 PUSH2 0x1804 JUMP JUMPDEST DUP6 DUP5 MSTORE PUSH2 0x1C85 JUMP JUMPDEST POP POP CALLVALUE PUSH2 0x268 JUMPI DUP1 PUSH1 0x3 NOT CALLDATASIZE ADD SLT PUSH2 0x268 JUMPI PUSH2 0x126C PUSH2 0x1755 JUMP JUMPDEST PUSH1 0x1 PUSH1 0x1 PUSH1 0xA0 SHL SUB AND DUP3 MSTORE PUSH1 0xA PUSH1 0x20 MSTORE DUP1 DUP3 KECCAK256 DUP1 SLOAD PUSH1 0x24 CALLDATALOAD SWAP4 SWAP1 DUP5 LT ISZERO PUSH2 0x331 JUMPI POP PUSH1 0x20 SWAP3 PUSH2 0x129A SWAP2 PUSH2 0x17B7 JUMP JUMPDEST SWAP2 SWAP1 SLOAD SWAP1 MLOAD SWAP2 PUSH1 0x3 SHL SHR DUP2 MSTORE RETURN JUMPDEST DUP4 CALLVALUE PUSH2 0x331 JUMPI PUSH2 0x901 PUSH2 0x12BA CALLDATASIZE PUSH2 0x17CF JUMP JUMPDEST SWAP2 PUSH2 0x1928 JUMP JUMPDEST POP POP CALLVALUE PUSH2 0x268 JUMPI DUP2 PUSH1 0x3 NOT CALLDATASIZE ADD SLT PUSH2 0x268 JUMPI PUSH1 0x20 SWAP1 PUSH1 0xC SLOAD SWAP1 MLOAD SWAP1 DUP2 MSTORE RETURN JUMPDEST POP SWAP1 CALLVALUE PUSH2 0x216 JUMPI PUSH1 0x20 CALLDATASIZE PUSH1 0x3 NOT ADD SLT PUSH2 0x216 JUMPI PUSH2 0x12FA PUSH2 0x1755 JUMP JUMPDEST PUSH2 0x1302 PUSH2 0x1E0F JUMP JUMPDEST PUSH1 0x1 PUSH1 0x1 PUSH1 0xA0 SHL SUB SWAP1 DUP2 AND DUP1 DUP6 MSTORE PUSH1 0x7 PUSH1 0x20 MSTORE DUP3 DUP6 KECCAK256 SLOAD SWAP1 SWAP3 SWAP1 PUSH1 0xFF AND ISZERO PUSH2 0x1417 JUMPI DUP3 DUP6 MSTORE PUSH1 0x7 PUSH1 0x20 MSTORE DUP5 KECCAK256 DUP1 SLOAD PUSH1 0xFF NOT AND SWAP1 SSTORE DUP4 JUMPDEST PUSH1 0x8 DUP1 SLOAD DUP1 DUP4 LT ISZERO PUSH2 0x140C JUMPI SWAP1 DUP4 SWAP2 DUP6 PUSH2 0x1351 DUP6 PUSH2 0x1786 JUMP JUMPDEST SWAP5 SWAP1 SLOAD PUSH1 0x3 SWAP6 DUP7 SHL SHR AND EQ PUSH2 0x136B JUMPI POP POP POP PUSH1 0x1 ADD PUSH2 0x1338 JUMP JUMPDEST SWAP2 SWAP5 SWAP6 SWAP1 SWAP4 SWAP3 PUSH1 0x0 NOT SWAP3 DUP4 DUP2 ADD SWAP1 DUP2 GT PUSH2 0x13F9 JUMPI SWAP1 PUSH2 0xC41 DUP6 PUSH2 0x1390 PUSH2 0x139D SWAP5 PUSH2 0x1786 JUMP JUMPDEST SWAP1 SLOAD SWAP1 DUP11 SHL SHR AND SWAP2 PUSH2 0x1786 JUMP JUMPDEST DUP4 SLOAD SWAP1 DUP2 ISZERO PUSH2 0x13E6 JUMPI POP ADD SWAP3 PUSH2 0x13B2 DUP5 PUSH2 0x1786 JUMP JUMPDEST DUP2 SWAP4 SWAP2 SLOAD SWAP3 SHL SHL NOT AND SWAP1 SSTORE SSTORE JUMPDEST PUSH32 0xA3B62BC36326052D97EA62D63C3D60308ED4C3EA8AC079DD8499F1E9C4F80C0F DUP3 DUP1 LOG2 DUP1 RETURN JUMPDEST PUSH4 0x4E487B71 PUSH1 0xE0 SHL DUP9 MSTORE PUSH1 0x31 SWAP1 MSTORE PUSH1 0x24 DUP8 REVERT JUMPDEST PUSH4 0x4E487B71 PUSH1 0xE0 SHL DUP10 MSTORE PUSH1 0x11 DUP4 MSTORE PUSH1 0x24 DUP10 REVERT JUMPDEST POP POP POP POP SWAP1 POP PUSH2 0x13BF JUMP JUMPDEST MLOAD PUSH3 0x461BCD PUSH1 0xE5 SHL DUP2 MSTORE PUSH1 0x20 DUP2 DUP6 ADD MSTORE PUSH1 0x17 PUSH1 0x24 DUP3 ADD MSTORE PUSH23 0x20B2323932B9B99034B9903737BA1030B71030B236B4B7 PUSH1 0x49 SHL PUSH1 0x44 DUP3 ADD MSTORE PUSH1 0x64 SWAP1 REVERT JUMPDEST POP POP CALLVALUE PUSH2 0x268 JUMPI DUP2 PUSH1 0x3 NOT CALLDATASIZE ADD SLT PUSH2 0x268 JUMPI PUSH1 0xD SLOAD SWAP1 MLOAD PUSH1 0x1 PUSH1 0x1 PUSH1 0xA0 SHL SUB SWAP1 SWAP2 AND DUP2 MSTORE PUSH1 0x20 SWAP1 RETURN JUMPDEST POP CALLVALUE PUSH2 0x216 JUMPI PUSH1 0x20 CALLDATASIZE PUSH1 0x3 NOT ADD SLT PUSH2 0x216 JUMPI CALLDATALOAD SWAP2 PUSH1 0x8 SLOAD DUP4 LT ISZERO PUSH2 0x331 JUMPI POP PUSH2 0x14A6 PUSH1 0x20 SWAP3 PUSH2 0x1786 JUMP JUMPDEST SWAP1 SLOAD SWAP2 MLOAD SWAP2 PUSH1 0x1 DUP1 PUSH1 0xA0 SHL SUB SWAP2 PUSH1 0x3 SHL SHR AND DUP2 MSTORE RETURN JUMPDEST POP POP CALLVALUE PUSH2 0x268 JUMPI DUP1 PUSH1 0x3 NOT CALLDATASIZE ADD SLT PUSH2 0x268 JUMPI PUSH2 0x901 SWAP1 PUSH2 0x14DA PUSH2 0x1755 JUMP JUMPDEST SWAP1 PUSH1 0x24 CALLDATALOAD SWAP1 PUSH2 0x14EB PUSH2 0xD10 DUP4 PUSH2 0x1DD4 JUMP JUMPDEST MLOAD SWAP2 PUSH2 0x14F6 DUP4 PUSH2 0x1804 JUMP JUMPDEST DUP5 DUP4 MSTORE CALLER PUSH2 0x1C85 JUMP JUMPDEST POP SWAP1 CALLVALUE PUSH2 0x216 JUMPI DUP1 PUSH1 0x3 NOT CALLDATASIZE ADD SLT PUSH2 0x216 JUMPI PUSH2 0x1519 PUSH2 0x1755 JUMP JUMPDEST SWAP2 PUSH1 0x24 CALLDATALOAD PUSH2 0x1526 DUP2 PUSH2 0x1DD4 JUMP JUMPDEST CALLER ISZERO ISZERO DUP1 PUSH2 0x15C8 JUMPI JUMPDEST DUP1 PUSH2 0x159F JUMPI JUMPDEST PUSH2 0x1589 JUMPI PUSH1 0x1 PUSH1 0x1 PUSH1 0xA0 SHL SUB SWAP5 DUP6 AND SWAP5 DUP3 SWAP2 DUP7 SWAP2 AND PUSH32 0x8C5BE1E5EBEC7D5BD14F71427D1E84F3DD0314C0F7B2291E5B200AC8C7C3B925 DUP9 DUP1 LOG4 DUP5 MSTORE PUSH1 0x20 MSTORE DUP3 KECCAK256 DUP1 SLOAD PUSH1 0x1 PUSH1 0x1 PUSH1 0xA0 SHL SUB NOT AND SWAP1 SWAP2 OR SWAP1 SSTORE DUP1 RETURN JUMPDEST DUP4 MLOAD PUSH4 0xA9FBF51F PUSH1 0xE0 SHL DUP2 MSTORE CALLER DUP2 DUP6 ADD MSTORE PUSH1 0x24 SWAP1 REVERT JUMPDEST POP PUSH1 0x1 PUSH1 0x1 PUSH1 0xA0 SHL SUB DUP2 AND DUP7 MSTORE PUSH1 0x5 PUSH1 0x20 SWAP1 DUP2 MSTORE DUP5 DUP8 KECCAK256 CALLER DUP9 MSTORE SWAP1 MSTORE DUP4 DUP7 KECCAK256 SLOAD PUSH1 0xFF AND ISZERO PUSH2 0x1535 JUMP JUMPDEST POP PUSH1 0x1 PUSH1 0x1 PUSH1 0xA0 SHL SUB DUP2 AND CALLER EQ ISZERO PUSH2 0x152F JUMP JUMPDEST POP CALLVALUE PUSH2 0x216 JUMPI PUSH1 0x20 CALLDATASIZE PUSH1 0x3 NOT ADD SLT PUSH2 0x216 JUMPI SWAP2 DUP3 PUSH1 0x20 SWAP4 CALLDATALOAD PUSH2 0x15FC DUP2 PUSH2 0x1DD4 JUMP JUMPDEST POP DUP3 MSTORE DUP4 MSTORE DUP2 SWAP1 KECCAK256 SLOAD SWAP1 MLOAD PUSH1 0x1 PUSH1 0x1 PUSH1 0xA0 SHL SUB SWAP1 SWAP2 AND DUP2 MSTORE RETURN JUMPDEST DUP3 DUP5 CALLVALUE PUSH2 0x331 JUMPI DUP1 PUSH1 0x3 NOT CALLDATASIZE ADD SLT PUSH2 0x331 JUMPI DUP2 MLOAD SWAP2 DUP3 DUP3 DUP4 SLOAD PUSH2 0x1638 DUP2 PUSH2 0x18AB JUMP JUMPDEST SWAP1 DUP2 DUP5 MSTORE PUSH1 0x20 SWAP6 PUSH1 0x1 SWAP2 DUP8 PUSH1 0x1 DUP3 AND SWAP2 DUP3 PUSH1 0x0 EQ PUSH2 0xA9A JUMPI POP POP PUSH1 0x1 EQ PUSH2 0x166C JUMPI POP POP POP PUSH2 0x7EE SWAP3 SWAP2 PUSH2 0xA4D SWAP2 SUB DUP6 PUSH2 0x1836 JUMP JUMPDEST SWAP2 SWAP1 DUP7 SWAP4 POP DUP3 DUP1 MSTORE DUP4 DUP4 KECCAK256 JUMPDEST DUP3 DUP5 LT PUSH2 0x1691 JUMPI POP POP POP DUP3 ADD ADD DUP2 PUSH2 0xA4D PUSH2 0x7EE PUSH2 0xA3A JUMP JUMPDEST DUP1 SLOAD DUP5 DUP11 ADD DUP7 ADD MSTORE DUP9 SWAP6 POP DUP8 SWAP5 SWAP1 SWAP4 ADD SWAP3 DUP2 ADD PUSH2 0x1678 JUMP JUMPDEST SWAP3 POP POP CALLVALUE PUSH2 0x216 JUMPI PUSH1 0x20 CALLDATASIZE PUSH1 0x3 NOT ADD SLT PUSH2 0x216 JUMPI CALLDATALOAD PUSH4 0xFFFFFFFF PUSH1 0xE0 SHL DUP2 AND DUP1 SWAP2 SUB PUSH2 0x216 JUMPI PUSH1 0x20 SWAP3 POP PUSH4 0x80AC58CD PUSH1 0xE0 SHL DUP2 EQ SWAP1 DUP2 ISZERO PUSH2 0x1704 JUMPI JUMPDEST DUP2 ISZERO PUSH2 0x16F3 JUMPI JUMPDEST POP ISZERO ISZERO DUP2 MSTORE RETURN JUMPDEST PUSH4 0x1FFC9A7 PUSH1 0xE0 SHL EQ SWAP1 POP CODESIZE PUSH2 0x16EC JUMP JUMPDEST PUSH4 0x5B5E139F PUSH1 0xE0 SHL DUP2 EQ SWAP2 POP PUSH2 0x16E5 JUMP JUMPDEST SWAP2 SWAP1 DUP3 MLOAD SWAP3 DUP4 DUP3 MSTORE PUSH1 0x0 JUMPDEST DUP5 DUP2 LT PUSH2 0x1741 JUMPI POP POP DUP3 PUSH1 0x0 PUSH1 0x20 DUP1 SWAP5 SWAP6 DUP5 ADD ADD MSTORE PUSH1 0x1F DUP1 NOT SWAP2 ADD AND ADD ADD SWAP1 JUMP JUMPDEST PUSH1 0x20 DUP2 DUP4 ADD DUP2 ADD MLOAD DUP5 DUP4 ADD DUP3 ADD MSTORE ADD PUSH2 0x1720 JUMP JUMPDEST PUSH1 0x4 CALLDATALOAD SWAP1 PUSH1 0x1 PUSH1 0x1 PUSH1 0xA0 SHL SUB DUP3 AND DUP3 SUB PUSH2 0x176B JUMPI JUMP JUMPDEST PUSH1 0x0 DUP1 REVERT JUMPDEST PUSH1 0x24 CALLDATALOAD SWAP1 PUSH1 0x1 PUSH1 0x1 PUSH1 0xA0 SHL SUB DUP3 AND DUP3 SUB PUSH2 0x176B JUMPI JUMP JUMPDEST PUSH1 0x8 SLOAD DUP2 LT ISZERO PUSH2 0x17A1 JUMPI PUSH1 0x8 PUSH1 0x0 MSTORE PUSH1 0x20 PUSH1 0x0 KECCAK256 ADD SWAP1 PUSH1 0x0 SWAP1 JUMP JUMPDEST PUSH4 0x4E487B71 PUSH1 0xE0 SHL PUSH1 0x0 MSTORE PUSH1 0x32 PUSH1 0x4 MSTORE PUSH1 0x24 PUSH1 0x0 REVERT JUMPDEST DUP1 SLOAD DUP3 LT ISZERO PUSH2 0x17A1 JUMPI PUSH1 0x0 MSTORE PUSH1 0x20 PUSH1 0x0 KECCAK256 ADD SWAP1 PUSH1 0x0 SWAP1 JUMP JUMPDEST PUSH1 0x60 SWAP1 PUSH1 0x3 NOT ADD SLT PUSH2 0x176B JUMPI PUSH1 0x1 PUSH1 0x1 PUSH1 0xA0 SHL SUB SWAP1 PUSH1 0x4 CALLDATALOAD DUP3 DUP2 AND DUP2 SUB PUSH2 0x176B JUMPI SWAP2 PUSH1 0x24 CALLDATALOAD SWAP1 DUP2 AND DUP2 SUB PUSH2 0x176B JUMPI SWAP1 PUSH1 0x44 CALLDATALOAD SWAP1 JUMP JUMPDEST PUSH1 0x20 DUP2 ADD SWAP1 DUP2 LT PUSH8 0xFFFFFFFFFFFFFFFF DUP3 GT OR PUSH2 0x1820 JUMPI PUSH1 0x40 MSTORE JUMP JUMPDEST PUSH4 0x4E487B71 PUSH1 0xE0 SHL PUSH1 0x0 MSTORE PUSH1 0x41 PUSH1 0x4 MSTORE PUSH1 0x24 PUSH1 0x0 REVERT JUMPDEST SWAP1 PUSH1 0x1F DUP1 NOT SWAP2 ADD AND DUP2 ADD SWAP1 DUP2 LT PUSH8 0xFFFFFFFFFFFFFFFF DUP3 GT OR PUSH2 0x1820 JUMPI PUSH1 0x40 MSTORE JUMP JUMPDEST PUSH8 0xFFFFFFFFFFFFFFFF DUP2 GT PUSH2 0x1820 JUMPI PUSH1 0x1F ADD PUSH1 0x1F NOT AND PUSH1 0x20 ADD SWAP1 JUMP JUMPDEST SWAP3 SWAP2 SWAP3 PUSH2 0x1880 DUP3 PUSH2 0x1858 JUMP JUMPDEST SWAP2 PUSH2 0x188E PUSH1 0x40 MLOAD SWAP4 DUP5 PUSH2 0x1836 JUMP JUMPDEST DUP3 SWAP5 DUP2 DUP5 MSTORE DUP2 DUP4 ADD GT PUSH2 0x176B JUMPI DUP3 DUP2 PUSH1 0x20 SWAP4 DUP5 PUSH1 0x0 SWAP7 ADD CALLDATACOPY ADD ADD MSTORE JUMP JUMPDEST SWAP1 PUSH1 0x1 DUP3 DUP2 SHR SWAP3 AND DUP1 ISZERO PUSH2 0x18DB JUMPI JUMPDEST PUSH1 0x20 DUP4 LT EQ PUSH2 0x18C5 JUMPI JUMP JUMPDEST PUSH4 0x4E487B71 PUSH1 0xE0 SHL PUSH1 0x0 MSTORE PUSH1 0x22 PUSH1 0x4 MSTORE PUSH1 0x24 PUSH1 0x0 REVERT JUMPDEST SWAP2 PUSH1 0x7F AND SWAP2 PUSH2 0x18BA JUMP JUMPDEST ISZERO PUSH2 0x18EC JUMPI JUMP JUMPDEST PUSH1 0x40 MLOAD PUSH3 0x461BCD PUSH1 0xE5 SHL DUP2 MSTORE PUSH1 0x20 PUSH1 0x4 DUP3 ADD MSTORE PUSH1 0x14 PUSH1 0x24 DUP3 ADD MSTORE PUSH20 0x2737BA103A3432903837B634B1BC9037BBB732B9 PUSH1 0x61 SHL PUSH1 0x44 DUP3 ADD MSTORE PUSH1 0x64 SWAP1 REVERT JUMPDEST PUSH1 0x1 PUSH1 0x1 PUSH1 0xA0 SHL SUB SWAP2 DUP3 AND SWAP3 SWAP1 SWAP2 DUP4 ISZERO PUSH2 0x1A9F JUMPI PUSH1 0x0 SWAP3 DUP3 DUP5 MSTORE DUP3 PUSH1 0x20 SWAP6 PUSH1 0x2 DUP8 MSTORE PUSH1 0x40 SWAP7 DUP5 DUP9 DUP9 KECCAK256 SLOAD AND SWAP7 DUP8 SWAP2 CALLER ISZERO ISZERO DUP1 PUSH2 0x1A06 JUMPI JUMPDEST POP SWAP1 PUSH1 0x2 PUSH1 0x0 DUP1 MLOAD PUSH1 0x20 PUSH2 0x1E3C DUP4 CODECOPY DUP2 MLOAD SWAP2 MSTORE SWAP3 DUP5 PUSH2 0x19D3 JUMPI JUMPDEST DUP6 DUP4 MSTORE PUSH1 0x3 DUP2 MSTORE DUP12 DUP4 KECCAK256 DUP1 SLOAD PUSH1 0x1 ADD SWAP1 SSTORE DUP7 DUP4 MSTORE MSTORE DUP10 DUP2 KECCAK256 DUP1 SLOAD PUSH1 0x1 PUSH1 0x1 PUSH1 0xA0 SHL SUB NOT AND DUP6 OR SWAP1 SSTORE DUP1 LOG4 AND SWAP3 DUP4 DUP4 SUB PUSH2 0x19B2 JUMPI POP POP POP POP JUMP JUMPDEST PUSH1 0x64 SWAP5 POP MLOAD SWAP3 PUSH4 0x64283D7B PUSH1 0xE0 SHL DUP5 MSTORE PUSH1 0x4 DUP5 ADD MSTORE PUSH1 0x24 DUP4 ADD MSTORE PUSH1 0x44 DUP3 ADD MSTORE REVERT JUMPDEST PUSH1 0x0 DUP8 DUP2 MSTORE PUSH1 0x4 PUSH1 0x20 MSTORE PUSH1 0x40 SWAP1 KECCAK256 DUP1 SLOAD PUSH1 0x1 PUSH1 0x1 PUSH1 0xA0 SHL SUB NOT AND SWAP1 SSTORE DUP5 DUP4 MSTORE PUSH1 0x3 DUP2 MSTORE DUP12 DUP4 KECCAK256 DUP1 SLOAD PUSH1 0x0 NOT ADD SWAP1 SSTORE PUSH2 0x1979 JUMP JUMPDEST SWAP2 SWAP4 SWAP5 POP SWAP2 POP DUP1 PUSH2 0x1A5E JUMPI JUMPDEST ISZERO PUSH2 0x1A22 JUMPI DUP6 SWAP3 SWAP2 DUP8 SWAP2 CODESIZE PUSH2 0x195F JUMP JUMPDEST DUP8 DUP7 DUP9 PUSH2 0x1A3F JUMPI PUSH1 0x24 SWAP2 MLOAD SWAP1 PUSH4 0x7E273289 PUSH1 0xE0 SHL DUP3 MSTORE PUSH1 0x4 DUP3 ADD MSTORE REVERT JUMPDEST SWAP1 MLOAD PUSH4 0x177E802F PUSH1 0xE0 SHL DUP2 MSTORE CALLER PUSH1 0x4 DUP3 ADD MSTORE PUSH1 0x24 DUP2 ADD SWAP2 SWAP1 SWAP2 MSTORE PUSH1 0x44 SWAP1 REVERT JUMPDEST POP CALLER DUP8 EQ DUP1 ISZERO PUSH2 0x1A83 JUMPI JUMPDEST DUP1 PUSH2 0x1A12 JUMPI POP DUP6 DUP3 MSTORE PUSH1 0x4 DUP2 MSTORE CALLER DUP6 DUP10 DUP5 KECCAK256 SLOAD AND EQ PUSH2 0x1A12 JUMP JUMPDEST POP DUP7 DUP3 MSTORE PUSH1 0x5 DUP2 MSTORE DUP8 DUP3 KECCAK256 CALLER DUP4 MSTORE DUP2 MSTORE PUSH1 0xFF DUP9 DUP4 KECCAK256 SLOAD AND PUSH2 0x1A69 JUMP JUMPDEST PUSH1 0x40 MLOAD PUSH4 0x32505749 PUSH1 0xE1 SHL DUP2 MSTORE PUSH1 0x0 PUSH1 0x4 DUP3 ADD MSTORE PUSH1 0x24 SWAP1 REVERT JUMPDEST ISZERO PUSH2 0x1ABF JUMPI JUMP JUMPDEST PUSH1 0x40 MLOAD PUSH3 0x461BCD PUSH1 0xE5 SHL DUP2 MSTORE PUSH1 0x20 PUSH1 0x4 DUP3 ADD MSTORE PUSH1 0xE PUSH1 0x24 DUP3 ADD MSTORE PUSH14 0x141BDB1A58DE48195E1C1A5C9959 PUSH1 0x92 SHL PUSH1 0x44 DUP3 ADD MSTORE PUSH1 0x64 SWAP1 REVERT JUMPDEST SWAP1 DUP2 PUSH1 0x20 SWAP2 SUB SLT PUSH2 0x176B JUMPI MLOAD DUP1 ISZERO ISZERO DUP2 SUB PUSH2 0x176B JUMPI SWAP1 JUMP JUMPDEST DUP2 DUP2 LT PUSH2 0x1B18 JUMPI POP POP JUMP JUMPDEST PUSH1 0x0 DUP2 SSTORE PUSH1 0x1 ADD PUSH2 0x1B0D JUMP JUMPDEST SWAP2 SWAP1 PUSH1 0x1F DUP2 GT PUSH2 0x1B33 JUMPI POP POP POP JUMP JUMPDEST PUSH2 0x1B5F SWAP3 PUSH1 0x0 MSTORE PUSH1 0x20 PUSH1 0x0 KECCAK256 SWAP1 PUSH1 0x20 PUSH1 0x1F DUP5 ADD PUSH1 0x5 SHR DUP4 ADD SWAP4 LT PUSH2 0x1B61 JUMPI JUMPDEST PUSH1 0x1F ADD PUSH1 0x5 SHR ADD SWAP1 PUSH2 0x1B0D JUMP JUMPDEST JUMP JUMPDEST SWAP1 SWAP2 POP DUP2 SWAP1 PUSH2 0x1B52 JUMP JUMPDEST SWAP1 DUP1 DUP3 EQ PUSH2 0x1C45 JUMPI PUSH2 0x1B7D DUP2 SLOAD PUSH2 0x18AB JUMP JUMPDEST SWAP1 PUSH8 0xFFFFFFFFFFFFFFFF DUP3 GT PUSH2 0x1820 JUMPI PUSH2 0x1B9B DUP3 PUSH2 0x48D DUP6 SLOAD PUSH2 0x18AB JUMP JUMPDEST PUSH1 0x0 SWAP1 PUSH1 0x1F DUP4 GT PUSH1 0x1 EQ PUSH2 0x1BDA JUMPI PUSH2 0x1BCB SWAP3 SWAP2 PUSH1 0x0 SWAP2 DUP4 PUSH2 0x1BCF JUMPI POP POP DUP2 PUSH1 0x1 SHL SWAP2 PUSH1 0x0 NOT SWAP1 PUSH1 0x3 SHL SHR NOT AND OR SWAP1 JUMP JUMPDEST SWAP1 SSTORE JUMP JUMPDEST ADD SLOAD SWAP1 POP CODESIZE DUP1 PUSH2 0x4AB JUMP JUMPDEST DUP2 MSTORE PUSH1 0x20 DUP1 DUP3 KECCAK256 DUP5 DUP4 MSTORE DUP2 DUP4 KECCAK256 SWAP3 SWAP2 PUSH1 0x1F NOT DUP6 AND SWAP1 DUP4 SWAP1 JUMPDEST DUP3 DUP3 LT PUSH2 0x1C2C JUMPI POP POP SWAP1 DUP5 PUSH1 0x1 SWAP6 SWAP5 SWAP4 SWAP3 LT PUSH2 0x1C13 JUMPI JUMPDEST POP POP POP DUP2 SHL ADD SWAP1 SSTORE JUMP JUMPDEST ADD SLOAD PUSH1 0x0 NOT PUSH1 0xF8 DUP5 PUSH1 0x3 SHL AND SHR NOT AND SWAP1 SSTORE CODESIZE DUP1 DUP1 PUSH2 0x1C09 JUMP JUMPDEST DUP5 SWAP6 DUP2 SWAP3 SWAP6 DUP6 ADD SLOAD DUP2 SSTORE PUSH1 0x1 DUP1 SWAP2 ADD SWAP7 ADD SWAP5 ADD SWAP1 PUSH2 0x1BF2 JUMP JUMPDEST POP POP JUMP JUMPDEST PUSH1 0x0 MSTORE PUSH1 0x9 PUSH1 0x20 MSTORE PUSH1 0x40 PUSH1 0x0 KECCAK256 PUSH1 0x2 PUSH1 0x1 DUP3 ADD SLOAD SWAP2 ADD SLOAD DUP2 ADD DUP1 SWAP2 GT PUSH2 0x1C6F JUMPI TIMESTAMP LT ISZERO SWAP1 JUMP JUMPDEST PUSH4 0x4E487B71 PUSH1 0xE0 SHL PUSH1 0x0 MSTORE PUSH1 0x11 PUSH1 0x4 MSTORE PUSH1 0x24 PUSH1 0x0 REVERT JUMPDEST PUSH2 0x1C90 DUP4 DUP4 DUP4 PUSH2 0x1928 JUMP JUMPDEST DUP2 EXTCODESIZE PUSH2 0x1C9D JUMPI JUMPDEST POP POP POP POP JUMP JUMPDEST PUSH1 0x40 MLOAD PUSH4 0xA85BD01 PUSH1 0xE1 SHL DUP1 DUP3 MSTORE CALLER PUSH1 0x4 DUP4 ADD MSTORE PUSH1 0x1 PUSH1 0x1 PUSH1 0xA0 SHL SUB SWAP3 DUP4 AND PUSH1 0x24 DUP4 ADD MSTORE PUSH1 0x44 DUP3 ADD SWAP5 SWAP1 SWAP5 MSTORE PUSH1 0x80 PUSH1 0x64 DUP3 ADD MSTORE PUSH1 0x20 SWAP6 SWAP3 SWAP1 SWAP2 AND SWAP4 SWAP1 SWAP3 SWAP1 DUP4 SWAP1 PUSH2 0x1CEB SWAP1 PUSH1 0x84 DUP4 ADD SWAP1 PUSH2 0x1715 JUMP JUMPDEST SUB SWAP3 DUP6 DUP2 PUSH1 0x0 SWAP6 DUP2 DUP8 DUP10 GAS CALL DUP5 SWAP2 DUP2 PUSH2 0x1D94 JUMPI JUMPDEST POP PUSH2 0x1D5F JUMPI POP POP POP RETURNDATASIZE PUSH1 0x0 EQ PUSH2 0x1D57 JUMPI RETURNDATASIZE PUSH2 0x1D19 DUP2 PUSH2 0x1858 JUMP JUMPDEST SWAP1 PUSH2 0x1D27 PUSH1 0x40 MLOAD SWAP3 DUP4 PUSH2 0x1836 JUMP JUMPDEST DUP2 MSTORE DUP1 SWAP2 DUP5 RETURNDATASIZE SWAP3 ADD RETURNDATACOPY JUMPDEST DUP1 MLOAD SWAP3 DUP4 PUSH2 0x1D52 JUMPI PUSH1 0x40 MLOAD PUSH4 0x32505749 PUSH1 0xE1 SHL DUP2 MSTORE PUSH1 0x4 DUP2 ADD DUP5 SWAP1 MSTORE PUSH1 0x24 SWAP1 REVERT JUMPDEST ADD SWAP1 POP REVERT JUMPDEST POP PUSH1 0x60 PUSH2 0x1D31 JUMP JUMPDEST SWAP2 SWAP5 POP SWAP2 POP PUSH4 0xFFFFFFFF PUSH1 0xE0 SHL AND SUB PUSH2 0x1D7C JUMPI POP CODESIZE DUP1 DUP1 DUP1 PUSH2 0x1C97 JUMP JUMPDEST PUSH1 0x24 SWAP1 PUSH1 0x40 MLOAD SWAP1 PUSH4 0x32505749 PUSH1 0xE1 SHL DUP3 MSTORE PUSH1 0x4 DUP3 ADD MSTORE REVERT JUMPDEST SWAP1 SWAP2 POP DUP7 DUP2 DUP2 RETURNDATASIZE DUP4 GT PUSH2 0x1DCD JUMPI JUMPDEST PUSH2 0x1DAC DUP2 DUP4 PUSH2 0x1836 JUMP JUMPDEST DUP2 ADD SUB SLT PUSH2 0x71D JUMPI MLOAD PUSH1 0x1 PUSH1 0x1 PUSH1 0xE0 SHL SUB NOT DUP2 AND DUP2 SUB PUSH2 0x71D JUMPI SWAP1 CODESIZE PUSH2 0x1CFF JUMP JUMPDEST POP RETURNDATASIZE PUSH2 0x1DA2 JUMP JUMPDEST PUSH1 0x0 DUP2 DUP2 MSTORE PUSH1 0x2 PUSH1 0x20 MSTORE PUSH1 0x40 SWAP1 KECCAK256 SLOAD PUSH1 0x1 PUSH1 0x1 PUSH1 0xA0 SHL SUB AND SWAP1 DUP2 ISZERO PUSH2 0x1DF7 JUMPI POP SWAP1 JUMP JUMPDEST PUSH1 0x24 SWAP1 PUSH1 0x40 MLOAD SWAP1 PUSH4 0x7E273289 PUSH1 0xE0 SHL DUP3 MSTORE PUSH1 0x4 DUP3 ADD MSTORE REVERT JUMPDEST PUSH1 0x6 SLOAD PUSH1 0x1 PUSH1 0x1 PUSH1 0xA0 SHL SUB AND CALLER SUB PUSH2 0x1E23 JUMPI JUMP JUMPDEST PUSH1 0x40 MLOAD PUSH4 0x118CDAA7 PUSH1 0xE0 SHL DUP2 MSTORE CALLER PUSH1 0x4 DUP3 ADD MSTORE PUSH1 0x24 SWAP1 REVERT INVALID 0xDD CALLCODE MSTORE 0xAD SHL 0xE2 0xC8 SWAP12 PUSH10 0xC2B068FC378DAA952BA7 CALL PUSH4 0xC4A11628 CREATE2 GAS 0x4D CREATE2 0x23 0xB3 0xEF LOG2 PUSH5 0x6970667358 0x22 SLT KECCAK256 0xD8 0xC6 0xBB SAR 0xE8 0xC3 0x2F 0x27 0xC3 SAR MSIZE 0xD3 0xDB ADD 0xAA 0xCD 0xCE LOG0 0xE DUP12 CALLCODE GASPRICE PC 0xF PUSH16 0xF662F6E90810464736F6C6343000818 STOP CALLER "},"methodIdentifiers":{"DURATION()":"1be05289","addAdmin(address)":"70480275","adminList(uint256)":"11117fc8","admins(address)":"429b62e5","approve(address,uint256)":"095ea7b3","approveClaim(uint256)":"46e30135","balanceOf(address)":"70a08231","buyPolicy(string,uint256,uint256)":"da456933","checkExpiration(uint256)":"723931ca","getAllAdmins()":"e9523c97","getApproved(uint256)":"081812fc","isAdmin(address)":"24d7806c","isApprovedForAll(address,address)":"e985e9c5","name()":"06fdde03","owner()":"8da5cb5b","ownerOf(uint256)":"6352211e","policies(uint256)":"d3e89483","policyCounter()":"d52c1bea","removeAdmin(address)":"1785f53c","renounceOwnership()":"715018a6","safeTransferFrom(address,address,uint256)":"42842e0e","safeTransferFrom(address,address,uint256,bytes)":"b88d4fde","setApprovalForAll(address,bool)":"a22cb465","setUSDC(address)":"b3e089a2","submitClaim(uint256)":"6aa14a96","supportsInterface(bytes4)":"01ffc9a7","symbol()":"95d89b41","tokenURI(uint256)":"c87b56dd","transferFrom(address,address,uint256)":"23b872dd","transferOwnership(address)":"f2fde38b","transferPolicy(address,uint256)":"0a6fcdad","usdcToken()":"11eac855","userPolicies(address,uint256)":"3d36adc5"}}}}}