{
  "_format": "hh-sol-artifact-1",
  "contractName": "InsurancePolicy",
  "sourceName": "contracts/POLICYS.sol",
  "abi": [
    {
      "inputs": [],
      "stateMutability": "nonpayable",
      "type": "constructor"
    },
    {
      "inputs": [
        {
          "internalType": "address",
          "name": "sender",
          "type": "address"
        },
        {
          "internalType": "uint256",
          "name": "tokenId",
          "type": "uint256"
        },
        {
          "internalType": "address",
          "name": "owner",
          "type": "address"
        }
      ],
      "name": "ERC721IncorrectOwner",
      "type": "error"
    },
    {
      "inputs": [
        {
          "internalType": "address",
          "name": "operator",
          "type": "address"
        },
        {
          "internalType": "uint256",
          "name": "tokenId",
          "type": "uint256"
        }
      ],
      "name": "ERC721InsufficientApproval",
      "type": "error"
    },
    {
      "inputs": [
        {
          "internalType": "address",
          "name": "approver",
          "type": "address"
        }
      ],
      "name": "ERC721InvalidApprover",
      "type": "error"
    },
    {
      "inputs": [
        {
          "internalType": "address",
          "name": "operator",
          "type": "address"
        }
      ],
      "name": "ERC721InvalidOperator",
      "type": "error"
    },
    {
      "inputs": [
        {
          "internalType": "address",
          "name": "owner",
          "type": "address"
        }
      ],
      "name": "ERC721InvalidOwner",
      "type": "error"
    },
    {
      "inputs": [
        {
          "internalType": "address",
          "name": "receiver",
          "type": "address"
        }
      ],
      "name": "ERC721InvalidReceiver",
      "type": "error"
    },
    {
      "inputs": [
        {
          "internalType": "address",
          "name": "sender",
          "type": "address"
        }
      ],
      "name": "ERC721InvalidSender",
      "type": "error"
    },
    {
      "inputs": [
        {
          "internalType": "uint256",
          "name": "tokenId",
          "type": "uint256"
        }
      ],
      "name": "ERC721NonexistentToken",
      "type": "error"
    },
    {
      "inputs": [
        {
          "internalType": "address",
          "name": "owner",
          "type": "address"
        }
      ],
      "name": "OwnableInvalidOwner",
      "type": "error"
    },
    {
      "inputs": [
        {
          "internalType": "address",
          "name": "account",
          "type": "address"
        }
      ],
      "name": "OwnableUnauthorizedAccount",
      "type": "error"
    },
    {
      "anonymous": false,
      "inputs": [
        {
          "indexed": true,
          "internalType": "address",
          "name": "owner",
          "type": "address"
        },
        {
          "indexed": true,
          "internalType": "address",
          "name": "approved",
          "type": "address"
        },
        {
          "indexed": true,
          "internalType": "uint256",
          "name": "tokenId",
          "type": "uint256"
        }
      ],
      "name": "Approval",
      "type": "event"
    },
    {
      "anonymous": false,
      "inputs": [
        {
          "indexed": true,
          "internalType": "address",
          "name": "owner",
          "type": "address"
        },
        {
          "indexed": true,
          "internalType": "address",
          "name": "operator",
          "type": "address"
        },
        {
          "indexed": false,
          "internalType": "bool",
          "name": "approved",
          "type": "bool"
        }
      ],
      "name": "ApprovalForAll",
      "type": "event"
    },
    {
      "anonymous": false,
      "inputs": [
        {
          "indexed": true,
          "internalType": "uint256",
          "name": "policyId",
          "type": "uint256"
        }
      ],
      "name": "ClaimApproved",
      "type": "event"
    },
    {
      "anonymous": false,
      "inputs": [
        {
          "indexed": true,
          "internalType": "uint256",
          "name": "policyId",
          "type": "uint256"
        }
      ],
      "name": "ClaimSubmitted",
      "type": "event"
    },
    {
      "anonymous": false,
      "inputs": [
        {
          "indexed": true,
          "internalType": "address",
          "name": "previousOwner",
          "type": "address"
        },
        {
          "indexed": true,
          "internalType": "address",
          "name": "newOwner",
          "type": "address"
        }
      ],
      "name": "OwnershipTransferred",
      "type": "event"
    },
    {
      "anonymous": false,
      "inputs": [
        {
          "indexed": true,
          "internalType": "address",
          "name": "user",
          "type": "address"
        },
        {
          "indexed": true,
          "internalType": "uint256",
          "name": "policyId",
          "type": "uint256"
        },
        {
          "indexed": false,
          "internalType": "uint256",
          "name": "amount",
          "type": "uint256"
        }
      ],
      "name": "PolicyPurchased",
      "type": "event"
    },
    {
      "anonymous": false,
      "inputs": [
        {
          "indexed": true,
          "internalType": "address",
          "name": "from",
          "type": "address"
        },
        {
          "indexed": true,
          "internalType": "address",
          "name": "to",
          "type": "address"
        },
        {
          "indexed": true,
          "internalType": "uint256",
          "name": "tokenId",
          "type": "uint256"
        }
      ],
      "name": "Transfer",
      "type": "event"
    },
    {
      "inputs": [],
      "name": "DURATION",
      "outputs": [
        {
          "internalType": "uint256",
          "name": "",
          "type": "uint256"
        }
      ],
      "stateMutability": "view",
      "type": "function"
    },
    {
      "inputs": [
        {
          "internalType": "address",
          "name": "to",
          "type": "address"
        },
        {
          "internalType": "uint256",
          "name": "tokenId",
          "type": "uint256"
        }
      ],
      "name": "approve",
      "outputs": [],
      "stateMutability": "nonpayable",
      "type": "function"
    },
    {
      "inputs": [
        {
          "internalType": "uint256",
          "name": "policyId",
          "type": "uint256"
        }
      ],
      "name": "approveClaim",
      "outputs": [],
      "stateMutability": "nonpayable",
      "type": "function"
    },
    {
      "inputs": [
        {
          "internalType": "address",
          "name": "owner",
          "type": "address"
        }
      ],
      "name": "balanceOf",
      "outputs": [
        {
          "internalType": "uint256",
          "name": "",
          "type": "uint256"
        }
      ],
      "stateMutability": "view",
      "type": "function"
    },
    {
      "inputs": [
        {
          "internalType": "string",
          "name": "name",
          "type": "string"
        },
        {
          "internalType": "uint256",
          "name": "amount",
          "type": "uint256"
        },
        {
          "internalType": "uint256",
          "name": "duration",
          "type": "uint256"
        }
      ],
      "name": "buyPolicy",
      "outputs": [],
      "stateMutability": "nonpayable",
      "type": "function"
    },
    {
      "inputs": [
        {
          "internalType": "uint256",
          "name": "policyId",
          "type": "uint256"
        }
      ],
      "name": "checkExpiration",
      "outputs": [
        {
          "internalType": "bool",
          "name": "",
          "type": "bool"
        }
      ],
      "stateMutability": "view",
      "type": "function"
    },
    {
      "inputs": [
        {
          "internalType": "uint256",
          "name": "tokenId",
          "type": "uint256"
        }
      ],
      "name": "getApproved",
      "outputs": [
        {
          "internalType": "address",
          "name": "",
          "type": "address"
        }
      ],
      "stateMutability": "view",
      "type": "function"
    },
    {
      "inputs": [
        {
          "internalType": "address",
          "name": "owner",
          "type": "address"
        },
        {
          "internalType": "address",
          "name": "operator",
          "type": "address"
        }
      ],
      "name": "isApprovedForAll",
      "outputs": [
        {
          "internalType": "bool",
          "name": "",
          "type": "bool"
        }
      ],
      "stateMutability": "view",
      "type": "function"
    },
    {
      "inputs": [],
      "name": "name",
      "outputs": [
        {
          "internalType": "string",
          "name": "",
          "type": "string"
        }
      ],
      "stateMutability": "view",
      "type": "function"
    },
    {
      "inputs": [],
      "name": "owner",
      "outputs": [
        {
          "internalType": "address",
          "name": "",
          "type": "address"
        }
      ],
      "stateMutability": "view",
      "type": "function"
    },
    {
      "inputs": [
        {
          "internalType": "uint256",
          "name": "tokenId",
          "type": "uint256"
        }
      ],
      "name": "ownerOf",
      "outputs": [
        {
          "internalType": "address",
          "name": "",
          "type": "address"
        }
      ],
      "stateMutability": "view",
      "type": "function"
    },
    {
      "inputs": [
        {
          "internalType": "uint256",
          "name": "",
          "type": "uint256"
        }
      ],
      "name": "policies",
      "outputs": [
        {
          "internalType": "uint256",
          "name": "amount",
          "type": "uint256"
        },
        {
          "internalType": "uint256",
          "name": "startDate",
          "type": "uint256"
        },
        {
          "internalType": "uint256",
          "name": "duration",
          "type": "uint256"
        },
        {
          "internalType": "bool",
          "name": "isClaimed",
          "type": "bool"
        },
        {
          "internalType": "bool",
          "name": "isExpired",
          "type": "bool"
        },
        {
          "internalType": "string",
          "name": "name",
          "type": "string"
        }
      ],
      "stateMutability": "view",
      "type": "function"
    },
    {
      "inputs": [],
      "name": "policyCounter",
      "outputs": [
        {
          "internalType": "uint256",
          "name": "",
          "type": "uint256"
        }
      ],
      "stateMutability": "view",
      "type": "function"
    },
    {
      "inputs": [],
      "name": "renounceOwnership",
      "outputs": [],
      "stateMutability": "nonpayable",
      "type": "function"
    },
    {
      "inputs": [
        {
          "internalType": "address",
          "name": "from",
          "type": "address"
        },
        {
          "internalType": "address",
          "name": "to",
          "type": "address"
        },
        {
          "internalType": "uint256",
          "name": "tokenId",
          "type": "uint256"
        }
      ],
      "name": "safeTransferFrom",
      "outputs": [],
      "stateMutability": "nonpayable",
      "type": "function"
    },
    {
      "inputs": [
        {
          "internalType": "address",
          "name": "from",
          "type": "address"
        },
        {
          "internalType": "address",
          "name": "to",
          "type": "address"
        },
        {
          "internalType": "uint256",
          "name": "tokenId",
          "type": "uint256"
        },
        {
          "internalType": "bytes",
          "name": "data",
          "type": "bytes"
        }
      ],
      "name": "safeTransferFrom",
      "outputs": [],
      "stateMutability": "nonpayable",
      "type": "function"
    },
    {
      "inputs": [
        {
          "internalType": "address",
          "name": "operator",
          "type": "address"
        },
        {
          "internalType": "bool",
          "name": "approved",
          "type": "bool"
        }
      ],
      "name": "setApprovalForAll",
      "outputs": [],
      "stateMutability": "nonpayable",
      "type": "function"
    },
    {
      "inputs": [
        {
          "internalType": "address",
          "name": "_USDCaddress",
          "type": "address"
        }
      ],
      "name": "setUSDC",
      "outputs": [],
      "stateMutability": "nonpayable",
      "type": "function"
    },
    {
      "inputs": [
        {
          "internalType": "uint256",
          "name": "policyId",
          "type": "uint256"
        }
      ],
      "name": "submitClaim",
      "outputs": [],
      "stateMutability": "nonpayable",
      "type": "function"
    },
    {
      "inputs": [
        {
          "internalType": "bytes4",
          "name": "interfaceId",
          "type": "bytes4"
        }
      ],
      "name": "supportsInterface",
      "outputs": [
        {
          "internalType": "bool",
          "name": "",
          "type": "bool"
        }
      ],
      "stateMutability": "view",
      "type": "function"
    },
    {
      "inputs": [],
      "name": "symbol",
      "outputs": [
        {
          "internalType": "string",
          "name": "",
          "type": "string"
        }
      ],
      "stateMutability": "view",
      "type": "function"
    },
    {
      "inputs": [
        {
          "internalType": "uint256",
          "name": "tokenId",
          "type": "uint256"
        }
      ],
      "name": "tokenURI",
      "outputs": [
        {
          "internalType": "string",
          "name": "",
          "type": "string"
        }
      ],
      "stateMutability": "view",
      "type": "function"
    },
    {
      "inputs": [
        {
          "internalType": "address",
          "name": "from",
          "type": "address"
        },
        {
          "internalType": "address",
          "name": "to",
          "type": "address"
        },
        {
          "internalType": "uint256",
          "name": "tokenId",
          "type": "uint256"
        }
      ],
      "name": "transferFrom",
      "outputs": [],
      "stateMutability": "nonpayable",
      "type": "function"
    },
    {
      "inputs": [
        {
          "internalType": "address",
          "name": "newOwner",
          "type": "address"
        }
      ],
      "name": "transferOwnership",
      "outputs": [],
      "stateMutability": "nonpayable",
      "type": "function"
    },
    {
      "inputs": [
        {
          "internalType": "address",
          "name": "to",
          "type": "address"
        },
        {
          "internalType": "uint256",
          "name": "policyId",
          "type": "uint256"
        }
      ],
      "name": "transferPolicy",
      "outputs": [],
      "stateMutability": "nonpayable",
      "type": "function"
    },
    {
      "inputs": [],
      "name": "usdcToken",
      "outputs": [
        {
          "internalType": "contract IERC20",
          "name": "",
          "type": "address"
        }
      ],
      "stateMutability": "view",
      "type": "function"
    },
    {
      "inputs": [
        {
          "internalType": "address",
          "name": "",
          "type": "address"
        },
        {
          "internalType": "uint256",
          "name": "",
          "type": "uint256"
        }
      ],
      "name": "userPolicies",
      "outputs": [
        {
          "internalType": "uint256",
          "name": "",
          "type": "uint256"
        }
      ],
      "stateMutability": "view",
      "type": "function"
    }
  ],
  "bytecode": "0x608034620003a2576001600160401b03906040818101838111838210176200038c5781526012825260209171125b9cdd5c985b98d9541bdb1a58de53919560721b83820152815193828501858110828211176200038c5783526005855264125413919560da1b8486015281518181116200038c576000948554916001948584811c9416801562000381575b838510146200036d578190601f948581116200031a575b508390858311600114620002b6578992620002aa575b5050600019600383901b1c191690851b1786555b8651928311620002965783548481811c911680156200028b575b8282101462000277578281116200022f575b5080918311600114620001c8575084958293949592620001bc575b5050600019600383901b1c191690821b1790555b3315620001a45760068054336001600160a01b0319808316821790935592519373036cbd53842c5426634e7929541ec2318f3dcf7e93916001600160a01b0316907f8be0079c531659141344cd1fd0a4f28419497f9722a3daafe3b4186f6b6457e09080a3600a8055600b541617600b55611a679081620003a88239f35b51631e4fbdf760e01b81526004810191909152602490fd5b01519050388062000112565b90601f198316968487528287209287905b89821062000217575050838596979810620001fd575b505050811b01905562000126565b015160001960f88460031b161c19169055388080620001ef565b808785968294968601518155019501930190620001d9565b8487528187208380860160051c8201928487106200026d575b0160051c019085905b82811062000261575050620000f7565b88815501859062000251565b9250819262000248565b634e487b7160e01b87526022600452602487fd5b90607f1690620000e5565b634e487b7160e01b86526041600452602486fd5b015190503880620000b7565b898052848a208894509190601f1984168b5b87828210620003035750508411620002e9575b505050811b018655620000cb565b015160001960f88460031b161c19169055388080620002db565b8385015186558b97909501949384019301620002c8565b9091508880528389208580850160051c82019286861062000363575b918991869594930160051c01915b82811062000354575050620000a1565b8b815585945089910162000344565b9250819262000336565b634e487b7160e01b88526022600452602488fd5b93607f16936200008a565b634e487b7160e01b600052604160045260246000fd5b600080fdfe6080604081815260048036101561001557600080fd5b600092833560e01c90816301ffc9a71461129a5750806306fdde0314611207578063081812fc146111cc578063095ea7b3146110f05780630a6fcdad146110ad57806311eac855146110845780631be052891461106557806323b872dd1461104d5780633d36adc514610ff757806342842e0e14610fce57806346e3013514610c1e5780636352211e14610bed5780636aa14a9614610abe57806370a0823114610a69578063715018a614610a0c578063723931ca146109e35780638da5cb5b146109ba57806395d89b41146108ed578063a22cb46514610842578063b3e089a2146107fa578063b88d4fde14610796578063c87b56dd14610747578063d3e8948314610636578063d52c1bea14610617578063da4569331461022a578063e985e9c5146101d85763f2fde38b1461014c57600080fd5b346101d45760203660031901126101d457610165611346565b9061016e6119e5565b6001600160a01b039182169283156101be575050600680546001600160a01b031981168417909155167f8be0079c531659141344cd1fd0a4f28419497f9722a3daafe3b4186f6b6457e08380a380f35b51631e4fbdf760e01b8152908101849052602490fd5b8280fd5b50503461022657806003193601126102265760ff816020936101f8611346565b610200611361565b6001600160a01b0391821683526005875283832091168252855220549151911615158152f35b5080fd5b50346101d45760603660031901126101d45780359167ffffffffffffffff9182841161061357366023850112156106135761026f60249436908681850135910161144a565b9380359384156105d257908693929160018060a01b039687600b54168551906323b872dd60e01b8252338683015230858301528860448301528160648160209a8b945af180156105c85761059b575b506009549760001991828a1461058957600193848b01600955875160c081018181108382111761057757906103688b8f8f908f8d968f5285528d838601904282528087019260443584526007606089019682885260808a019683885260a08b019d8e528352522095518655518b8601555160028501556103516003850192511515839060ff801983541691151516179055565b51815461ff00191690151560081b61ff0016179055565b01915190815190811161056557610389816103838554611481565b856116fa565b898d601f831160011461050857906103b693836104fd575b50508160011b916000199060031b1c19161790565b90555b33156104e7578890818b5260028852868b20541680151592836104b5575b5033808c5260038952878c20805486019055828c5260028952878c2080546001600160a01b0319168217905590600080516020611a128339815191528c80a46104a0573388526008855283882091825493600160401b85101561048f57505061046c836104859389937fe3a4e855ca574024873a64ada77dfdb7f1342b982fbfe29edf24be638f20d3989897960181556113ac565b90919082549060031b91821b91600019901b1916179055565b519283523392a380f35b634e487b7160e01b8a526041905288fd5b5091516339e3563760e11b8152908101869052fd5b600083815260046020526040902080546001600160a01b0319169055818c5260038952878c20908154019055386103d7565b8551633250574960e11b81528086018b90528490fd5b0151905038806103a1565b908793601f1984168684528d80852094905b82821061054e5750508411610537575b505050811b0190556103b9565b01518660f88460031b161c1916905538808061052a565b8385015186558b979095019493840193018e61051a565b634e487b7160e01b8d5260418852868dfd5b634e487b7160e01b8e5260418952878efd5b634e487b7160e01b8b5260118652848bfd5b6105ba90873d89116105c1575b6105b2818361140c565b8101906116cb565b50386102be565b503d6105a8565b86513d8c823e3d90fd5b5060209081606494519362461bcd60e51b85528401528201527f416d6f756e74206d7573742062652067726561746572207468616e207a65726f6044820152fd5b8480fd5b5050346102265781600319360112610226576020906009549051908152f35b5082903461022657602092836003193601126101d4578135835260078452808320805492600192600183015460028401549260038501549401888351968983549361068085611481565b808b52946001811690811561072357506001146106e8575b838b6106e48c8f8d8d8d8d6106b18660ff96038761140c565b815198899889528801528601528181161515606086015260081c161515608084015260c060a084015260c0830190611306565b0390f35b908094939b50528983205b828410610710575050508501909601958088866106e460ff610698565b80548985018c0152928a019281016106f3565b60ff1916858c01525050505090151560051b86010196508088866106e460ff610698565b50919034610226576020366003190112610226576107686106e493356119aa565b50818151610775816113da565b52805191610782836113da565b825251918291602083526020830190611306565b838234610226576080366003190112610226576107b1611346565b6107b9611361565b9060643567ffffffffffffffff81116106135736602382011215610613576107f7938160246107ed9336930135910161144a565b916044359161185b565b80f35b833461083f57602036600319011261083f57610814611346565b61081c6119e5565b600b80546001600160a01b0319166001600160a01b039290921691909117905580f35b80fd5b5090346101d457806003193601126101d45761085c611346565b90602435801515928382036108e9576001600160a01b03169384156108d257506108a59033865260056020528286208587526020528286209060ff801983541691151516179055565b519081527f17307eab39ab6107e8899845ad3d59bd9653f200f220920489ca2b5937696c3160203392a380f35b8251630b61174360e31b8152908101859052602490fd5b8580fd5b82843461083f578060031936011261083f5781519182826001936001549461091486611481565b9182855260209687600182169182600014610993575050600114610955575b5050506106e4929161094691038561140c565b51928284938452830190611306565b9190869350600183528383205b82841061097b57505050820101816109466106e4610933565b8054848a018601528895508794909301928101610962565b60ff19168782015293151560051b8601909301935084925061094691506106e49050610933565b50503461022657816003193601126102265760065490516001600160a01b039091168152602090f35b50913461083f57602036600319011261083f5750610a036020923561181f565b90519015158152f35b833461083f578060031936011261083f57610a256119e5565b600680546001600160a01b0319811690915581906001600160a01b03167f8be0079c531659141344cd1fd0a4f28419497f9722a3daafe3b4186f6b6457e08280a380f35b50913461083f57602036600319011261083f576001600160a01b03610a8c611346565b16928315610aa95750806020938392526003845220549051908152f35b91516322718ad960e21b815291820152602490fd5b5090346101d457602080600319360112610be9578235926001610ae08561181f565b151503610bae57610b03610af3856119aa565b6001600160a01b031633146114bb565b8385526007825260ff6003848720015416610b735750906007600392848652818152610b3a60ff85858920015460081c161561168e565b84865252832001805460ff191660011790557f9936a1a62c48173d9bbe9f13a0665f489585f9b2bb59a6747ce90c5d48272d358280a280f35b915162461bcd60e51b815291820152601760248201527610db185a5b48185b1c9958591e481cdd589b5a5d1d1959604a1b6044820152606490fd5b915162461bcd60e51b815291820152601760248201527645787069726174696f6e206d757374206265207472756560481b6044820152606490fd5b8380fd5b50913461083f57602036600319011261083f5750610c0d602092356119aa565b90516001600160a01b039091168152f35b5090346101d45760209182600319360112610be957803592610c3e6119e5565b83855260078152600360ff8185882001541615610f975784865260078252610c7160ff82868920015460081c161561168e565b610c7a856119aa565b600b548688526007845285882054865163a9059cbb60e01b81526001600160a01b03848116888301908152602081019390935293979395929091839183918290036040019082908d908a165af18015610f8d57610f70575b508688526002815283828920541687898215928315610f3e575b8282526002855285822080546001600160a01b0319169055600080516020611a128339815191528280a4610f27576009546000199490858101908111610ea757895260078252828920888a52838a2087828203610eba575b505050600954858101908111610ea757895260078252828920968988558987600199826001820155826002820155828882015501610d828154611481565b80610e6b575b5050506009548015610e58578601600955168852600890528620805490875b828110610dd8575b88887fd2d0ed0cccc8615643ade1eff3929a29ed8df75ebca85a3996e311c9b69e22898280a280f35b87610de382846113ac565b905490861b1c14610df5578601610da7565b939550919385820193918411610e45575090610e29839261046c610e1c610e2e96856113ac565b905490881b1c91846113ac565b6113ac565b81939154921b1b1916905538808080808080610daf565b634e487b7160e01b885260119052602487fd5b634e487b7160e01b8b526011885260248bfd5b82601f8211600114610e83575050555b893880610d88565b9091808252610ea0601f888420940160051c8401600185016116e3565b5555610e7b565b634e487b7160e01b8a526011875260248afd5b8083610f1f945484556001810154600185015560028101546002850155610f1789850160ff8b8401610efb82825416849060ff801983541691151516179055565b5460081c1661ff00825491151560081b169061ff001916179055565b019101611741565b388087610d44565b8151637e27328960e01b8152808601889052602490fd5b600083815260046020526040902080546001600160a01b03191690558082528685528582208054600019019055610cec565b610f8690823d84116105c1576105b2818361140c565b5038610cd2565b83513d8b823e3d90fd5b50606492519162461bcd60e51b8352820152601360248201527210db185a5b481b9bdd081cdd589b5a5d1d1959606a1b6044820152fd5b505034610226576107f790610fe236611377565b91925192610fef846113da565b85845261185b565b505034610226578060031936011261022657611011611346565b6001600160a01b0316825260086020528082208054602435939084101561083f575060209261103f916113ac565b91905490519160031b1c8152f35b833461083f576107f761105f36611377565b916114fe565b505034610226578160031936011261022657602090600a549051908152f35b505034610226578160031936011261022657600b5490516001600160a01b039091168152602090f35b5050346102265780600319360112610226576107f7906110cb611346565b90602435906110dc610af3836119aa565b51916110e7836113da565b8483523361185b565b5090346101d457806003193601126101d45761110a611346565b91602435611117816119aa565b331515806111b9575b80611190575b61117a576001600160a01b039485169482918691167f8c5be1e5ebec7d5bd14f71427d1e84f3dd0314c0f7b2291e5b200ac8c7c3b9258880a48452602052822080546001600160a01b031916909117905580f35b835163a9fbf51f60e01b81523381850152602490fd5b506001600160a01b03811686526005602090815284872033885290528386205460ff1615611126565b506001600160a01b038116331415611120565b50346101d45760203660031901126101d4579182602093356111ed816119aa565b50825283528190205490516001600160a01b039091168152f35b82843461083f578060031936011261083f578151918282835461122981611481565b908184526020956001918760018216918260001461099357505060011461125d575050506106e4929161094691038561140c565b91908693508280528383205b82841061128257505050820101816109466106e4610933565b8054848a018601528895508794909301928101611269565b925050346101d45760203660031901126101d4573563ffffffff60e01b81168091036101d457602092506380ac58cd60e01b81149081156112f5575b81156112e4575b5015158152f35b6301ffc9a760e01b149050386112dd565b635b5e139f60e01b811491506112d6565b919082519283825260005b848110611332575050826000602080949584010152601f8019910116010190565b602081830181015184830182015201611311565b600435906001600160a01b038216820361135c57565b600080fd5b602435906001600160a01b038216820361135c57565b606090600319011261135c576001600160a01b0390600435828116810361135c5791602435908116810361135c579060443590565b80548210156113c45760005260206000200190600090565b634e487b7160e01b600052603260045260246000fd5b6020810190811067ffffffffffffffff8211176113f657604052565b634e487b7160e01b600052604160045260246000fd5b90601f8019910116810190811067ffffffffffffffff8211176113f657604052565b67ffffffffffffffff81116113f657601f01601f191660200190565b9291926114568261142e565b91611464604051938461140c565b82948184528183011161135c578281602093846000960137010152565b90600182811c921680156114b1575b602083101461149b57565b634e487b7160e01b600052602260045260246000fd5b91607f1691611490565b156114c257565b60405162461bcd60e51b81526020600482015260146024820152732737ba103a3432903837b634b1bc9037bbb732b960611b6044820152606490fd5b6001600160a01b039182169290918315611675576000928284528260209560028752604096848888205416968791331515806115dc575b50906002600080516020611a1283398151915292846115a9575b858352600381528b8320805460010190558683525289812080546001600160a01b0319168517905580a416928383036115885750505050565b6064945051926364283d7b60e01b8452600484015260248301526044820152fd5b600087815260046020526040902080546001600160a01b0319169055848352600381528b8320805460001901905561154f565b91939450915080611634575b156115f857859291879138611535565b878688611615576024915190637e27328960e01b82526004820152fd5b905163177e802f60e01b81523360048201526024810191909152604490fd5b503387148015611659575b806115e857508582526004815233858984205416146115e8565b5086825260058152878220338352815260ff888320541661163f565b604051633250574960e11b815260006004820152602490fd5b1561169557565b60405162461bcd60e51b815260206004820152600e60248201526d141bdb1a58de48195e1c1a5c995960921b6044820152606490fd5b9081602091031261135c5751801515810361135c5790565b8181106116ee575050565b600081556001016116e3565b9190601f811161170957505050565b611735926000526020600020906020601f840160051c83019310611737575b601f0160051c01906116e3565b565b9091508190611728565b9080821461181b576117538154611481565b9067ffffffffffffffff82116113f657611771826103838554611481565b600090601f83116001146117b0576117a19291600091836117a55750508160011b916000199060031b1c19161790565b9055565b0154905038806103a1565b815260208082208483528183209291601f1985169083905b8282106118025750509084600195949392106117e9575b505050811b019055565b015460001960f88460031b161c191690553880806117df565b84958192958501548155600180910196019401906117c8565b5050565b600052600760205260406000206002600182015491015481018091116118455742101590565b634e487b7160e01b600052601160045260246000fd5b6118668383836114fe565b813b611873575b50505050565b604051630a85bd0160e11b8082523360048301526001600160a01b039283166024830152604482019490945260806064820152602095929091169390929083906118c1906084830190611306565b039285816000958187895af184918161196a575b50611935575050503d60001461192d573d6118ef8161142e565b906118fd604051928361140c565b81528091843d92013e5b8051928361192857604051633250574960e11b815260048101849052602490fd5b019050fd5b506060611907565b919450915063ffffffff60e01b160361195257503880808061186d565b60249060405190633250574960e11b82526004820152fd5b9091508681813d83116119a3575b611982818361140c565b8101031261061357516001600160e01b0319811681036106135790386118d5565b503d611978565b6000818152600260205260409020546001600160a01b03169081156119cd575090565b60249060405190637e27328960e01b82526004820152fd5b6006546001600160a01b031633036119f957565b60405163118cdaa760e01b8152336004820152602490fdfeddf252ad1be2c89b69c2b068fc378daa952ba7f163c4a11628f55a4df523b3efa264697066735822122057a38504c2330d2b8115735744d6948f315695d87fdea22d084c7dcbb5d7798e64736f6c63430008180033",
  "linkReferences": {},
  "deployedLinkReferences": {}
}