{
  "_format": "hh-sol-artifact-1",
  "contractName": "InsurancePolicy",
  "sourceName": "contracts/POLICYS.sol",
  "abi": [
    {
      "inputs": [],
      "stateMutability": "nonpayable",
      "type": "constructor"
    },
    {
      "inputs": [
        {
          "internalType": "address",
          "name": "sender",
          "type": "address"
        },
        {
          "internalType": "uint256",
          "name": "tokenId",
          "type": "uint256"
        },
        {
          "internalType": "address",
          "name": "owner",
          "type": "address"
        }
      ],
      "name": "ERC721IncorrectOwner",
      "type": "error"
    },
    {
      "inputs": [
        {
          "internalType": "address",
          "name": "operator",
          "type": "address"
        },
        {
          "internalType": "uint256",
          "name": "tokenId",
          "type": "uint256"
        }
      ],
      "name": "ERC721InsufficientApproval",
      "type": "error"
    },
    {
      "inputs": [
        {
          "internalType": "address",
          "name": "approver",
          "type": "address"
        }
      ],
      "name": "ERC721InvalidApprover",
      "type": "error"
    },
    {
      "inputs": [
        {
          "internalType": "address",
          "name": "operator",
          "type": "address"
        }
      ],
      "name": "ERC721InvalidOperator",
      "type": "error"
    },
    {
      "inputs": [
        {
          "internalType": "address",
          "name": "owner",
          "type": "address"
        }
      ],
      "name": "ERC721InvalidOwner",
      "type": "error"
    },
    {
      "inputs": [
        {
          "internalType": "address",
          "name": "receiver",
          "type": "address"
        }
      ],
      "name": "ERC721InvalidReceiver",
      "type": "error"
    },
    {
      "inputs": [
        {
          "internalType": "address",
          "name": "sender",
          "type": "address"
        }
      ],
      "name": "ERC721InvalidSender",
      "type": "error"
    },
    {
      "inputs": [
        {
          "internalType": "uint256",
          "name": "tokenId",
          "type": "uint256"
        }
      ],
      "name": "ERC721NonexistentToken",
      "type": "error"
    },
    {
      "inputs": [
        {
          "internalType": "address",
          "name": "owner",
          "type": "address"
        }
      ],
      "name": "OwnableInvalidOwner",
      "type": "error"
    },
    {
      "inputs": [
        {
          "internalType": "address",
          "name": "account",
          "type": "address"
        }
      ],
      "name": "OwnableUnauthorizedAccount",
      "type": "error"
    },
    {
      "anonymous": false,
      "inputs": [
        {
          "indexed": true,
          "internalType": "address",
          "name": "owner",
          "type": "address"
        },
        {
          "indexed": true,
          "internalType": "address",
          "name": "approved",
          "type": "address"
        },
        {
          "indexed": true,
          "internalType": "uint256",
          "name": "tokenId",
          "type": "uint256"
        }
      ],
      "name": "Approval",
      "type": "event"
    },
    {
      "anonymous": false,
      "inputs": [
        {
          "indexed": true,
          "internalType": "address",
          "name": "owner",
          "type": "address"
        },
        {
          "indexed": true,
          "internalType": "address",
          "name": "operator",
          "type": "address"
        },
        {
          "indexed": false,
          "internalType": "bool",
          "name": "approved",
          "type": "bool"
        }
      ],
      "name": "ApprovalForAll",
      "type": "event"
    },
    {
      "anonymous": false,
      "inputs": [
        {
          "indexed": true,
          "internalType": "address",
          "name": "buyer",
          "type": "address"
        },
        {
          "indexed": true,
          "internalType": "uint256",
          "name": "policyId",
          "type": "uint256"
        }
      ],
      "name": "ClaimApproved",
      "type": "event"
    },
    {
      "anonymous": false,
      "inputs": [
        {
          "indexed": true,
          "internalType": "address",
          "name": "buyer",
          "type": "address"
        },
        {
          "indexed": true,
          "internalType": "uint256",
          "name": "policyId",
          "type": "uint256"
        }
      ],
      "name": "ClaimDenied",
      "type": "event"
    },
    {
      "anonymous": false,
      "inputs": [
        {
          "indexed": true,
          "internalType": "address",
          "name": "buyer",
          "type": "address"
        },
        {
          "indexed": true,
          "internalType": "uint256",
          "name": "policyId",
          "type": "uint256"
        }
      ],
      "name": "ClaimSubmitted",
      "type": "event"
    },
    {
      "anonymous": false,
      "inputs": [
        {
          "indexed": true,
          "internalType": "address",
          "name": "previousOwner",
          "type": "address"
        },
        {
          "indexed": true,
          "internalType": "address",
          "name": "newOwner",
          "type": "address"
        }
      ],
      "name": "OwnershipTransferred",
      "type": "event"
    },
    {
      "anonymous": false,
      "inputs": [
        {
          "indexed": true,
          "internalType": "uint256",
          "name": "policyId",
          "type": "uint256"
        },
        {
          "indexed": false,
          "internalType": "string",
          "name": "name",
          "type": "string"
        },
        {
          "indexed": false,
          "internalType": "uint256",
          "name": "cost",
          "type": "uint256"
        }
      ],
      "name": "PolicyAdded",
      "type": "event"
    },
    {
      "anonymous": false,
      "inputs": [
        {
          "indexed": true,
          "internalType": "address",
          "name": "buyer",
          "type": "address"
        },
        {
          "indexed": true,
          "internalType": "uint256",
          "name": "policyId",
          "type": "uint256"
        }
      ],
      "name": "PolicyPurchased",
      "type": "event"
    },
    {
      "anonymous": false,
      "inputs": [
        {
          "indexed": true,
          "internalType": "uint256",
          "name": "policyId",
          "type": "uint256"
        }
      ],
      "name": "PolicyRemoved",
      "type": "event"
    },
    {
      "anonymous": false,
      "inputs": [
        {
          "indexed": true,
          "internalType": "address",
          "name": "from",
          "type": "address"
        },
        {
          "indexed": true,
          "internalType": "address",
          "name": "to",
          "type": "address"
        },
        {
          "indexed": true,
          "internalType": "uint256",
          "name": "tokenId",
          "type": "uint256"
        }
      ],
      "name": "Transfer",
      "type": "event"
    },
    {
      "inputs": [
        {
          "internalType": "uint256",
          "name": "",
          "type": "uint256"
        }
      ],
      "name": "activePolicies",
      "outputs": [
        {
          "internalType": "uint256",
          "name": "",
          "type": "uint256"
        }
      ],
      "stateMutability": "view",
      "type": "function"
    },
    {
      "inputs": [
        {
          "internalType": "address",
          "name": "_admin",
          "type": "address"
        }
      ],
      "name": "addAdmin",
      "outputs": [],
      "stateMutability": "nonpayable",
      "type": "function"
    },
    {
      "inputs": [
        {
          "internalType": "string",
          "name": "_name",
          "type": "string"
        },
        {
          "internalType": "uint256",
          "name": "_cost",
          "type": "uint256"
        },
        {
          "internalType": "string",
          "name": "_description",
          "type": "string"
        }
      ],
      "name": "addPolicy",
      "outputs": [],
      "stateMutability": "nonpayable",
      "type": "function"
    },
    {
      "inputs": [
        {
          "internalType": "uint256",
          "name": "",
          "type": "uint256"
        }
      ],
      "name": "adminList",
      "outputs": [
        {
          "internalType": "address",
          "name": "",
          "type": "address"
        }
      ],
      "stateMutability": "view",
      "type": "function"
    },
    {
      "inputs": [
        {
          "internalType": "address",
          "name": "to",
          "type": "address"
        },
        {
          "internalType": "uint256",
          "name": "tokenId",
          "type": "uint256"
        }
      ],
      "name": "approve",
      "outputs": [],
      "stateMutability": "nonpayable",
      "type": "function"
    },
    {
      "inputs": [
        {
          "internalType": "uint256",
          "name": "_claimId",
          "type": "uint256"
        }
      ],
      "name": "approveClaim",
      "outputs": [],
      "stateMutability": "nonpayable",
      "type": "function"
    },
    {
      "inputs": [
        {
          "internalType": "address",
          "name": "owner",
          "type": "address"
        }
      ],
      "name": "balanceOf",
      "outputs": [
        {
          "internalType": "uint256",
          "name": "",
          "type": "uint256"
        }
      ],
      "stateMutability": "view",
      "type": "function"
    },
    {
      "inputs": [
        {
          "internalType": "uint256",
          "name": "_policyId",
          "type": "uint256"
        }
      ],
      "name": "buyPolicy",
      "outputs": [],
      "stateMutability": "nonpayable",
      "type": "function"
    },
    {
      "inputs": [
        {
          "internalType": "uint256",
          "name": "",
          "type": "uint256"
        }
      ],
      "name": "claims",
      "outputs": [
        {
          "internalType": "address",
          "name": "sender",
          "type": "address"
        },
        {
          "internalType": "uint256",
          "name": "policyId",
          "type": "uint256"
        }
      ],
      "stateMutability": "view",
      "type": "function"
    },
    {
      "inputs": [
        {
          "internalType": "uint256",
          "name": "_claimId",
          "type": "uint256"
        }
      ],
      "name": "denyClaim",
      "outputs": [],
      "stateMutability": "nonpayable",
      "type": "function"
    },
    {
      "inputs": [
        {
          "internalType": "address",
          "name": "_buyer",
          "type": "address"
        }
      ],
      "name": "getActivePurchasedPolicies",
      "outputs": [
        {
          "components": [
            {
              "internalType": "uint256",
              "name": "policyId",
              "type": "uint256"
            },
            {
              "internalType": "string",
              "name": "name",
              "type": "string"
            },
            {
              "internalType": "uint256",
              "name": "cost",
              "type": "uint256"
            },
            {
              "internalType": "string",
              "name": "description",
              "type": "string"
            },
            {
              "internalType": "uint256",
              "name": "startDate",
              "type": "uint256"
            },
            {
              "internalType": "uint256",
              "name": "duration",
              "type": "uint256"
            },
            {
              "internalType": "bool",
              "name": "isActive",
              "type": "bool"
            }
          ],
          "internalType": "struct InsurancePolicy.PurchasedPolicy[]",
          "name": "",
          "type": "tuple[]"
        }
      ],
      "stateMutability": "view",
      "type": "function"
    },
    {
      "inputs": [
        {
          "internalType": "uint256",
          "name": "tokenId",
          "type": "uint256"
        }
      ],
      "name": "getApproved",
      "outputs": [
        {
          "internalType": "address",
          "name": "",
          "type": "address"
        }
      ],
      "stateMutability": "view",
      "type": "function"
    },
    {
      "inputs": [],
      "name": "getClaims",
      "outputs": [
        {
          "components": [
            {
              "internalType": "address",
              "name": "sender",
              "type": "address"
            },
            {
              "internalType": "uint256",
              "name": "policyId",
              "type": "uint256"
            }
          ],
          "internalType": "struct InsurancePolicy.Claim[]",
          "name": "",
          "type": "tuple[]"
        }
      ],
      "stateMutability": "view",
      "type": "function"
    },
    {
      "inputs": [
        {
          "internalType": "address",
          "name": "_address",
          "type": "address"
        }
      ],
      "name": "isAdmin",
      "outputs": [
        {
          "internalType": "bool",
          "name": "",
          "type": "bool"
        }
      ],
      "stateMutability": "view",
      "type": "function"
    },
    {
      "inputs": [
        {
          "internalType": "address",
          "name": "owner",
          "type": "address"
        },
        {
          "internalType": "address",
          "name": "operator",
          "type": "address"
        }
      ],
      "name": "isApprovedForAll",
      "outputs": [
        {
          "internalType": "bool",
          "name": "",
          "type": "bool"
        }
      ],
      "stateMutability": "view",
      "type": "function"
    },
    {
      "inputs": [],
      "name": "name",
      "outputs": [
        {
          "internalType": "string",
          "name": "",
          "type": "string"
        }
      ],
      "stateMutability": "view",
      "type": "function"
    },
    {
      "inputs": [],
      "name": "owner",
      "outputs": [
        {
          "internalType": "address",
          "name": "",
          "type": "address"
        }
      ],
      "stateMutability": "view",
      "type": "function"
    },
    {
      "inputs": [
        {
          "internalType": "uint256",
          "name": "tokenId",
          "type": "uint256"
        }
      ],
      "name": "ownerOf",
      "outputs": [
        {
          "internalType": "address",
          "name": "",
          "type": "address"
        }
      ],
      "stateMutability": "view",
      "type": "function"
    },
    {
      "inputs": [
        {
          "internalType": "uint256",
          "name": "",
          "type": "uint256"
        }
      ],
      "name": "policies",
      "outputs": [
        {
          "internalType": "string",
          "name": "name",
          "type": "string"
        },
        {
          "internalType": "uint256",
          "name": "cost",
          "type": "uint256"
        },
        {
          "internalType": "string",
          "name": "description",
          "type": "string"
        },
        {
          "internalType": "bool",
          "name": "exists",
          "type": "bool"
        }
      ],
      "stateMutability": "view",
      "type": "function"
    },
    {
      "inputs": [],
      "name": "policyId",
      "outputs": [
        {
          "internalType": "uint256",
          "name": "",
          "type": "uint256"
        }
      ],
      "stateMutability": "view",
      "type": "function"
    },
    {
      "inputs": [
        {
          "internalType": "address",
          "name": "",
          "type": "address"
        },
        {
          "internalType": "uint256",
          "name": "",
          "type": "uint256"
        }
      ],
      "name": "purchasedPolicies",
      "outputs": [
        {
          "internalType": "uint256",
          "name": "policyId",
          "type": "uint256"
        },
        {
          "internalType": "string",
          "name": "name",
          "type": "string"
        },
        {
          "internalType": "uint256",
          "name": "cost",
          "type": "uint256"
        },
        {
          "internalType": "string",
          "name": "description",
          "type": "string"
        },
        {
          "internalType": "uint256",
          "name": "startDate",
          "type": "uint256"
        },
        {
          "internalType": "uint256",
          "name": "duration",
          "type": "uint256"
        },
        {
          "internalType": "bool",
          "name": "isActive",
          "type": "bool"
        }
      ],
      "stateMutability": "view",
      "type": "function"
    },
    {
      "inputs": [
        {
          "internalType": "address",
          "name": "_admin",
          "type": "address"
        }
      ],
      "name": "removeAdmin",
      "outputs": [],
      "stateMutability": "nonpayable",
      "type": "function"
    },
    {
      "inputs": [
        {
          "internalType": "uint256",
          "name": "_policyId",
          "type": "uint256"
        }
      ],
      "name": "removePolicy",
      "outputs": [],
      "stateMutability": "nonpayable",
      "type": "function"
    },
    {
      "inputs": [],
      "name": "renounceOwnership",
      "outputs": [],
      "stateMutability": "nonpayable",
      "type": "function"
    },
    {
      "inputs": [
        {
          "internalType": "address",
          "name": "from",
          "type": "address"
        },
        {
          "internalType": "address",
          "name": "to",
          "type": "address"
        },
        {
          "internalType": "uint256",
          "name": "tokenId",
          "type": "uint256"
        }
      ],
      "name": "safeTransferFrom",
      "outputs": [],
      "stateMutability": "nonpayable",
      "type": "function"
    },
    {
      "inputs": [
        {
          "internalType": "address",
          "name": "from",
          "type": "address"
        },
        {
          "internalType": "address",
          "name": "to",
          "type": "address"
        },
        {
          "internalType": "uint256",
          "name": "tokenId",
          "type": "uint256"
        },
        {
          "internalType": "bytes",
          "name": "data",
          "type": "bytes"
        }
      ],
      "name": "safeTransferFrom",
      "outputs": [],
      "stateMutability": "nonpayable",
      "type": "function"
    },
    {
      "inputs": [
        {
          "internalType": "address",
          "name": "operator",
          "type": "address"
        },
        {
          "internalType": "bool",
          "name": "approved",
          "type": "bool"
        }
      ],
      "name": "setApprovalForAll",
      "outputs": [],
      "stateMutability": "nonpayable",
      "type": "function"
    },
    {
      "inputs": [
        {
          "internalType": "address",
          "name": "_USDCaddress",
          "type": "address"
        }
      ],
      "name": "setUSDC",
      "outputs": [],
      "stateMutability": "nonpayable",
      "type": "function"
    },
    {
      "inputs": [
        {
          "internalType": "uint256",
          "name": "_policyId",
          "type": "uint256"
        }
      ],
      "name": "submitClaim",
      "outputs": [],
      "stateMutability": "nonpayable",
      "type": "function"
    },
    {
      "inputs": [
        {
          "internalType": "bytes4",
          "name": "interfaceId",
          "type": "bytes4"
        }
      ],
      "name": "supportsInterface",
      "outputs": [
        {
          "internalType": "bool",
          "name": "",
          "type": "bool"
        }
      ],
      "stateMutability": "view",
      "type": "function"
    },
    {
      "inputs": [],
      "name": "symbol",
      "outputs": [
        {
          "internalType": "string",
          "name": "",
          "type": "string"
        }
      ],
      "stateMutability": "view",
      "type": "function"
    },
    {
      "inputs": [
        {
          "internalType": "uint256",
          "name": "tokenId",
          "type": "uint256"
        }
      ],
      "name": "tokenURI",
      "outputs": [
        {
          "internalType": "string",
          "name": "",
          "type": "string"
        }
      ],
      "stateMutability": "view",
      "type": "function"
    },
    {
      "inputs": [
        {
          "internalType": "address",
          "name": "from",
          "type": "address"
        },
        {
          "internalType": "address",
          "name": "to",
          "type": "address"
        },
        {
          "internalType": "uint256",
          "name": "tokenId",
          "type": "uint256"
        }
      ],
      "name": "transferFrom",
      "outputs": [],
      "stateMutability": "nonpayable",
      "type": "function"
    },
    {
      "inputs": [
        {
          "internalType": "address",
          "name": "newOwner",
          "type": "address"
        }
      ],
      "name": "transferOwnership",
      "outputs": [],
      "stateMutability": "nonpayable",
      "type": "function"
    },
    {
      "inputs": [],
      "name": "usdcToken",
      "outputs": [
        {
          "internalType": "contract IERC20",
          "name": "",
          "type": "address"
        }
      ],
      "stateMutability": "view",
      "type": "function"
    }
  ],
  "bytecode": "0x608034620003a1576001600160401b03906040818101838111838210176200038b5781526012825260209171125b9cdd5c985b98d9541bdb1a58de53919560721b83820152815193828501858110828211176200038b5783526005855264125413919560da1b8486015281518181116200038b576000948554916001948584811c9416801562000380575b838510146200036c578190601f9485811162000319575b508390858311600114620002b5578992620002a9575b5050600019600383901b1c191690851b1786555b8651928311620002955783548481811c911680156200028a575b8282101462000276578281116200022e575b5080918311600114620001c7575084958293949592620001bb575b5050600019600383901b1c191690821b1790555b3315620001a35760068054336001600160a01b0319808316821790935592519373036cbd53842c5426634e7929541ec2318f3dcf7e9390916001600160a01b03167f8be0079c531659141344cd1fd0a4f28419497f9722a3daafe3b4186f6b6457e08380a3600c55600d541617600d5561242a9081620003a78239f35b51631e4fbdf760e01b81526004810191909152602490fd5b01519050388062000112565b90601f198316968487528287209287905b89821062000216575050838596979810620001fc575b505050811b01905562000126565b015160001960f88460031b161c19169055388080620001ee565b808785968294968601518155019501930190620001d8565b8487528187208380860160051c8201928487106200026c575b0160051c019085905b82811062000260575050620000f7565b88815501859062000250565b9250819262000247565b634e487b7160e01b87526022600452602487fd5b90607f1690620000e5565b634e487b7160e01b86526041600452602486fd5b015190503880620000b7565b898052848a208894509190601f1984168b5b87828210620003025750508411620002e8575b505050811b018655620000cb565b015160001960f88460031b161c19169055388080620002da565b8385015186558b97909501949384019301620002c7565b9091508880528389208580850160051c82019286861062000362575b918991869594930160051c01915b82811062000353575050620000a1565b8b815585945089910162000343565b9250819262000335565b634e487b7160e01b88526022600452602488fd5b93607f16936200008a565b634e487b7160e01b600052604160045260246000fd5b600080fdfe608080604052600436101561001357600080fd5b60e060003560e01c91826301ffc9a71461197f5750816306fdde03146118ef578163081812fc146118b1578163095ea7b3146117ca5781630dfbdb91146116905750806311117fc81461164e57806311eac855146116255780631785f53c1461156d57806323b872dd1461155657806324d7806c1461152957806342842e0e1461150157806346e301351461125e5780635af099c9146112275780636352211e146111f75780636aa14a96146110eb5780636caddcdc14611076578063704802751461101457806370a0823114610fbb578063715018a614610f5e57806379c8889414610bdb57806384ac35eb14610ab85780638da5cb5b14610a8f57806395d89b41146109c9578063a22cb4651461091b578063a888c2cd146108cf578063b3e089a21461088c578063b88d4fde1461082b578063c52822f814610762578063c63399a91461043e578063c87b56dd146103e7578063d3e8948314610369578063e9298a64146102a4578063e985e9c51461024e578063ee89ef3a146102305763f2fde38b146101a357600080fd5b3461022b57602036600319011261022b576101bc611a2a565b6101c461226f565b6001600160a01b0390811690811561021257600680546001600160a01b031981168417909155167f8be0079c531659141344cd1fd0a4f28419497f9722a3daafe3b4186f6b6457e0600080a3005b604051631e4fbdf760e01b815260006004820152602490fd5b600080fd5b3461022b57600036600319011261022b576020600c54604051908152f35b3461022b57604036600319011261022b57610267611a2a565b61026f611a40565b9060018060a01b03809116600052600560205260406000209116600052602052602060ff604060002054166040519015158152f35b3461022b57604036600319011261022b576102bd611a2a565b6001600160a01b0316600090815260086020526040902080546024359081101561022b576102ea91611cd2565b5080546102f960018301611c2d565b9160028101549061030c60038201611c2d565b9061035360048201549360ff600660058501549401541693610340604051988998895260e060208a015260e08901906119ea565b91604088015286820360608801526119ea565b92608085015260a0840152151560c08301520390f35b3461022b57602036600319011261022b5760043560005260076020526103c8604060002061039681611c2d565b906103db600182015460ff60036103af60028601611c2d565b94015416926040519586956080875260808701906119ea565b91602086015284820360408601526119ea565b90151560608301520390f35b3461022b57602036600319011261022b57610403600435612234565b50600060405161041281611b47565b5261043a60405161042281611b47565b600081526040519182916020835260208301906119ea565b0390f35b3461022b57606036600319011261022b576004356001600160401b03811161022b5761046e903690600401611bd5565b6044356001600160401b03811161022b5761048d903690600401611bd5565b9061049f61049a33611f04565b611f62565b604051916104ac83611b11565b8183526024356020840152604083015260016060830152600c546000526007602052604060002082519283516001600160401b03811161065c576104fa816104f48554611bf3565b8561209c565b6020601f82116001146106f957819061052d939495966000926106ee575b50508160011b916000199060031b1c19161790565b82555b602081015160018301556002820160408201518051906001600160401b03821161065c57610562826104f48554611bf3565b602090601f831160011461067d579261059d836060946105b79897946003976000926106725750508160011b916000199060031b1c19161790565b90555b0151151591019060ff801983541691151516179055565b600c54600a5491600160401b83101561065c576105dd83600161062d9501600a55611a87565b81549060031b906000198095831b921b19161790557f431bd087a6218e73a1fe36f391c099d4146ee8ecfec5319fed1a745f6765fa07600c549384926040519182916040835260408301906119ea565b60243560208301520390a2811461064657600101600c55005b634e487b7160e01b600052601160045260246000fd5b634e487b7160e01b600052604160045260246000fd5b015190508a80610518565b90601f198316918460005260206000209260005b8181106106d65750936105b79796936003969360019383606098106106be575b505050811b0190556105a0565b015160001983891b60f8161c191690558980806106b1565b92936020600181928786015181550195019301610691565b015190508680610518565b8360005260206000209060005b601f198416811061074a575060019394959683601f19811610610731575b505050811b018255610530565b015160001960f88460031b161c19169055858080610724565b9091602060018192858b015181550193019101610706565b3461022b57600036600319011261022b5760095461077f81611cee565b61078c6040519182611b62565b81815260209081810192836009600052836000206000915b8383106107f85760408051878152865181890181905289928201908960005b8281106107d05784840385f35b855180516001600160a01b0316855282015184830152948101946040909301926001016107c3565b60028660019260405161080a81611af6565b848060a01b03865416815284860154838201528152019201920191906107a4565b3461022b57608036600319011261022b57610844611a2a565b61084c611a40565b606435916001600160401b03831161022b573660238401121561022b5761088061088a933690602481600401359101611b9e565b91604435916120e1565b005b3461022b57602036600319011261022b576108a5611a2a565b6108ad61226f565b600d80546001600160a01b0319166001600160a01b0392909216919091179055005b3461022b57602036600319011261022b5760043560095481101561022b576108f690611ad7565b508054600190910154604080516001600160a01b039093168352602083019190915290f35b3461022b57604036600319011261022b57610934611a2a565b602435908115159081830361022b576001600160a01b03169182156109b0576109829033600052600560205260406000208460005260205260406000209060ff801983541691151516179055565b6040519081527f17307eab39ab6107e8899845ad3d59bd9653f200f220920489ca2b5937696c3160203392a3005b604051630b61174360e31b815260048101849052602490fd5b3461022b57600036600319011261022b576040516000600182600154926109ef84611bf3565b9283835260209485600182169182600014610a6f575050600114610a2f575b50610a1b92500383611b62565b61043a6040519282849384528301906119ea565b849150600160005281600020906000915b858310610a57575050610a1b935082010185610a0e565b80548389018501528794508693909201918101610a40565b60ff191685820152610a1b95151560051b8501019250879150610a0e9050565b3461022b57600036600319011261022b576006546040516001600160a01b039091168152602090f35b3461022b57602036600319011261022b57600435610ad861049a33611f04565b600954610ae6818310611f9d565b610aef82611ad7565b50546001600160a01b0390811691906001610b0985611ad7565b500154936000199280840190811161064657610b27610b2e91611ad7565b5091611ad7565b929092610b8b57818303610bb7575b5050506009548015610ba15701610b5381611ad7565b610b8b57600181600080935501556009557ff546d0b316ee7c03c22257807a6d2e2f65d3682d661388bc1d042f03da947d3e600080a3005b634e487b7160e01b600052600060045260246000fd5b634e487b7160e01b600052603160045260246000fd5b815483546001600160a01b0319169116178255600190810154910155838080610b3d565b3461022b57602036600319011261022b5760043560005260076020526040600020604051610c0881611b11565b610c1182611c2d565b815260018201546020820152610c4860ff6003610c3060028601611c2d565b94604085019586520154161515806060840152611ff8565b33600052600860205260406000208151906020830151935160405194610c6d86611b2c565b60043586526020860193845260408601526060850152426080850152600a60a0850152600160c08501528054600160401b81101561065c57610cb491600182018155611cd2565b919091610b8b5783518255519283516001600160401b03811161065c57610ceb81610ce26001860154611bf3565b6001860161209c565b6020601f8211600114610eef578190610d1d939495966000926106ee5750508160011b916000199060031b1c19161790565b60018301555b604081015160028301556003820160608201518051906001600160401b03821161065c57610d55826104f48554611bf3565b602090601f8311600114610e795760009694610dc294610d94856020999660069660c0968d92610e6e5750508160011b916000199060031b1c19161790565b90555b6080810151600485015560a081015160058501550151151591019060ff801983541691151516179055565b600d54908201516040516323b872dd60e01b8152336004820152306024820152604481019190915292839160649183916001600160a01b03165af18015610e6257610e33575b600435337f1ec6ca237cf412015f109db027dc71b2292a20387279781fd699c4ec328a23d7600080a3005b610e549060203d602011610e5b575b610e4c8183611b62565b810190611fe0565b5080610e08565b503d610e42565b6040513d6000823e3d90fd5b015190508c80610518565b90601f198316918460005260206000209260005b818110610ed757509460018560069560c09560009c9a9560209c99610dc29b10610ebf575b505050811b019055610d97565b01518c1960f88460031b161c191690558b8080610eb2565b92936020600181928786015181550195019301610e8d565b6001840160005260206000209060005b601f1984168110610f46575060019394959683601f19811610610f2d575b505050811b016001830155610d23565b015160001960f88460031b161c19169055858080610f1d565b9091602060018192858b015181550193019101610eff565b3461022b57600036600319011261022b57610f7761226f565b600680546001600160a01b031981169091556000906001600160a01b03167f8be0079c531659141344cd1fd0a4f28419497f9722a3daafe3b4186f6b6457e08280a3005b3461022b57602036600319011261022b576001600160a01b03610fdc611a2a565b168015610ffb5760005260036020526020604060002054604051908152f35b6040516322718ad960e21b815260006004820152602490fd5b3461022b57602036600319011261022b5761102d611a2a565b61103561226f565b600b5490600160401b82101561065c5761105882600161088a9401600b55611a56565b90919060018060a01b038084549260031b9316831b921b1916179055565b3461022b57602036600319011261022b5760043561109661049a33611f04565b80600052600760205260006003604082206110b081612053565b8260018201556110c260028201612053565b01557f914b5eb6858efd4c0c88bd9c5739e35758fa8e8ac40d2d235715b6f14c71f6de600080a2005b3461022b57602036600319011261022b5760043580600052600760205261111c60ff60036040600020015416611ff8565b60016111288233612378565b1515036111b95760405161113b81611af6565b3381526020810190828252600954600160401b81101561065c578060016111659201600955611ad7565b929092610b8b57905182546001600160a01b0319166001600160a01b03919091161782555160019190910155337fedb73a28656fc54b5b54d180d469da306262375b8fab1d30e7bfdfe6fa4d71a8600080a3005b60405162461bcd60e51b8152602060048201526016602482015275506f6c69637920646f6573206e6f742061637469766560501b6044820152606490fd5b3461022b57602036600319011261022b576020611215600435612234565b6040516001600160a01b039091168152f35b3461022b57602036600319011261022b57600435600a5481101561022b57611250602091611a87565b90546040519160031b1c8152f35b3461022b5760208060031936011261022b5760043561127f61049a33611f04565b61128c6009548210611f9d565b61129581611ad7565b50546001600160a01b03908116916112ac81611ad7565b50600190810154600d546000828152600788526040808220850154905163a9059cbb60e01b81526001600160a01b0389166004820152602481019190915292979395939182918491604491839188165af1918215610e62576008926114e4575b508560005252826040600020816000905b6113ca575b505060095460001993915083810190811161064657610b2761134391611ad7565b929092610b8b5781859284036113a5575b505050506009548015610ba157019061136c82611ad7565b919091610b8b5781600080935501556009557f308187387164507a01d4463583bc3e8760529edc45d573acc02ed018bd4ac276600080a3005b805484546001600160a01b031916921691909117835581015491015584828180611354565b8154808210156114de57886113df8385611cd2565b5054146113ef575082018261131d565b919250600019918281019081116106465761140d6114159185611cd2565b509184611cd2565b610b8b57818103611477575b505081548015610ba15701906114378282611cd2565b610b8b57600681600080935561144e888201612053565b82600282015561146060038201612053565b826004820155826005820155015555828680611322565b816114d79254825561148d88820189840161229b565b600280820154908301556114a7600380830190840161229b565b600481015460048301556005808201549083015560ff6006809201541691019060ff801983541691151516179055565b8780611421565b50611322565b6114fa90823d8411610e5b57610e4c8183611b62565b508761130c565b3461022b5761088a61151236611aa2565b906040519261152084611b47565b600084526120e1565b3461022b57602036600319011261022b57602061154c611547611a2a565b611f04565b6040519015158152f35b3461022b5761088a61156736611aa2565b91611d68565b3461022b57602036600319011261022b57611586611a2a565b61158e61226f565b6001600160a01b039060009082165b600b918254928382101561088a578493836115b784611a56565b979054600398891b1c16146115d45750929350600101915061159d565b909392506000199182820191821161064657611058846115f661160394611a56565b905490891b1c1691611a56565b82548015610ba157019261161684611a56565b8154921b9290921b1916905555005b3461022b57600036600319011261022b57600d546040516001600160a01b039091168152602090f35b3461022b57602036600319011261022b57600435600b5481101561022b57611677602091611a56565b905460405160039290921b1c6001600160a01b03168152f35b3461022b5760208060031936011261022b576001600160a01b036116b2611a2a565b166000526008815260406000208054916116cb83611cee565b926116d96040519485611b62565b8084528184018093600052826000206000915b8383106117a75750505050604051928184019082855251809152604084019160408260051b86010193926000965b8388106117275786860387f35b90919293948380600192603f198a820301865288519081518152611776611759848401518886850152888401906119ea565b6040840151604084015260608085015190848303908501526119ea565b916080808201519083015260a0808201519083015260c080910151151591015297019301970196909392919361171a565b6007856001926117b9859a989a611d05565b8152019201920191909593956116ec565b3461022b57604036600319011261022b576117e3611a2a565b6024356117ef81612234565b3315158061189e575b80611871575b611859576001600160a01b039283169282918491167f8c5be1e5ebec7d5bd14f71427d1e84f3dd0314c0f7b2291e5b200ac8c7c3b925600080a4600090815260046020526040902080546001600160a01b0319169091179055005b60405163a9fbf51f60e01b8152336004820152602490fd5b5060018060a01b038116600052600560205260406000203360005260205260ff60406000205416156117fe565b506001600160a01b0381163314156117f8565b3461022b57602036600319011261022b576004356118ce81612234565b506000526004602052602060018060a01b0360406000205416604051908152f35b3461022b57600036600319011261022b5760405160008054908261191283611bf3565b9182825260209360019085600182169182600014610a6f5750506001146119405750610a1b92500383611b62565b8491506000805281600020906000915b858310611967575050610a1b935082010185610a0e565b80548389018501528794508693909201918101611950565b3461022b57602036600319011261022b576004359063ffffffff60e01b821680920361022b576020916380ac58cd60e01b81149081156119d9575b81156119c8575b5015158152f35b6301ffc9a760e01b149050836119c1565b635b5e139f60e01b811491506119ba565b919082519283825260005b848110611a16575050826000602080949584010152601f8019910116010190565b6020818301810151848301820152016119f5565b600435906001600160a01b038216820361022b57565b602435906001600160a01b038216820361022b57565b600b54811015611a7157600b60005260206000200190600090565b634e487b7160e01b600052603260045260246000fd5b600a54811015611a7157600a60005260206000200190600090565b606090600319011261022b576001600160a01b0390600435828116810361022b5791602435908116810361022b579060443590565b600954811015611a7157600960005260206000209060011b0190600090565b604081019081106001600160401b0382111761065c57604052565b608081019081106001600160401b0382111761065c57604052565b60e081019081106001600160401b0382111761065c57604052565b602081019081106001600160401b0382111761065c57604052565b90601f801991011681019081106001600160401b0382111761065c57604052565b6001600160401b03811161065c57601f01601f191660200190565b929192611baa82611b83565b91611bb86040519384611b62565b82948184528183011161022b578281602093846000960137010152565b9080601f8301121561022b57816020611bf093359101611b9e565b90565b90600182811c92168015611c23575b6020831014611c0d57565b634e487b7160e01b600052602260045260246000fd5b91607f1691611c02565b90604051918260008254611c4081611bf3565b90818452602094600191600181169081600014611cb05750600114611c71575b505050611c6f92500383611b62565b565b600090815285812095935091905b818310611c98575050611c6f9350820101388080611c60565b85548884018501529485019487945091830191611c7f565b92505050611c6f94925060ff191682840152151560051b820101388080611c60565b8054821015611a71576000526007602060002091020190600090565b6001600160401b03811161065c5760051b60200190565b90604051611d1281611b2c565b60c060ff6006839580548552611d2a60018201611c2d565b602086015260028101546040860152611d4560038201611c2d565b606086015260048101546080860152600581015460a08601520154161515910152565b916001600160a01b03918216918215611eeb57600093828552826020946002865260409584878920541696879133151580611e52575b509060027fddf252ad1be2c89b69c2b068fc378daa952ba7f163c4a11628f55a4df523b3ef9284611e23575b858c5260038152828c2080546001019055868c5252808a2080546001600160a01b03191685179055519880a416808303611e045750505050565b6364283d7b60e01b845260048401526024830152604482015260649150fd5b868c5260048152828c2080546001600160a01b0319169055848c5260038152828c208054600019019055611dca565b91939450915080611eaa575b15611e6e57859291879138611d9e565b508486611e8b576024915190637e27328960e01b82526004820152fd5b905163177e802f60e01b81523360048201526024810191909152604490fd5b503387148015611ecf575b80611e5e5750858852600481523385838a20541614611e5e565b5086885260058152818820338952815260ff8289205416611eb5565b604051633250574960e11b815260006004820152602490fd5b6006546001600160a01b039182169082168114611f5b57600b549160005b838110611f325750505050600090565b8282611f3d83611a56565b90549060031b1c1614611f5257600101611f22565b50505050600190565b5050600190565b15611f6957565b60405162461bcd60e51b815260206004820152600c60248201526b2737ba1030b71030b236b4b760a11b6044820152606490fd5b15611fa457565b60405162461bcd60e51b815260206004820152601460248201527310db185a5b48191bd95cc81b9bdd08195e1a5cdd60621b6044820152606490fd5b9081602091031261022b5751801515810361022b5790565b15611fff57565b60405162461bcd60e51b8152602060048201526015602482015274141bdb1a58de48191bd95cc81b9bdd08195e1a5cdd605a1b6044820152606490fd5b818110612047575050565b6000815560010161203c565b61205d8154611bf3565b9081612067575050565b81601f60009311600114612079575055565b908083918252612098601f60208420940160051c84016001850161203c565b5555565b9190601f81116120ab57505050565b611c6f926000526020600020906020601f840160051c830193106120d7575b601f0160051c019061203c565b90915081906120ca565b6120ec838383611d68565b813b6120f9575b50505050565b604051630a85bd0160e11b8082523360048301526001600160a01b039283166024830152604482019490945260806064820152602095929091169390929083906121479060848301906119ea565b039285816000958187895af18491816121f0575b506121bb575050503d6000146121b3573d61217581611b83565b906121836040519283611b62565b81528091843d92013e5b805192836121ae57604051633250574960e11b815260048101849052602490fd5b019050fd5b50606061218d565b919450915063ffffffff60e01b16036121d85750388080806120f3565b60249060405190633250574960e11b82526004820152fd5b9091508681813d831161222d575b6122088183611b62565b8101031261222957516001600160e01b03198116810361222957903861215b565b8480fd5b503d6121fe565b6000818152600260205260409020546001600160a01b0316908115612257575090565b60249060405190637e27328960e01b82526004820152fd5b6006546001600160a01b0316330361228357565b60405163118cdaa760e01b8152336004820152602490fd5b90808214612374576122ad8154611bf3565b906001600160401b03821161065c576122ca826104f48554611bf3565b600090601f8311600114612309576122fa9291600091836122fe5750508160011b916000199060031b1c19161790565b9055565b015490503880610518565b815260208082208483528183209291601f1985169083905b82821061235b575050908460019594939210612342575b505050811b019055565b015460001960f88460031b161c19169055388080612338565b8495819295850154815560018091019601940190612321565b5050565b9060005b6001600160a01b038316600090815260086020526040902080548210156123eb576123aa826123b092611cd2565b50611d05565b828151146123c1575060010161237c565b80935060a092506080915001519101518101809111610646574210156123e657600190565b600090565b5050505060009056fea2646970667358221220b2f26683847ea2ed4932f7944a74fb231184d74e6c932eba2c341855ad336bd864736f6c63430008180033",
  "linkReferences": {},
  "deployedLinkReferences": {}
}