{
  "_format": "hh-sol-artifact-1",
  "contractName": "InsurancePolicy",
  "sourceName": "contracts/POLICYS.sol",
  "abi": [
    {
      "inputs": [],
      "stateMutability": "nonpayable",
      "type": "constructor"
    },
    {
      "inputs": [
        {
          "internalType": "address",
          "name": "sender",
          "type": "address"
        },
        {
          "internalType": "uint256",
          "name": "tokenId",
          "type": "uint256"
        },
        {
          "internalType": "address",
          "name": "owner",
          "type": "address"
        }
      ],
      "name": "ERC721IncorrectOwner",
      "type": "error"
    },
    {
      "inputs": [
        {
          "internalType": "address",
          "name": "operator",
          "type": "address"
        },
        {
          "internalType": "uint256",
          "name": "tokenId",
          "type": "uint256"
        }
      ],
      "name": "ERC721InsufficientApproval",
      "type": "error"
    },
    {
      "inputs": [
        {
          "internalType": "address",
          "name": "approver",
          "type": "address"
        }
      ],
      "name": "ERC721InvalidApprover",
      "type": "error"
    },
    {
      "inputs": [
        {
          "internalType": "address",
          "name": "operator",
          "type": "address"
        }
      ],
      "name": "ERC721InvalidOperator",
      "type": "error"
    },
    {
      "inputs": [
        {
          "internalType": "address",
          "name": "owner",
          "type": "address"
        }
      ],
      "name": "ERC721InvalidOwner",
      "type": "error"
    },
    {
      "inputs": [
        {
          "internalType": "address",
          "name": "receiver",
          "type": "address"
        }
      ],
      "name": "ERC721InvalidReceiver",
      "type": "error"
    },
    {
      "inputs": [
        {
          "internalType": "address",
          "name": "sender",
          "type": "address"
        }
      ],
      "name": "ERC721InvalidSender",
      "type": "error"
    },
    {
      "inputs": [
        {
          "internalType": "uint256",
          "name": "tokenId",
          "type": "uint256"
        }
      ],
      "name": "ERC721NonexistentToken",
      "type": "error"
    },
    {
      "inputs": [
        {
          "internalType": "address",
          "name": "owner",
          "type": "address"
        }
      ],
      "name": "OwnableInvalidOwner",
      "type": "error"
    },
    {
      "inputs": [
        {
          "internalType": "address",
          "name": "account",
          "type": "address"
        }
      ],
      "name": "OwnableUnauthorizedAccount",
      "type": "error"
    },
    {
      "anonymous": false,
      "inputs": [
        {
          "indexed": true,
          "internalType": "address",
          "name": "admin",
          "type": "address"
        }
      ],
      "name": "AdminAdded",
      "type": "event"
    },
    {
      "anonymous": false,
      "inputs": [
        {
          "indexed": true,
          "internalType": "address",
          "name": "admin",
          "type": "address"
        }
      ],
      "name": "AdminRemoved",
      "type": "event"
    },
    {
      "anonymous": false,
      "inputs": [
        {
          "indexed": true,
          "internalType": "address",
          "name": "owner",
          "type": "address"
        },
        {
          "indexed": true,
          "internalType": "address",
          "name": "approved",
          "type": "address"
        },
        {
          "indexed": true,
          "internalType": "uint256",
          "name": "tokenId",
          "type": "uint256"
        }
      ],
      "name": "Approval",
      "type": "event"
    },
    {
      "anonymous": false,
      "inputs": [
        {
          "indexed": true,
          "internalType": "address",
          "name": "owner",
          "type": "address"
        },
        {
          "indexed": true,
          "internalType": "address",
          "name": "operator",
          "type": "address"
        },
        {
          "indexed": false,
          "internalType": "bool",
          "name": "approved",
          "type": "bool"
        }
      ],
      "name": "ApprovalForAll",
      "type": "event"
    },
    {
      "anonymous": false,
      "inputs": [
        {
          "indexed": true,
          "internalType": "uint256",
          "name": "policyId",
          "type": "uint256"
        }
      ],
      "name": "ClaimApproved",
      "type": "event"
    },
    {
      "anonymous": false,
      "inputs": [
        {
          "indexed": true,
          "internalType": "uint256",
          "name": "policyId",
          "type": "uint256"
        }
      ],
      "name": "ClaimSubmitted",
      "type": "event"
    },
    {
      "anonymous": false,
      "inputs": [
        {
          "indexed": true,
          "internalType": "address",
          "name": "previousOwner",
          "type": "address"
        },
        {
          "indexed": true,
          "internalType": "address",
          "name": "newOwner",
          "type": "address"
        }
      ],
      "name": "OwnershipTransferred",
      "type": "event"
    },
    {
      "anonymous": false,
      "inputs": [
        {
          "indexed": true,
          "internalType": "address",
          "name": "user",
          "type": "address"
        },
        {
          "indexed": true,
          "internalType": "uint256",
          "name": "policyId",
          "type": "uint256"
        },
        {
          "indexed": false,
          "internalType": "uint256",
          "name": "amount",
          "type": "uint256"
        }
      ],
      "name": "PolicyPurchased",
      "type": "event"
    },
    {
      "anonymous": false,
      "inputs": [
        {
          "indexed": true,
          "internalType": "address",
          "name": "from",
          "type": "address"
        },
        {
          "indexed": true,
          "internalType": "address",
          "name": "to",
          "type": "address"
        },
        {
          "indexed": true,
          "internalType": "uint256",
          "name": "tokenId",
          "type": "uint256"
        }
      ],
      "name": "Transfer",
      "type": "event"
    },
    {
      "inputs": [],
      "name": "DURATION",
      "outputs": [
        {
          "internalType": "uint256",
          "name": "",
          "type": "uint256"
        }
      ],
      "stateMutability": "view",
      "type": "function"
    },
    {
      "inputs": [
        {
          "internalType": "address",
          "name": "_admin",
          "type": "address"
        }
      ],
      "name": "addAdmin",
      "outputs": [],
      "stateMutability": "nonpayable",
      "type": "function"
    },
    {
      "inputs": [
        {
          "internalType": "uint256",
          "name": "",
          "type": "uint256"
        }
      ],
      "name": "adminList",
      "outputs": [
        {
          "internalType": "address",
          "name": "",
          "type": "address"
        }
      ],
      "stateMutability": "view",
      "type": "function"
    },
    {
      "inputs": [
        {
          "internalType": "address",
          "name": "",
          "type": "address"
        }
      ],
      "name": "admins",
      "outputs": [
        {
          "internalType": "bool",
          "name": "",
          "type": "bool"
        }
      ],
      "stateMutability": "view",
      "type": "function"
    },
    {
      "inputs": [
        {
          "internalType": "address",
          "name": "to",
          "type": "address"
        },
        {
          "internalType": "uint256",
          "name": "tokenId",
          "type": "uint256"
        }
      ],
      "name": "approve",
      "outputs": [],
      "stateMutability": "nonpayable",
      "type": "function"
    },
    {
      "inputs": [
        {
          "internalType": "uint256",
          "name": "policyId",
          "type": "uint256"
        }
      ],
      "name": "approveClaim",
      "outputs": [],
      "stateMutability": "nonpayable",
      "type": "function"
    },
    {
      "inputs": [
        {
          "internalType": "address",
          "name": "owner",
          "type": "address"
        }
      ],
      "name": "balanceOf",
      "outputs": [
        {
          "internalType": "uint256",
          "name": "",
          "type": "uint256"
        }
      ],
      "stateMutability": "view",
      "type": "function"
    },
    {
      "inputs": [
        {
          "internalType": "string",
          "name": "name",
          "type": "string"
        },
        {
          "internalType": "uint256",
          "name": "amount",
          "type": "uint256"
        },
        {
          "internalType": "uint256",
          "name": "duration",
          "type": "uint256"
        }
      ],
      "name": "buyPolicy",
      "outputs": [],
      "stateMutability": "nonpayable",
      "type": "function"
    },
    {
      "inputs": [
        {
          "internalType": "uint256",
          "name": "policyId",
          "type": "uint256"
        }
      ],
      "name": "checkExpiration",
      "outputs": [
        {
          "internalType": "bool",
          "name": "",
          "type": "bool"
        }
      ],
      "stateMutability": "view",
      "type": "function"
    },
    {
      "inputs": [],
      "name": "getAllAdmins",
      "outputs": [
        {
          "internalType": "address[]",
          "name": "",
          "type": "address[]"
        }
      ],
      "stateMutability": "view",
      "type": "function"
    },
    {
      "inputs": [
        {
          "internalType": "uint256",
          "name": "tokenId",
          "type": "uint256"
        }
      ],
      "name": "getApproved",
      "outputs": [
        {
          "internalType": "address",
          "name": "",
          "type": "address"
        }
      ],
      "stateMutability": "view",
      "type": "function"
    },
    {
      "inputs": [
        {
          "internalType": "address",
          "name": "_admin",
          "type": "address"
        }
      ],
      "name": "isAdmin",
      "outputs": [
        {
          "internalType": "bool",
          "name": "",
          "type": "bool"
        }
      ],
      "stateMutability": "view",
      "type": "function"
    },
    {
      "inputs": [
        {
          "internalType": "address",
          "name": "owner",
          "type": "address"
        },
        {
          "internalType": "address",
          "name": "operator",
          "type": "address"
        }
      ],
      "name": "isApprovedForAll",
      "outputs": [
        {
          "internalType": "bool",
          "name": "",
          "type": "bool"
        }
      ],
      "stateMutability": "view",
      "type": "function"
    },
    {
      "inputs": [],
      "name": "name",
      "outputs": [
        {
          "internalType": "string",
          "name": "",
          "type": "string"
        }
      ],
      "stateMutability": "view",
      "type": "function"
    },
    {
      "inputs": [],
      "name": "owner",
      "outputs": [
        {
          "internalType": "address",
          "name": "",
          "type": "address"
        }
      ],
      "stateMutability": "view",
      "type": "function"
    },
    {
      "inputs": [
        {
          "internalType": "uint256",
          "name": "tokenId",
          "type": "uint256"
        }
      ],
      "name": "ownerOf",
      "outputs": [
        {
          "internalType": "address",
          "name": "",
          "type": "address"
        }
      ],
      "stateMutability": "view",
      "type": "function"
    },
    {
      "inputs": [
        {
          "internalType": "uint256",
          "name": "",
          "type": "uint256"
        }
      ],
      "name": "policies",
      "outputs": [
        {
          "internalType": "uint256",
          "name": "amount",
          "type": "uint256"
        },
        {
          "internalType": "uint256",
          "name": "startDate",
          "type": "uint256"
        },
        {
          "internalType": "uint256",
          "name": "duration",
          "type": "uint256"
        },
        {
          "internalType": "bool",
          "name": "isClaimed",
          "type": "bool"
        },
        {
          "internalType": "bool",
          "name": "isExpired",
          "type": "bool"
        },
        {
          "internalType": "string",
          "name": "name",
          "type": "string"
        }
      ],
      "stateMutability": "view",
      "type": "function"
    },
    {
      "inputs": [],
      "name": "policyCounter",
      "outputs": [
        {
          "internalType": "uint256",
          "name": "",
          "type": "uint256"
        }
      ],
      "stateMutability": "view",
      "type": "function"
    },
    {
      "inputs": [
        {
          "internalType": "address",
          "name": "_admin",
          "type": "address"
        }
      ],
      "name": "removeAdmin",
      "outputs": [],
      "stateMutability": "nonpayable",
      "type": "function"
    },
    {
      "inputs": [],
      "name": "renounceOwnership",
      "outputs": [],
      "stateMutability": "nonpayable",
      "type": "function"
    },
    {
      "inputs": [
        {
          "internalType": "address",
          "name": "from",
          "type": "address"
        },
        {
          "internalType": "address",
          "name": "to",
          "type": "address"
        },
        {
          "internalType": "uint256",
          "name": "tokenId",
          "type": "uint256"
        }
      ],
      "name": "safeTransferFrom",
      "outputs": [],
      "stateMutability": "nonpayable",
      "type": "function"
    },
    {
      "inputs": [
        {
          "internalType": "address",
          "name": "from",
          "type": "address"
        },
        {
          "internalType": "address",
          "name": "to",
          "type": "address"
        },
        {
          "internalType": "uint256",
          "name": "tokenId",
          "type": "uint256"
        },
        {
          "internalType": "bytes",
          "name": "data",
          "type": "bytes"
        }
      ],
      "name": "safeTransferFrom",
      "outputs": [],
      "stateMutability": "nonpayable",
      "type": "function"
    },
    {
      "inputs": [
        {
          "internalType": "address",
          "name": "operator",
          "type": "address"
        },
        {
          "internalType": "bool",
          "name": "approved",
          "type": "bool"
        }
      ],
      "name": "setApprovalForAll",
      "outputs": [],
      "stateMutability": "nonpayable",
      "type": "function"
    },
    {
      "inputs": [
        {
          "internalType": "address",
          "name": "_USDCaddress",
          "type": "address"
        }
      ],
      "name": "setUSDC",
      "outputs": [],
      "stateMutability": "nonpayable",
      "type": "function"
    },
    {
      "inputs": [
        {
          "internalType": "uint256",
          "name": "policyId",
          "type": "uint256"
        }
      ],
      "name": "submitClaim",
      "outputs": [],
      "stateMutability": "nonpayable",
      "type": "function"
    },
    {
      "inputs": [
        {
          "internalType": "bytes4",
          "name": "interfaceId",
          "type": "bytes4"
        }
      ],
      "name": "supportsInterface",
      "outputs": [
        {
          "internalType": "bool",
          "name": "",
          "type": "bool"
        }
      ],
      "stateMutability": "view",
      "type": "function"
    },
    {
      "inputs": [],
      "name": "symbol",
      "outputs": [
        {
          "internalType": "string",
          "name": "",
          "type": "string"
        }
      ],
      "stateMutability": "view",
      "type": "function"
    },
    {
      "inputs": [
        {
          "internalType": "uint256",
          "name": "tokenId",
          "type": "uint256"
        }
      ],
      "name": "tokenURI",
      "outputs": [
        {
          "internalType": "string",
          "name": "",
          "type": "string"
        }
      ],
      "stateMutability": "view",
      "type": "function"
    },
    {
      "inputs": [
        {
          "internalType": "address",
          "name": "from",
          "type": "address"
        },
        {
          "internalType": "address",
          "name": "to",
          "type": "address"
        },
        {
          "internalType": "uint256",
          "name": "tokenId",
          "type": "uint256"
        }
      ],
      "name": "transferFrom",
      "outputs": [],
      "stateMutability": "nonpayable",
      "type": "function"
    },
    {
      "inputs": [
        {
          "internalType": "address",
          "name": "newOwner",
          "type": "address"
        }
      ],
      "name": "transferOwnership",
      "outputs": [],
      "stateMutability": "nonpayable",
      "type": "function"
    },
    {
      "inputs": [
        {
          "internalType": "address",
          "name": "to",
          "type": "address"
        },
        {
          "internalType": "uint256",
          "name": "policyId",
          "type": "uint256"
        }
      ],
      "name": "transferPolicy",
      "outputs": [],
      "stateMutability": "nonpayable",
      "type": "function"
    },
    {
      "inputs": [],
      "name": "usdcToken",
      "outputs": [
        {
          "internalType": "contract IERC20",
          "name": "",
          "type": "address"
        }
      ],
      "stateMutability": "view",
      "type": "function"
    },
    {
      "inputs": [
        {
          "internalType": "address",
          "name": "",
          "type": "address"
        },
        {
          "internalType": "uint256",
          "name": "",
          "type": "uint256"
        }
      ],
      "name": "userPolicies",
      "outputs": [
        {
          "internalType": "uint256",
          "name": "",
          "type": "uint256"
        }
      ],
      "stateMutability": "view",
      "type": "function"
    }
  ],
  "bytecode": "0x608034620003a3576001600160401b03906040818101838111838210176200038d5781526012825260209171125b9cdd5c985b98d9541bdb1a58de53919560721b83820152815193828501858110828211176200038d5783526005855264125413919560da1b8486015281518181116200038d576000948554916001948584811c9416801562000382575b838510146200036e578190601f948581116200031b575b508390858311600114620002b7578992620002ab575b5050600019600383901b1c191690851b1786555b8651928311620002975783548481811c911680156200028c575b82821014620002785782811162000230575b5080918311600114620001c9575084958293949592620001bd575b5050600019600383901b1c191690821b1790555b3315620001a55760068054336001600160a01b0319808316821790935592519373036cbd53842c5426634e7929541ec2318f3dcf7e93916001600160a01b0316907f8be0079c531659141344cd1fd0a4f28419497f9722a3daafe3b4186f6b6457e09080a3600a600c55600d541617600d55611e919081620003a98239f35b51631e4fbdf760e01b81526004810191909152602490fd5b01519050388062000112565b90601f198316968487528287209287905b89821062000218575050838596979810620001fe575b505050811b01905562000126565b015160001960f88460031b161c19169055388080620001f0565b808785968294968601518155019501930190620001da565b8487528187208380860160051c8201928487106200026e575b0160051c019085905b82811062000262575050620000f7565b88815501859062000252565b9250819262000249565b634e487b7160e01b87526022600452602487fd5b90607f1690620000e5565b634e487b7160e01b86526041600452602486fd5b015190503880620000b7565b898052848a208894509190601f1984168b5b87828210620003045750508411620002ea575b505050811b018655620000cb565b015160001960f88460031b161c19169055388080620002dc565b8385015186558b97909501949384019301620002c9565b9091508880528389208580850160051c82019286861062000364575b918991869594930160051c01915b82811062000355575050620000a1565b8b815585945089910162000345565b9250819262000337565b634e487b7160e01b88526022600452602488fd5b93607f16936200008a565b634e487b7160e01b600052604160045260246000fd5b600080fdfe6080604081815260048036101561001557600080fd5b600092833560e01c90816301ffc9a7146116a95750806306fdde0314611616578063081812fc146115db578063095ea7b3146114ff5780630a6fcdad146114bc57806311117fc81461147c57806311eac855146114535780631785f53c146112df5780631be05289146112c057806323b872dd146112a857806324d7806c146111eb5780633d36adc51461125257806342842e0e14611229578063429b62e5146111eb57806346e3013514610e3b5780636352211e14610e0a5780636aa14a9614610cdb5780637048027514610bc557806370a0823114610b70578063715018a614610b13578063723931ca14610aea5780638da5cb5b14610ac157806395d89b41146109f4578063a22cb46514610949578063b3e089a214610904578063b88d4fde146108a0578063c87b56dd14610851578063d3e8948314610740578063d52c1bea14610721578063da45693314610334578063e9523c971461026c578063e985e9c51461021a5763f2fde38b1461018e57600080fd5b34610216576020366003190112610216576101a7611755565b906101b0611e0f565b6001600160a01b03918216928315610200575050600680546001600160a01b031981168417909155167f8be0079c531659141344cd1fd0a4f28419497f9722a3daafe3b4186f6b6457e08380a380f35b51631e4fbdf760e01b8152908101849052602490fd5b8280fd5b50503461026857806003193601126102685760ff8160209361023a611755565b610242611770565b6001600160a01b0391821683526005875283832091168252855220549151911615158152f35b5080fd5b8284346103315780600319360112610331578151600880548083529083526020939284830192909183907ff3f7a9fe364faab93b216da50a3214154f22a0a2b415b23a84c8169e8b636ee390845b81811061031457505050816102d0910382611836565b83519485948186019282875251809352850193925b8281106102f457505050500390f35b83516001600160a01b0316855286955093810193928101926001016102e5565b82546001600160a01b0316845292880192600192830192016102ba565b80fd5b50346102165760603660031901126102165780359167ffffffffffffffff9182841161071d573660238501121561071d57610379602494369086818501359101611874565b9380359384156106dc57908693929160018060a01b039687600d54168551906323b872dd60e01b8252338683015230858301528860448301528160648160209a8b945af180156106d2576106a5575b50600b549760001991828a1461069357600193848b01600b55875160c081018181108382111761068157906104728b8f8f908f8d968f5285528d838601904282528087019260443584526009606089019682885260808a019683885260a08b019d8e528352522095518655518b86015551600285015561045b6003850192511515839060ff801983541691151516179055565b51815461ff00191690151560081b61ff0016179055565b01915190815190811161066f576104938161048d85546118ab565b85611b24565b898d601f831160011461061257906104c09383610607575b50508160011b916000199060031b1c19161790565b90555b33156105f1578890818b5260028852868b20541680151592836105bf575b5033808c5260038952878c20805486019055828c5260028952878c2080546001600160a01b0319168217905590600080516020611e3c8339815191528c80a46105aa57338852600a855283882091825493600160401b8510156105995750506105768361058f9389937fe3a4e855ca574024873a64ada77dfdb7f1342b982fbfe29edf24be638f20d3989897960181556117b7565b90919082549060031b91821b91600019901b1916179055565b519283523392a380f35b634e487b7160e01b8a526041905288fd5b5091516339e3563760e11b8152908101869052fd5b600083815260046020526040902080546001600160a01b0319169055818c5260038952878c20908154019055386104e1565b8551633250574960e11b81528086018b90528490fd5b0151905038806104ab565b908793601f1984168684528d80852094905b8282106106585750508411610641575b505050811b0190556104c3565b01518660f88460031b161c19169055388080610634565b8385015186558b979095019493840193018e610624565b634e487b7160e01b8d5260418852868dfd5b634e487b7160e01b8e5260418952878efd5b634e487b7160e01b8b5260118652848bfd5b6106c490873d89116106cb575b6106bc8183611836565b810190611af5565b50386103c8565b503d6106b2565b86513d8c823e3d90fd5b5060209081606494519362461bcd60e51b85528401528201527f416d6f756e74206d7573742062652067726561746572207468616e207a65726f6044820152fd5b8480fd5b505034610268578160031936011261026857602090600b549051908152f35b508290346102685760209283600319360112610216578135835260098452808320805492600192600183015460028401549260038501549401888351968983549361078a856118ab565b808b52946001811690811561082d57506001146107f2575b838b6107ee8c8f8d8d8d8d6107bb8660ff960387611836565b815198899889528801528601528181161515606086015260081c161515608084015260c060a084015260c0830190611715565b0390f35b908094939b50528983205b82841061081a575050508501909601958088866107ee60ff6107a2565b80548985018c0152928a019281016107fd565b60ff1916858c01525050505090151560051b86010196508088866107ee60ff6107a2565b50919034610268576020366003190112610268576108726107ee9335611dd4565b5081815161087f81611804565b5280519161088c83611804565b825251918291602083526020830190611715565b838234610268576080366003190112610268576108bb611755565b6108c3611770565b9060643567ffffffffffffffff811161071d573660238201121561071d57610901938160246108f793369301359101611874565b9160443591611c85565b80f35b83346103315760203660031901126103315761091e611755565b610926611e0f565b600d80546001600160a01b0319166001600160a01b039290921691909117905580f35b509034610216578060031936011261021657610963611755565b90602435801515928382036109f0576001600160a01b03169384156109d957506109ac9033865260056020528286208587526020528286209060ff801983541691151516179055565b519081527f17307eab39ab6107e8899845ad3d59bd9653f200f220920489ca2b5937696c3160203392a380f35b8251630b61174360e31b8152908101859052602490fd5b8580fd5b828434610331578060031936011261033157815191828260019360015494610a1b866118ab565b9182855260209687600182169182600014610a9a575050600114610a5c575b5050506107ee9291610a4d910385611836565b51928284938452830190611715565b9190869350600183528383205b828410610a825750505082010181610a4d6107ee610a3a565b8054848a018601528895508794909301928101610a69565b60ff19168782015293151560051b86019093019350849250610a4d91506107ee9050610a3a565b50503461026857816003193601126102685760065490516001600160a01b039091168152602090f35b5091346103315760203660031901126103315750610b0a60209235611c49565b90519015158152f35b8334610331578060031936011261033157610b2c611e0f565b600680546001600160a01b0319811690915581906001600160a01b03167f8be0079c531659141344cd1fd0a4f28419497f9722a3daafe3b4186f6b6457e08280a380f35b509134610331576020366003190112610331576001600160a01b03610b93611755565b16928315610bb05750806020938392526003845220549051908152f35b91516322718ad960e21b815291820152602490fd5b5091903461026857602036600319011261026857610be1611755565b610be9611e0f565b6001600160a01b03811680845260076020528284205490929060ff16610c995782845260076020528320805460ff19166001179055600854600160401b811015610c865790610c41826001610c5f9401600855611786565b90919060018060a01b038084549260031b9316831b921b1916179055565b7f44d6d25963f097ad14f29f06854a01f575648a1ef82f30e562ccd3889717e3398280a280f35b634e487b7160e01b845260418552602484fd5b5162461bcd60e51b8152602081860152601b60248201527f4164647265737320697320616c726561647920616e2061646d696e00000000006044820152606490fd5b50903461021657602080600319360112610e06578235926001610cfd85611c49565b151503610dcb57610d20610d1085611dd4565b6001600160a01b031633146118e5565b8385526009825260ff6003848720015416610d905750906009600392848652818152610d5760ff85858920015460081c1615611ab8565b84865252832001805460ff191660011790557f9936a1a62c48173d9bbe9f13a0665f489585f9b2bb59a6747ce90c5d48272d358280a280f35b915162461bcd60e51b815291820152601760248201527610db185a5b48185b1c9958591e481cdd589b5a5d1d1959604a1b6044820152606490fd5b915162461bcd60e51b815291820152601760248201527645787069726174696f6e206d757374206265207472756560481b6044820152606490fd5b8380fd5b5091346103315760203660031901126103315750610e2a60209235611dd4565b90516001600160a01b039091168152f35b5090346102165760209182600319360112610e0657803592610e5b611e0f565b83855260098152600360ff81858820015416156111b45784865260098252610e8e60ff82868920015460081c1615611ab8565b610e9785611dd4565b600d548688526009845285882054865163a9059cbb60e01b81526001600160a01b03848116888301908152602081019390935293979395929091839183918290036040019082908d908a165af180156111aa5761118d575b50868852600281528382892054168789821592831561115b575b8282526002855285822080546001600160a01b0319169055600080516020611e3c8339815191528280a461114457600b5460001994908581019081116110c457895260098252828920888a52838a20878282036110d7575b505050600b548581019081116110c457895260098252828920968988558987600199826001820155826002820155828882015501610f9f81546118ab565b80611088575b505050600b548015611075578601600b55168852600a90528620805490875b828110610ff5575b88887fd2d0ed0cccc8615643ade1eff3929a29ed8df75ebca85a3996e311c9b69e22898280a280f35b8761100082846117b7565b905490861b1c14611012578601610fc4565b939550919385820193918411611062575090611046839261057661103961104b96856117b7565b905490881b1c91846117b7565b6117b7565b81939154921b1b1916905538808080808080610fcc565b634e487b7160e01b885260119052602487fd5b634e487b7160e01b8b526011885260248bfd5b82601f82116001146110a0575050555b893880610fa5565b90918082526110bd601f888420940160051c840160018501611b0d565b5555611098565b634e487b7160e01b8a526011875260248afd5b808361113c94548455600181015460018501556002810154600285015561113489850160ff8b840161111882825416849060ff801983541691151516179055565b5460081c1661ff00825491151560081b169061ff001916179055565b019101611b6b565b388087610f61565b8151637e27328960e01b8152808601889052602490fd5b600083815260046020526040902080546001600160a01b03191690558082528685528582208054600019019055610f09565b6111a390823d84116106cb576106bc8183611836565b5038610eef565b83513d8b823e3d90fd5b50606492519162461bcd60e51b8352820152601360248201527210db185a5b481b9bdd081cdd589b5a5d1d1959606a1b6044820152fd5b5050346102685760203660031901126102685760209160ff9082906001600160a01b03611216611755565b1681526007855220541690519015158152f35b505034610268576109019061123d366117cf565b9192519261124a84611804565b858452611c85565b50503461026857806003193601126102685761126c611755565b6001600160a01b03168252600a60205280822080546024359390841015610331575060209261129a916117b7565b91905490519160031b1c8152f35b8334610331576109016112ba366117cf565b91611928565b505034610268578160031936011261026857602090600c549051908152f35b509034610216576020366003190112610216576112fa611755565b611302611e0f565b6001600160a01b0390811680855260076020528285205490929060ff16156114175782855260076020528420805460ff19169055835b600880548083101561140c579083918561135185611786565b949054600395861b1c161461136b57505050600101611338565b919495909392600019928381019081116113f95790610c418561139061139d94611786565b9054908a1b1c1691611786565b83549081156113e6575001926113b284611786565b81939154921b1b19169055555b7fa3b62bc36326052d97ea62d63c3d60308ed4c3ea8ac079dd8499f1e9c4f80c0f8280a280f35b634e487b7160e01b885260319052602487fd5b634e487b7160e01b895260118352602489fd5b5050505090506113bf565b5162461bcd60e51b8152602081850152601760248201527620b2323932b9b99034b9903737ba1030b71030b236b4b760491b6044820152606490fd5b505034610268578160031936011261026857600d5490516001600160a01b039091168152602090f35b503461021657602036600319011261021657359160085483101561033157506114a6602092611786565b905491519160018060a01b039160031b1c168152f35b505034610268578060031936011261026857610901906114da611755565b90602435906114eb610d1083611dd4565b51916114f683611804565b84835233611c85565b509034610216578060031936011261021657611519611755565b9160243561152681611dd4565b331515806115c8575b8061159f575b611589576001600160a01b039485169482918691167f8c5be1e5ebec7d5bd14f71427d1e84f3dd0314c0f7b2291e5b200ac8c7c3b9258880a48452602052822080546001600160a01b031916909117905580f35b835163a9fbf51f60e01b81523381850152602490fd5b506001600160a01b03811686526005602090815284872033885290528386205460ff1615611535565b506001600160a01b03811633141561152f565b5034610216576020366003190112610216579182602093356115fc81611dd4565b50825283528190205490516001600160a01b039091168152f35b82843461033157806003193601126103315781519182828354611638816118ab565b9081845260209560019187600182169182600014610a9a57505060011461166c575050506107ee9291610a4d910385611836565b91908693508280528383205b8284106116915750505082010181610a4d6107ee610a3a565b8054848a018601528895508794909301928101611678565b92505034610216576020366003190112610216573563ffffffff60e01b811680910361021657602092506380ac58cd60e01b8114908115611704575b81156116f3575b5015158152f35b6301ffc9a760e01b149050386116ec565b635b5e139f60e01b811491506116e5565b919082519283825260005b848110611741575050826000602080949584010152601f8019910116010190565b602081830181015184830182015201611720565b600435906001600160a01b038216820361176b57565b600080fd5b602435906001600160a01b038216820361176b57565b6008548110156117a157600860005260206000200190600090565b634e487b7160e01b600052603260045260246000fd5b80548210156117a15760005260206000200190600090565b606090600319011261176b576001600160a01b0390600435828116810361176b5791602435908116810361176b579060443590565b6020810190811067ffffffffffffffff82111761182057604052565b634e487b7160e01b600052604160045260246000fd5b90601f8019910116810190811067ffffffffffffffff82111761182057604052565b67ffffffffffffffff811161182057601f01601f191660200190565b92919261188082611858565b9161188e6040519384611836565b82948184528183011161176b578281602093846000960137010152565b90600182811c921680156118db575b60208310146118c557565b634e487b7160e01b600052602260045260246000fd5b91607f16916118ba565b156118ec57565b60405162461bcd60e51b81526020600482015260146024820152732737ba103a3432903837b634b1bc9037bbb732b960611b6044820152606490fd5b6001600160a01b039182169290918315611a9f57600092828452826020956002875260409684888820541696879133151580611a06575b50906002600080516020611e3c83398151915292846119d3575b858352600381528b8320805460010190558683525289812080546001600160a01b0319168517905580a416928383036119b25750505050565b6064945051926364283d7b60e01b8452600484015260248301526044820152fd5b600087815260046020526040902080546001600160a01b0319169055848352600381528b83208054600019019055611979565b91939450915080611a5e575b15611a225785929187913861195f565b878688611a3f576024915190637e27328960e01b82526004820152fd5b905163177e802f60e01b81523360048201526024810191909152604490fd5b503387148015611a83575b80611a125750858252600481523385898420541614611a12565b5086825260058152878220338352815260ff8883205416611a69565b604051633250574960e11b815260006004820152602490fd5b15611abf57565b60405162461bcd60e51b815260206004820152600e60248201526d141bdb1a58de48195e1c1a5c995960921b6044820152606490fd5b9081602091031261176b5751801515810361176b5790565b818110611b18575050565b60008155600101611b0d565b9190601f8111611b3357505050565b611b5f926000526020600020906020601f840160051c83019310611b61575b601f0160051c0190611b0d565b565b9091508190611b52565b90808214611c4557611b7d81546118ab565b9067ffffffffffffffff821161182057611b9b8261048d85546118ab565b600090601f8311600114611bda57611bcb929160009183611bcf5750508160011b916000199060031b1c19161790565b9055565b0154905038806104ab565b815260208082208483528183209291601f1985169083905b828210611c2c575050908460019594939210611c13575b505050811b019055565b015460001960f88460031b161c19169055388080611c09565b8495819295850154815560018091019601940190611bf2565b5050565b60005260096020526040600020600260018201549101548101809111611c6f5742101590565b634e487b7160e01b600052601160045260246000fd5b611c90838383611928565b813b611c9d575b50505050565b604051630a85bd0160e11b8082523360048301526001600160a01b03928316602483015260448201949094526080606482015260209592909116939092908390611ceb906084830190611715565b039285816000958187895af1849181611d94575b50611d5f575050503d600014611d57573d611d1981611858565b90611d276040519283611836565b81528091843d92013e5b80519283611d5257604051633250574960e11b815260048101849052602490fd5b019050fd5b506060611d31565b919450915063ffffffff60e01b1603611d7c575038808080611c97565b60249060405190633250574960e11b82526004820152fd5b9091508681813d8311611dcd575b611dac8183611836565b8101031261071d57516001600160e01b03198116810361071d579038611cff565b503d611da2565b6000818152600260205260409020546001600160a01b0316908115611df7575090565b60249060405190637e27328960e01b82526004820152fd5b6006546001600160a01b03163303611e2357565b60405163118cdaa760e01b8152336004820152602490fdfeddf252ad1be2c89b69c2b068fc378daa952ba7f163c4a11628f55a4df523b3efa2646970667358221220d8c6bb1de8c32f27c31d59d3db01aacdcea00e8bf23a580f6f0f662f6e90810464736f6c63430008180033",
  "linkReferences": {},
  "deployedLinkReferences": {}
}